{
	"RewardManager.sol": {
		"RewardManager": {
			"abi": [
				{
					"inputs": [
						{
							"internalType": "address",
							"name": "initialOwner",
							"type": "address"
						}
					],
					"stateMutability": "nonpayable",
					"type": "constructor"
				},
				{
					"inputs": [
						{
							"internalType": "address",
							"name": "owner",
							"type": "address"
						}
					],
					"name": "OwnableInvalidOwner",
					"type": "error"
				},
				{
					"inputs": [
						{
							"internalType": "address",
							"name": "account",
							"type": "address"
						}
					],
					"name": "OwnableUnauthorizedAccount",
					"type": "error"
				},
				{
					"anonymous": false,
					"inputs": [
						{
							"indexed": true,
							"internalType": "address",
							"name": "previousOwner",
							"type": "address"
						},
						{
							"indexed": true,
							"internalType": "address",
							"name": "newOwner",
							"type": "address"
						}
					],
					"name": "OwnershipTransferred",
					"type": "event"
				},
				{
					"inputs": [
						{
							"internalType": "uint256",
							"name": "",
							"type": "uint256"
						}
					],
					"name": "coupons",
					"outputs": [
						{
							"internalType": "string",
							"name": "name",
							"type": "string"
						},
						{
							"internalType": "string",
							"name": "code",
							"type": "string"
						},
						{
							"internalType": "string",
							"name": "company",
							"type": "string"
						},
						{
							"internalType": "bool",
							"name": "redeemed",
							"type": "bool"
						}
					],
					"stateMutability": "view",
					"type": "function"
				},
				{
					"inputs": [
						{
							"internalType": "string",
							"name": "name",
							"type": "string"
						},
						{
							"internalType": "string",
							"name": "code",
							"type": "string"
						},
						{
							"internalType": "string",
							"name": "company",
							"type": "string"
						}
					],
					"name": "createReward",
					"outputs": [],
					"stateMutability": "nonpayable",
					"type": "function"
				},
				{
					"inputs": [
						{
							"internalType": "uint256",
							"name": "id",
							"type": "uint256"
						}
					],
					"name": "getReward",
					"outputs": [
						{
							"components": [
								{
									"internalType": "string",
									"name": "name",
									"type": "string"
								},
								{
									"internalType": "string",
									"name": "code",
									"type": "string"
								},
								{
									"internalType": "string",
									"name": "company",
									"type": "string"
								},
								{
									"internalType": "bool",
									"name": "redeemed",
									"type": "bool"
								}
							],
							"internalType": "struct RewardManager.Rewards",
							"name": "",
							"type": "tuple"
						}
					],
					"stateMutability": "view",
					"type": "function"
				},
				{
					"inputs": [],
					"name": "nextId",
					"outputs": [
						{
							"internalType": "uint256",
							"name": "",
							"type": "uint256"
						}
					],
					"stateMutability": "view",
					"type": "function"
				},
				{
					"inputs": [],
					"name": "owner",
					"outputs": [
						{
							"internalType": "address",
							"name": "",
							"type": "address"
						}
					],
					"stateMutability": "view",
					"type": "function"
				},
				{
					"inputs": [
						{
							"internalType": "uint256",
							"name": "id",
							"type": "uint256"
						}
					],
					"name": "redeemReward",
					"outputs": [],
					"stateMutability": "nonpayable",
					"type": "function"
				},
				{
					"inputs": [],
					"name": "renounceOwnership",
					"outputs": [],
					"stateMutability": "nonpayable",
					"type": "function"
				},
				{
					"inputs": [
						{
							"internalType": "address",
							"name": "newOwner",
							"type": "address"
						}
					],
					"name": "transferOwnership",
					"outputs": [],
					"stateMutability": "nonpayable",
					"type": "function"
				}
			],
			"devdoc": {
				"errors": {
					"OwnableInvalidOwner(address)": [
						{
							"details": "The owner is not a valid owner account. (eg. `address(0)`)"
						}
					],
					"OwnableUnauthorizedAccount(address)": [
						{
							"details": "The caller account is not authorized to perform an operation."
						}
					]
				},
				"kind": "dev",
				"methods": {
					"owner()": {
						"details": "Returns the address of the current owner."
					},
					"renounceOwnership()": {
						"details": "Leaves the contract without owner. It will not be possible to call `onlyOwner` functions. Can only be called by the current owner. NOTE: Renouncing ownership will leave the contract without an owner, thereby disabling any functionality that is only available to the owner."
					},
					"transferOwnership(address)": {
						"details": "Transfers ownership of the contract to a new account (`newOwner`). Can only be called by the current owner."
					}
				},
				"version": 1
			},
			"evm": {
				"assembly": "    /* \"RewardManager.sol\":116:925  contract RewardManager is Ownable {... */\n  mstore(0x40, 0x80)\n    /* \"RewardManager.sol\":360:418  constructor(address initialOwner) Ownable(initialOwner) {} */\n  callvalue\n  dup1\n  iszero\n  tag_1\n  jumpi\n  0x00\n  dup1\n  revert\ntag_1:\n  pop\n  mload(0x40)\n  sub(codesize, bytecodeSize)\n  dup1\n  bytecodeSize\n  dup4\n  codecopy\n  dup2\n  dup2\n  add\n  0x40\n  mstore\n  dup2\n  add\n  swap1\n  tag_2\n  swap2\n  swap1\n  tag_3\n  jump\t// in\ntag_2:\n    /* \"RewardManager.sol\":402:414  initialOwner */\n  dup1\n    /* \"@openzeppelin/contracts/access/Ownable.sol\":1297:1298  0 */\n  0x00\n    /* \"@openzeppelin/contracts/access/Ownable.sol\":1273:1299  initialOwner == address(0) */\n  0xffffffffffffffffffffffffffffffffffffffff\n  and\n    /* \"@openzeppelin/contracts/access/Ownable.sol\":1273:1285  initialOwner */\n  dup2\n    /* \"@openzeppelin/contracts/access/Ownable.sol\":1273:1299  initialOwner == address(0) */\n  0xffffffffffffffffffffffffffffffffffffffff\n  and\n  sub\n    /* \"@openzeppelin/contracts/access/Ownable.sol\":1269:1364  if (initialOwner == address(0)) {... */\n  tag_7\n  jumpi\n    /* \"@openzeppelin/contracts/access/Ownable.sol\":1350:1351  0 */\n  0x00\n    /* \"@openzeppelin/contracts/access/Ownable.sol\":1322:1353  OwnableInvalidOwner(address(0)) */\n  mload(0x40)\n  0x1e4fbdf700000000000000000000000000000000000000000000000000000000\n  dup2\n  mstore\n  0x04\n  add\n  tag_8\n  swap2\n  swap1\n  tag_9\n  jump\t// in\ntag_8:\n  mload(0x40)\n  dup1\n  swap2\n  sub\n  swap1\n  revert\n    /* \"@openzeppelin/contracts/access/Ownable.sol\":1269:1364  if (initialOwner == address(0)) {... */\ntag_7:\n    /* \"@openzeppelin/contracts/access/Ownable.sol\":1373:1405  _transferOwnership(initialOwner) */\n  tag_10\n    /* \"@openzeppelin/contracts/access/Ownable.sol\":1392:1404  initialOwner */\n  dup2\n    /* \"@openzeppelin/contracts/access/Ownable.sol\":1373:1391  _transferOwnership */\n  shl(0x20, tag_11)\n    /* \"@openzeppelin/contracts/access/Ownable.sol\":1373:1405  _transferOwnership(initialOwner) */\n  0x20\n  shr\n  jump\t// in\ntag_10:\n    /* \"@openzeppelin/contracts/access/Ownable.sol\":1225:1412  constructor(address initialOwner) {... */\n  pop\n    /* \"RewardManager.sol\":360:418  constructor(address initialOwner) Ownable(initialOwner) {} */\n  pop\n    /* \"RewardManager.sol\":116:925  contract RewardManager is Ownable {... */\n  jump(tag_13)\n    /* \"@openzeppelin/contracts/access/Ownable.sol\":2912:3099  function _transferOwnership(address newOwner) internal virtual {... */\ntag_11:\n    /* \"@openzeppelin/contracts/access/Ownable.sol\":2985:3001  address oldOwner */\n  0x00\n    /* \"@openzeppelin/contracts/access/Ownable.sol\":3004:3010  _owner */\n  dup1\n  0x00\n  swap1\n  sload\n  swap1\n  0x0100\n  exp\n  swap1\n  div\n  0xffffffffffffffffffffffffffffffffffffffff\n  and\n    /* \"@openzeppelin/contracts/access/Ownable.sol\":2985:3010  address oldOwner = _owner */\n  swap1\n  pop\n    /* \"@openzeppelin/contracts/access/Ownable.sol\":3029:3037  newOwner */\n  dup2\n    /* \"@openzeppelin/contracts/access/Ownable.sol\":3020:3026  _owner */\n  0x00\n  dup1\n    /* \"@openzeppelin/contracts/access/Ownable.sol\":3020:3037  _owner = newOwner */\n  0x0100\n  exp\n  dup2\n  sload\n  dup2\n  0xffffffffffffffffffffffffffffffffffffffff\n  mul\n  not\n  and\n  swap1\n  dup4\n  0xffffffffffffffffffffffffffffffffffffffff\n  and\n  mul\n  or\n  swap1\n  sstore\n  pop\n    /* \"@openzeppelin/contracts/access/Ownable.sol\":3083:3091  newOwner */\n  dup2\n    /* \"@openzeppelin/contracts/access/Ownable.sol\":3052:3092  OwnershipTransferred(oldOwner, newOwner) */\n  0xffffffffffffffffffffffffffffffffffffffff\n  and\n    /* \"@openzeppelin/contracts/access/Ownable.sol\":3073:3081  oldOwner */\n  dup2\n    /* \"@openzeppelin/contracts/access/Ownable.sol\":3052:3092  OwnershipTransferred(oldOwner, newOwner) */\n  0xffffffffffffffffffffffffffffffffffffffff\n  and\n  0x8be0079c531659141344cd1fd0a4f28419497f9722a3daafe3b4186f6b6457e0\n  mload(0x40)\n  mload(0x40)\n  dup1\n  swap2\n  sub\n  swap1\n  log3\n    /* \"@openzeppelin/contracts/access/Ownable.sol\":2975:3099  {... */\n  pop\n    /* \"@openzeppelin/contracts/access/Ownable.sol\":2912:3099  function _transferOwnership(address newOwner) internal virtual {... */\n  pop\n  jump\t// out\n    /* \"#utility.yul\":88:205   */\ntag_16:\n    /* \"#utility.yul\":197:198   */\n  0x00\n    /* \"#utility.yul\":194:195   */\n  dup1\n    /* \"#utility.yul\":187:199   */\n  revert\n    /* \"#utility.yul\":334:460   */\ntag_18:\n    /* \"#utility.yul\":371:378   */\n  0x00\n    /* \"#utility.yul\":411:453   */\n  0xffffffffffffffffffffffffffffffffffffffff\n    /* \"#utility.yul\":404:409   */\n  dup3\n    /* \"#utility.yul\":400:454   */\n  and\n    /* \"#utility.yul\":389:454   */\n  swap1\n  pop\n    /* \"#utility.yul\":334:460   */\n  swap2\n  swap1\n  pop\n  jump\t// out\n    /* \"#utility.yul\":466:562   */\ntag_19:\n    /* \"#utility.yul\":503:510   */\n  0x00\n    /* \"#utility.yul\":532:556   */\n  tag_29\n    /* \"#utility.yul\":550:555   */\n  dup3\n    /* \"#utility.yul\":532:556   */\n  tag_18\n  jump\t// in\ntag_29:\n    /* \"#utility.yul\":521:556   */\n  swap1\n  pop\n    /* \"#utility.yul\":466:562   */\n  swap2\n  swap1\n  pop\n  jump\t// out\n    /* \"#utility.yul\":568:690   */\ntag_20:\n    /* \"#utility.yul\":641:665   */\n  tag_31\n    /* \"#utility.yul\":659:664   */\n  dup2\n    /* \"#utility.yul\":641:665   */\n  tag_19\n  jump\t// in\ntag_31:\n    /* \"#utility.yul\":634:639   */\n  dup2\n    /* \"#utility.yul\":631:666   */\n  eq\n    /* \"#utility.yul\":621:684   */\n  tag_32\n  jumpi\n    /* \"#utility.yul\":680:681   */\n  0x00\n    /* \"#utility.yul\":677:678   */\n  dup1\n    /* \"#utility.yul\":670:682   */\n  revert\n    /* \"#utility.yul\":621:684   */\ntag_32:\n    /* \"#utility.yul\":568:690   */\n  pop\n  jump\t// out\n    /* \"#utility.yul\":696:839   */\ntag_21:\n    /* \"#utility.yul\":753:758   */\n  0x00\n    /* \"#utility.yul\":784:790   */\n  dup2\n    /* \"#utility.yul\":778:791   */\n  mload\n    /* \"#utility.yul\":769:791   */\n  swap1\n  pop\n    /* \"#utility.yul\":800:833   */\n  tag_34\n    /* \"#utility.yul\":827:832   */\n  dup2\n    /* \"#utility.yul\":800:833   */\n  tag_20\n  jump\t// in\ntag_34:\n    /* \"#utility.yul\":696:839   */\n  swap3\n  swap2\n  pop\n  pop\n  jump\t// out\n    /* \"#utility.yul\":845:1196   */\ntag_3:\n    /* \"#utility.yul\":915:921   */\n  0x00\n    /* \"#utility.yul\":964:966   */\n  0x20\n    /* \"#utility.yul\":952:961   */\n  dup3\n    /* \"#utility.yul\":943:950   */\n  dup5\n    /* \"#utility.yul\":939:962   */\n  sub\n    /* \"#utility.yul\":935:967   */\n  slt\n    /* \"#utility.yul\":932:1051   */\n  iszero\n  tag_36\n  jumpi\n    /* \"#utility.yul\":970:1049   */\n  tag_37\n  tag_16\n  jump\t// in\ntag_37:\n    /* \"#utility.yul\":932:1051   */\ntag_36:\n    /* \"#utility.yul\":1090:1091   */\n  0x00\n    /* \"#utility.yul\":1115:1179   */\n  tag_38\n    /* \"#utility.yul\":1171:1178   */\n  dup5\n    /* \"#utility.yul\":1162:1168   */\n  dup3\n    /* \"#utility.yul\":1151:1160   */\n  dup6\n    /* \"#utility.yul\":1147:1169   */\n  add\n    /* \"#utility.yul\":1115:1179   */\n  tag_21\n  jump\t// in\ntag_38:\n    /* \"#utility.yul\":1105:1179   */\n  swap2\n  pop\n    /* \"#utility.yul\":1061:1189   */\n  pop\n    /* \"#utility.yul\":845:1196   */\n  swap3\n  swap2\n  pop\n  pop\n  jump\t// out\n    /* \"#utility.yul\":1202:1320   */\ntag_22:\n    /* \"#utility.yul\":1289:1313   */\n  tag_40\n    /* \"#utility.yul\":1307:1312   */\n  dup2\n    /* \"#utility.yul\":1289:1313   */\n  tag_19\n  jump\t// in\ntag_40:\n    /* \"#utility.yul\":1284:1287   */\n  dup3\n    /* \"#utility.yul\":1277:1314   */\n  mstore\n    /* \"#utility.yul\":1202:1320   */\n  pop\n  pop\n  jump\t// out\n    /* \"#utility.yul\":1326:1548   */\ntag_9:\n    /* \"#utility.yul\":1419:1423   */\n  0x00\n    /* \"#utility.yul\":1457:1459   */\n  0x20\n    /* \"#utility.yul\":1446:1455   */\n  dup3\n    /* \"#utility.yul\":1442:1460   */\n  add\n    /* \"#utility.yul\":1434:1460   */\n  swap1\n  pop\n    /* \"#utility.yul\":1470:1541   */\n  tag_42\n    /* \"#utility.yul\":1538:1539   */\n  0x00\n    /* \"#utility.yul\":1527:1536   */\n  dup4\n    /* \"#utility.yul\":1523:1540   */\n  add\n    /* \"#utility.yul\":1514:1520   */\n  dup5\n    /* \"#utility.yul\":1470:1541   */\n  tag_22\n  jump\t// in\ntag_42:\n    /* \"#utility.yul\":1326:1548   */\n  swap3\n  swap2\n  pop\n  pop\n  jump\t// out\n    /* \"RewardManager.sol\":116:925  contract RewardManager is Ownable {... */\ntag_13:\n  dataSize(sub_0)\n  dup1\n  dataOffset(sub_0)\n  0x00\n  codecopy\n  0x00\n  return\nstop\n\nsub_0: assembly {\n        /* \"RewardManager.sol\":116:925  contract RewardManager is Ownable {... */\n      mstore(0x40, 0x80)\n      callvalue\n      dup1\n      iszero\n      tag_1\n      jumpi\n      0x00\n      dup1\n      revert\n    tag_1:\n      pop\n      jumpi(tag_2, lt(calldatasize, 0x04))\n      shr(0xe0, calldataload(0x00))\n      dup1\n      0x61b8ce8c\n      gt\n      tag_11\n      jumpi\n      dup1\n      0x61b8ce8c\n      eq\n      tag_7\n      jumpi\n      dup1\n      0x715018a6\n      eq\n      tag_8\n      jumpi\n      dup1\n      0x8da5cb5b\n      eq\n      tag_9\n      jumpi\n      dup1\n      0xf2fde38b\n      eq\n      tag_10\n      jumpi\n      jump(tag_2)\n    tag_11:\n      dup1\n      0x1c4b774b\n      eq\n      tag_3\n      jumpi\n      dup1\n      0x30828e92\n      eq\n      tag_4\n      jumpi\n      dup1\n      0x51a71b17\n      eq\n      tag_5\n      jumpi\n      dup1\n      0x5216ee3c\n      eq\n      tag_6\n      jumpi\n    tag_2:\n      0x00\n      dup1\n      revert\n        /* \"RewardManager.sol\":817:922  function getReward(uint256 id) public view returns (Rewards memory) {... */\n    tag_3:\n      tag_12\n      0x04\n      dup1\n      calldatasize\n      sub\n      dup2\n      add\n      swap1\n      tag_13\n      swap2\n      swap1\n      tag_14\n      jump\t// in\n    tag_13:\n      tag_15\n      jump\t// in\n    tag_12:\n      mload(0x40)\n      tag_16\n      swap2\n      swap1\n      tag_17\n      jump\t// in\n    tag_16:\n      mload(0x40)\n      dup1\n      swap2\n      sub\n      swap1\n      return\n        /* \"RewardManager.sol\":281:323  mapping(uint256 => Rewards) public coupons */\n    tag_4:\n      tag_18\n      0x04\n      dup1\n      calldatasize\n      sub\n      dup2\n      add\n      swap1\n      tag_19\n      swap2\n      swap1\n      tag_14\n      jump\t// in\n    tag_19:\n      tag_20\n      jump\t// in\n    tag_18:\n      mload(0x40)\n      tag_21\n      swap5\n      swap4\n      swap3\n      swap2\n      swap1\n      tag_22\n      jump\t// in\n    tag_21:\n      mload(0x40)\n      dup1\n      swap2\n      sub\n      swap1\n      return\n        /* \"RewardManager.sol\":661:809  function redeemReward(uint256 id) public {... */\n    tag_5:\n      tag_23\n      0x04\n      dup1\n      calldatasize\n      sub\n      dup2\n      add\n      swap1\n      tag_24\n      swap2\n      swap1\n      tag_14\n      jump\t// in\n    tag_24:\n      tag_25\n      jump\t// in\n    tag_23:\n      stop\n        /* \"RewardManager.sol\":426:653  function createReward(... */\n    tag_6:\n      tag_26\n      0x04\n      dup1\n      calldatasize\n      sub\n      dup2\n      add\n      swap1\n      tag_27\n      swap2\n      swap1\n      tag_28\n      jump\t// in\n    tag_27:\n      tag_29\n      jump\t// in\n    tag_26:\n      stop\n        /* \"RewardManager.sol\":330:351  uint256 public nextId */\n    tag_7:\n      tag_30\n      tag_31\n      jump\t// in\n    tag_30:\n      mload(0x40)\n      tag_32\n      swap2\n      swap1\n      tag_33\n      jump\t// in\n    tag_32:\n      mload(0x40)\n      dup1\n      swap2\n      sub\n      swap1\n      return\n        /* \"@openzeppelin/contracts/access/Ownable.sol\":2293:2394  function renounceOwnership() public virtual onlyOwner {... */\n    tag_8:\n      tag_34\n      tag_35\n      jump\t// in\n    tag_34:\n      stop\n        /* \"@openzeppelin/contracts/access/Ownable.sol\":1638:1723  function owner() public view virtual returns (address) {... */\n    tag_9:\n      tag_36\n      tag_37\n      jump\t// in\n    tag_36:\n      mload(0x40)\n      tag_38\n      swap2\n      swap1\n      tag_39\n      jump\t// in\n    tag_38:\n      mload(0x40)\n      dup1\n      swap2\n      sub\n      swap1\n      return\n        /* \"@openzeppelin/contracts/access/Ownable.sol\":2543:2758  function transferOwnership(address newOwner) public virtual onlyOwner {... */\n    tag_10:\n      tag_40\n      0x04\n      dup1\n      calldatasize\n      sub\n      dup2\n      add\n      swap1\n      tag_41\n      swap2\n      swap1\n      tag_42\n      jump\t// in\n    tag_41:\n      tag_43\n      jump\t// in\n    tag_40:\n      stop\n        /* \"RewardManager.sol\":817:922  function getReward(uint256 id) public view returns (Rewards memory) {... */\n    tag_15:\n        /* \"RewardManager.sol\":869:883  Rewards memory */\n      tag_44\n      tag_45\n      jump\t// in\n    tag_44:\n        /* \"RewardManager.sol\":903:910  coupons */\n      0x01\n        /* \"RewardManager.sol\":903:914  coupons[id] */\n      0x00\n        /* \"RewardManager.sol\":911:913  id */\n      dup4\n        /* \"RewardManager.sol\":903:914  coupons[id] */\n      dup2\n      mstore\n      0x20\n      add\n      swap1\n      dup2\n      mstore\n      0x20\n      add\n      0x00\n      keccak256\n        /* \"RewardManager.sol\":896:914  return coupons[id] */\n      mload(0x40)\n      dup1\n      0x80\n      add\n      0x40\n      mstore\n      swap1\n      dup2\n      0x00\n      dup3\n      add\n      dup1\n      sload\n      tag_47\n      swap1\n      tag_48\n      jump\t// in\n    tag_47:\n      dup1\n      0x1f\n      add\n      0x20\n      dup1\n      swap2\n      div\n      mul\n      0x20\n      add\n      mload(0x40)\n      swap1\n      dup2\n      add\n      0x40\n      mstore\n      dup1\n      swap3\n      swap2\n      swap1\n      dup2\n      dup2\n      mstore\n      0x20\n      add\n      dup3\n      dup1\n      sload\n      tag_49\n      swap1\n      tag_48\n      jump\t// in\n    tag_49:\n      dup1\n      iszero\n      tag_50\n      jumpi\n      dup1\n      0x1f\n      lt\n      tag_51\n      jumpi\n      0x0100\n      dup1\n      dup4\n      sload\n      div\n      mul\n      dup4\n      mstore\n      swap2\n      0x20\n      add\n      swap2\n      jump(tag_50)\n    tag_51:\n      dup3\n      add\n      swap2\n      swap1\n      0x00\n      mstore\n      keccak256(0x00, 0x20)\n      swap1\n    tag_52:\n      dup2\n      sload\n      dup2\n      mstore\n      swap1\n      0x01\n      add\n      swap1\n      0x20\n      add\n      dup1\n      dup4\n      gt\n      tag_52\n      jumpi\n      dup3\n      swap1\n      sub\n      0x1f\n      and\n      dup3\n      add\n      swap2\n    tag_50:\n      pop\n      pop\n      pop\n      pop\n      pop\n      dup2\n      mstore\n      0x20\n      add\n      0x01\n      dup3\n      add\n      dup1\n      sload\n      tag_53\n      swap1\n      tag_48\n      jump\t// in\n    tag_53:\n      dup1\n      0x1f\n      add\n      0x20\n      dup1\n      swap2\n      div\n      mul\n      0x20\n      add\n      mload(0x40)\n      swap1\n      dup2\n      add\n      0x40\n      mstore\n      dup1\n      swap3\n      swap2\n      swap1\n      dup2\n      dup2\n      mstore\n      0x20\n      add\n      dup3\n      dup1\n      sload\n      tag_54\n      swap1\n      tag_48\n      jump\t// in\n    tag_54:\n      dup1\n      iszero\n      tag_55\n      jumpi\n      dup1\n      0x1f\n      lt\n      tag_56\n      jumpi\n      0x0100\n      dup1\n      dup4\n      sload\n      div\n      mul\n      dup4\n      mstore\n      swap2\n      0x20\n      add\n      swap2\n      jump(tag_55)\n    tag_56:\n      dup3\n      add\n      swap2\n      swap1\n      0x00\n      mstore\n      keccak256(0x00, 0x20)\n      swap1\n    tag_57:\n      dup2\n      sload\n      dup2\n      mstore\n      swap1\n      0x01\n      add\n      swap1\n      0x20\n      add\n      dup1\n      dup4\n      gt\n      tag_57\n      jumpi\n      dup3\n      swap1\n      sub\n      0x1f\n      and\n      dup3\n      add\n      swap2\n    tag_55:\n      pop\n      pop\n      pop\n      pop\n      pop\n      dup2\n      mstore\n      0x20\n      add\n      0x02\n      dup3\n      add\n      dup1\n      sload\n      tag_58\n      swap1\n      tag_48\n      jump\t// in\n    tag_58:\n      dup1\n      0x1f\n      add\n      0x20\n      dup1\n      swap2\n      div\n      mul\n      0x20\n      add\n      mload(0x40)\n      swap1\n      dup2\n      add\n      0x40\n      mstore\n      dup1\n      swap3\n      swap2\n      swap1\n      dup2\n      dup2\n      mstore\n      0x20\n      add\n      dup3\n      dup1\n      sload\n      tag_59\n      swap1\n      tag_48\n      jump\t// in\n    tag_59:\n      dup1\n      iszero\n      tag_60\n      jumpi\n      dup1\n      0x1f\n      lt\n      tag_61\n      jumpi\n      0x0100\n      dup1\n      dup4\n      sload\n      div\n      mul\n      dup4\n      mstore\n      swap2\n      0x20\n      add\n      swap2\n      jump(tag_60)\n    tag_61:\n      dup3\n      add\n      swap2\n      swap1\n      0x00\n      mstore\n      keccak256(0x00, 0x20)\n      swap1\n    tag_62:\n      dup2\n      sload\n      dup2\n      mstore\n      swap1\n      0x01\n      add\n      swap1\n      0x20\n      add\n      dup1\n      dup4\n      gt\n      tag_62\n      jumpi\n      dup3\n      swap1\n      sub\n      0x1f\n      and\n      dup3\n      add\n      swap2\n    tag_60:\n      pop\n      pop\n      pop\n      pop\n      pop\n      dup2\n      mstore\n      0x20\n      add\n      0x03\n      dup3\n      add\n      0x00\n      swap1\n      sload\n      swap1\n      0x0100\n      exp\n      swap1\n      div\n      0xff\n      and\n      iszero\n      iszero\n      iszero\n      iszero\n      dup2\n      mstore\n      pop\n      pop\n      swap1\n      pop\n        /* \"RewardManager.sol\":817:922  function getReward(uint256 id) public view returns (Rewards memory) {... */\n      swap2\n      swap1\n      pop\n      jump\t// out\n        /* \"RewardManager.sol\":281:323  mapping(uint256 => Rewards) public coupons */\n    tag_20:\n      mstore(0x20, 0x01)\n      dup1\n      0x00\n      mstore\n      keccak256(0x00, 0x40)\n      0x00\n      swap2\n      pop\n      swap1\n      pop\n      dup1\n      0x00\n      add\n      dup1\n      sload\n      tag_63\n      swap1\n      tag_48\n      jump\t// in\n    tag_63:\n      dup1\n      0x1f\n      add\n      0x20\n      dup1\n      swap2\n      div\n      mul\n      0x20\n      add\n      mload(0x40)\n      swap1\n      dup2\n      add\n      0x40\n      mstore\n      dup1\n      swap3\n      swap2\n      swap1\n      dup2\n      dup2\n      mstore\n      0x20\n      add\n      dup3\n      dup1\n      sload\n      tag_64\n      swap1\n      tag_48\n      jump\t// in\n    tag_64:\n      dup1\n      iszero\n      tag_65\n      jumpi\n      dup1\n      0x1f\n      lt\n      tag_66\n      jumpi\n      0x0100\n      dup1\n      dup4\n      sload\n      div\n      mul\n      dup4\n      mstore\n      swap2\n      0x20\n      add\n      swap2\n      jump(tag_65)\n    tag_66:\n      dup3\n      add\n      swap2\n      swap1\n      0x00\n      mstore\n      keccak256(0x00, 0x20)\n      swap1\n    tag_67:\n      dup2\n      sload\n      dup2\n      mstore\n      swap1\n      0x01\n      add\n      swap1\n      0x20\n      add\n      dup1\n      dup4\n      gt\n      tag_67\n      jumpi\n      dup3\n      swap1\n      sub\n      0x1f\n      and\n      dup3\n      add\n      swap2\n    tag_65:\n      pop\n      pop\n      pop\n      pop\n      pop\n      swap1\n      dup1\n      0x01\n      add\n      dup1\n      sload\n      tag_68\n      swap1\n      tag_48\n      jump\t// in\n    tag_68:\n      dup1\n      0x1f\n      add\n      0x20\n      dup1\n      swap2\n      div\n      mul\n      0x20\n      add\n      mload(0x40)\n      swap1\n      dup2\n      add\n      0x40\n      mstore\n      dup1\n      swap3\n      swap2\n      swap1\n      dup2\n      dup2\n      mstore\n      0x20\n      add\n      dup3\n      dup1\n      sload\n      tag_69\n      swap1\n      tag_48\n      jump\t// in\n    tag_69:\n      dup1\n      iszero\n      tag_70\n      jumpi\n      dup1\n      0x1f\n      lt\n      tag_71\n      jumpi\n      0x0100\n      dup1\n      dup4\n      sload\n      div\n      mul\n      dup4\n      mstore\n      swap2\n      0x20\n      add\n      swap2\n      jump(tag_70)\n    tag_71:\n      dup3\n      add\n      swap2\n      swap1\n      0x00\n      mstore\n      keccak256(0x00, 0x20)\n      swap1\n    tag_72:\n      dup2\n      sload\n      dup2\n      mstore\n      swap1\n      0x01\n      add\n      swap1\n      0x20\n      add\n      dup1\n      dup4\n      gt\n      tag_72\n      jumpi\n      dup3\n      swap1\n      sub\n      0x1f\n      and\n      dup3\n      add\n      swap2\n    tag_70:\n      pop\n      pop\n      pop\n      pop\n      pop\n      swap1\n      dup1\n      0x02\n      add\n      dup1\n      sload\n      tag_73\n      swap1\n      tag_48\n      jump\t// in\n    tag_73:\n      dup1\n      0x1f\n      add\n      0x20\n      dup1\n      swap2\n      div\n      mul\n      0x20\n      add\n      mload(0x40)\n      swap1\n      dup2\n      add\n      0x40\n      mstore\n      dup1\n      swap3\n      swap2\n      swap1\n      dup2\n      dup2\n      mstore\n      0x20\n      add\n      dup3\n      dup1\n      sload\n      tag_74\n      swap1\n      tag_48\n      jump\t// in\n    tag_74:\n      dup1\n      iszero\n      tag_75\n      jumpi\n      dup1\n      0x1f\n      lt\n      tag_76\n      jumpi\n      0x0100\n      dup1\n      dup4\n      sload\n      div\n      mul\n      dup4\n      mstore\n      swap2\n      0x20\n      add\n      swap2\n      jump(tag_75)\n    tag_76:\n      dup3\n      add\n      swap2\n      swap1\n      0x00\n      mstore\n      keccak256(0x00, 0x20)\n      swap1\n    tag_77:\n      dup2\n      sload\n      dup2\n      mstore\n      swap1\n      0x01\n      add\n      swap1\n      0x20\n      add\n      dup1\n      dup4\n      gt\n      tag_77\n      jumpi\n      dup3\n      swap1\n      sub\n      0x1f\n      and\n      dup3\n      add\n      swap2\n    tag_75:\n      pop\n      pop\n      pop\n      pop\n      pop\n      swap1\n      dup1\n      0x03\n      add\n      0x00\n      swap1\n      sload\n      swap1\n      0x0100\n      exp\n      swap1\n      div\n      0xff\n      and\n      swap1\n      pop\n      dup5\n      jump\t// out\n        /* \"RewardManager.sol\":661:809  function redeemReward(uint256 id) public {... */\n    tag_25:\n        /* \"RewardManager.sol\":722:729  coupons */\n      0x01\n        /* \"RewardManager.sol\":722:733  coupons[id] */\n      0x00\n        /* \"RewardManager.sol\":730:732  id */\n      dup3\n        /* \"RewardManager.sol\":722:733  coupons[id] */\n      dup2\n      mstore\n      0x20\n      add\n      swap1\n      dup2\n      mstore\n      0x20\n      add\n      0x00\n      keccak256\n        /* \"RewardManager.sol\":722:742  coupons[id].redeemed */\n      0x03\n      add\n      0x00\n      swap1\n      sload\n      swap1\n      0x0100\n      exp\n      swap1\n      div\n      0xff\n      and\n        /* \"RewardManager.sol\":721:742  !coupons[id].redeemed */\n      iszero\n        /* \"RewardManager.sol\":713:763  require(!coupons[id].redeemed, \"Already redeemed\") */\n      tag_79\n      jumpi\n      mload(0x40)\n      0x08c379a000000000000000000000000000000000000000000000000000000000\n      dup2\n      mstore\n      0x04\n      add\n      tag_80\n      swap1\n      tag_81\n      jump\t// in\n    tag_80:\n      mload(0x40)\n      dup1\n      swap2\n      sub\n      swap1\n      revert\n    tag_79:\n        /* \"RewardManager.sol\":797:801  true */\n      0x01\n        /* \"RewardManager.sol\":774:781  coupons */\n      dup1\n        /* \"RewardManager.sol\":774:785  coupons[id] */\n      0x00\n        /* \"RewardManager.sol\":782:784  id */\n      dup4\n        /* \"RewardManager.sol\":774:785  coupons[id] */\n      dup2\n      mstore\n      0x20\n      add\n      swap1\n      dup2\n      mstore\n      0x20\n      add\n      0x00\n      keccak256\n        /* \"RewardManager.sol\":774:794  coupons[id].redeemed */\n      0x03\n      add\n      0x00\n        /* \"RewardManager.sol\":774:801  coupons[id].redeemed = true */\n      0x0100\n      exp\n      dup2\n      sload\n      dup2\n      0xff\n      mul\n      not\n      and\n      swap1\n      dup4\n      iszero\n      iszero\n      mul\n      or\n      swap1\n      sstore\n      pop\n        /* \"RewardManager.sol\":661:809  function redeemReward(uint256 id) public {... */\n      pop\n      jump\t// out\n        /* \"RewardManager.sol\":426:653  function createReward(... */\n    tag_29:\n        /* \"@openzeppelin/contracts/access/Ownable.sol\":1531:1544  _checkOwner() */\n      tag_83\n        /* \"@openzeppelin/contracts/access/Ownable.sol\":1531:1542  _checkOwner */\n      tag_84\n        /* \"@openzeppelin/contracts/access/Ownable.sol\":1531:1544  _checkOwner() */\n      jump\t// in\n    tag_83:\n        /* \"RewardManager.sol\":591:626  Rewards(name, code, company, false) */\n      mload(0x40)\n      dup1\n      0x80\n      add\n      0x40\n      mstore\n      dup1\n        /* \"RewardManager.sol\":599:603  name */\n      dup5\n        /* \"RewardManager.sol\":591:626  Rewards(name, code, company, false) */\n      dup2\n      mstore\n      0x20\n      add\n        /* \"RewardManager.sol\":605:609  code */\n      dup4\n        /* \"RewardManager.sol\":591:626  Rewards(name, code, company, false) */\n      dup2\n      mstore\n      0x20\n      add\n        /* \"RewardManager.sol\":611:618  company */\n      dup3\n        /* \"RewardManager.sol\":591:626  Rewards(name, code, company, false) */\n      dup2\n      mstore\n      0x20\n      add\n        /* \"RewardManager.sol\":620:625  false */\n      0x00\n        /* \"RewardManager.sol\":591:626  Rewards(name, code, company, false) */\n      iszero\n      iszero\n      dup2\n      mstore\n      pop\n        /* \"RewardManager.sol\":573:580  coupons */\n      0x01\n        /* \"RewardManager.sol\":573:588  coupons[nextId] */\n      0x00\n        /* \"RewardManager.sol\":581:587  nextId */\n      sload(0x02)\n        /* \"RewardManager.sol\":573:588  coupons[nextId] */\n      dup2\n      mstore\n      0x20\n      add\n      swap1\n      dup2\n      mstore\n      0x20\n      add\n      0x00\n      keccak256\n        /* \"RewardManager.sol\":573:626  coupons[nextId] = Rewards(name, code, company, false) */\n      0x00\n      dup3\n      add\n      mload\n      dup2\n      0x00\n      add\n      swap1\n      dup2\n      tag_86\n      swap2\n      swap1\n      tag_87\n      jump\t// in\n    tag_86:\n      pop\n      0x20\n      dup3\n      add\n      mload\n      dup2\n      0x01\n      add\n      swap1\n      dup2\n      tag_88\n      swap2\n      swap1\n      tag_87\n      jump\t// in\n    tag_88:\n      pop\n      0x40\n      dup3\n      add\n      mload\n      dup2\n      0x02\n      add\n      swap1\n      dup2\n      tag_89\n      swap2\n      swap1\n      tag_87\n      jump\t// in\n    tag_89:\n      pop\n      0x60\n      dup3\n      add\n      mload\n      dup2\n      0x03\n      add\n      exp(0x0100, 0x00)\n      dup2\n      sload\n      dup2\n      0xff\n      mul\n      not\n      and\n      swap1\n      dup4\n      iszero\n      iszero\n      mul\n      or\n      swap1\n      sstore\n      pop\n      swap1\n      pop\n      pop\n        /* \"RewardManager.sol\":637:643  nextId */\n      0x02\n      0x00\n        /* \"RewardManager.sol\":637:645  nextId++ */\n      dup2\n      sload\n      dup1\n      swap3\n      swap2\n      swap1\n      tag_90\n      swap1\n      tag_91\n      jump\t// in\n    tag_90:\n      swap2\n      swap1\n      pop\n      sstore\n      pop\n        /* \"RewardManager.sol\":426:653  function createReward(... */\n      pop\n      pop\n      pop\n      jump\t// out\n        /* \"RewardManager.sol\":330:351  uint256 public nextId */\n    tag_31:\n      sload(0x02)\n      dup2\n      jump\t// out\n        /* \"@openzeppelin/contracts/access/Ownable.sol\":2293:2394  function renounceOwnership() public virtual onlyOwner {... */\n    tag_35:\n        /* \"@openzeppelin/contracts/access/Ownable.sol\":1531:1544  _checkOwner() */\n      tag_93\n        /* \"@openzeppelin/contracts/access/Ownable.sol\":1531:1542  _checkOwner */\n      tag_84\n        /* \"@openzeppelin/contracts/access/Ownable.sol\":1531:1544  _checkOwner() */\n      jump\t// in\n    tag_93:\n        /* \"@openzeppelin/contracts/access/Ownable.sol\":2357:2387  _transferOwnership(address(0)) */\n      tag_95\n        /* \"@openzeppelin/contracts/access/Ownable.sol\":2384:2385  0 */\n      0x00\n        /* \"@openzeppelin/contracts/access/Ownable.sol\":2357:2375  _transferOwnership */\n      tag_96\n        /* \"@openzeppelin/contracts/access/Ownable.sol\":2357:2387  _transferOwnership(address(0)) */\n      jump\t// in\n    tag_95:\n        /* \"@openzeppelin/contracts/access/Ownable.sol\":2293:2394  function renounceOwnership() public virtual onlyOwner {... */\n      jump\t// out\n        /* \"@openzeppelin/contracts/access/Ownable.sol\":1638:1723  function owner() public view virtual returns (address) {... */\n    tag_37:\n        /* \"@openzeppelin/contracts/access/Ownable.sol\":1684:1691  address */\n      0x00\n        /* \"@openzeppelin/contracts/access/Ownable.sol\":1710:1716  _owner */\n      dup1\n      0x00\n      swap1\n      sload\n      swap1\n      0x0100\n      exp\n      swap1\n      div\n      0xffffffffffffffffffffffffffffffffffffffff\n      and\n        /* \"@openzeppelin/contracts/access/Ownable.sol\":1703:1716  return _owner */\n      swap1\n      pop\n        /* \"@openzeppelin/contracts/access/Ownable.sol\":1638:1723  function owner() public view virtual returns (address) {... */\n      swap1\n      jump\t// out\n        /* \"@openzeppelin/contracts/access/Ownable.sol\":2543:2758  function transferOwnership(address newOwner) public virtual onlyOwner {... */\n    tag_43:\n        /* \"@openzeppelin/contracts/access/Ownable.sol\":1531:1544  _checkOwner() */\n      tag_99\n        /* \"@openzeppelin/contracts/access/Ownable.sol\":1531:1542  _checkOwner */\n      tag_84\n        /* \"@openzeppelin/contracts/access/Ownable.sol\":1531:1544  _checkOwner() */\n      jump\t// in\n    tag_99:\n        /* \"@openzeppelin/contracts/access/Ownable.sol\":2647:2648  0 */\n      0x00\n        /* \"@openzeppelin/contracts/access/Ownable.sol\":2627:2649  newOwner == address(0) */\n      0xffffffffffffffffffffffffffffffffffffffff\n      and\n        /* \"@openzeppelin/contracts/access/Ownable.sol\":2627:2635  newOwner */\n      dup2\n        /* \"@openzeppelin/contracts/access/Ownable.sol\":2627:2649  newOwner == address(0) */\n      0xffffffffffffffffffffffffffffffffffffffff\n      and\n      sub\n        /* \"@openzeppelin/contracts/access/Ownable.sol\":2623:2714  if (newOwner == address(0)) {... */\n      tag_101\n      jumpi\n        /* \"@openzeppelin/contracts/access/Ownable.sol\":2700:2701  0 */\n      0x00\n        /* \"@openzeppelin/contracts/access/Ownable.sol\":2672:2703  OwnableInvalidOwner(address(0)) */\n      mload(0x40)\n      0x1e4fbdf700000000000000000000000000000000000000000000000000000000\n      dup2\n      mstore\n      0x04\n      add\n      tag_102\n      swap2\n      swap1\n      tag_39\n      jump\t// in\n    tag_102:\n      mload(0x40)\n      dup1\n      swap2\n      sub\n      swap1\n      revert\n        /* \"@openzeppelin/contracts/access/Ownable.sol\":2623:2714  if (newOwner == address(0)) {... */\n    tag_101:\n        /* \"@openzeppelin/contracts/access/Ownable.sol\":2723:2751  _transferOwnership(newOwner) */\n      tag_103\n        /* \"@openzeppelin/contracts/access/Ownable.sol\":2742:2750  newOwner */\n      dup2\n        /* \"@openzeppelin/contracts/access/Ownable.sol\":2723:2741  _transferOwnership */\n      tag_96\n        /* \"@openzeppelin/contracts/access/Ownable.sol\":2723:2751  _transferOwnership(newOwner) */\n      jump\t// in\n    tag_103:\n        /* \"@openzeppelin/contracts/access/Ownable.sol\":2543:2758  function transferOwnership(address newOwner) public virtual onlyOwner {... */\n      pop\n      jump\t// out\n        /* \"@openzeppelin/contracts/access/Ownable.sol\":1796:1958  function _checkOwner() internal view virtual {... */\n    tag_84:\n        /* \"@openzeppelin/contracts/access/Ownable.sol\":1866:1878  _msgSender() */\n      tag_105\n        /* \"@openzeppelin/contracts/access/Ownable.sol\":1866:1876  _msgSender */\n      tag_106\n        /* \"@openzeppelin/contracts/access/Ownable.sol\":1866:1878  _msgSender() */\n      jump\t// in\n    tag_105:\n        /* \"@openzeppelin/contracts/access/Ownable.sol\":1855:1878  owner() != _msgSender() */\n      0xffffffffffffffffffffffffffffffffffffffff\n      and\n        /* \"@openzeppelin/contracts/access/Ownable.sol\":1855:1862  owner() */\n      tag_107\n        /* \"@openzeppelin/contracts/access/Ownable.sol\":1855:1860  owner */\n      tag_37\n        /* \"@openzeppelin/contracts/access/Ownable.sol\":1855:1862  owner() */\n      jump\t// in\n    tag_107:\n        /* \"@openzeppelin/contracts/access/Ownable.sol\":1855:1878  owner() != _msgSender() */\n      0xffffffffffffffffffffffffffffffffffffffff\n      and\n      eq\n        /* \"@openzeppelin/contracts/access/Ownable.sol\":1851:1952  if (owner() != _msgSender()) {... */\n      tag_108\n      jumpi\n        /* \"@openzeppelin/contracts/access/Ownable.sol\":1928:1940  _msgSender() */\n      tag_109\n        /* \"@openzeppelin/contracts/access/Ownable.sol\":1928:1938  _msgSender */\n      tag_106\n        /* \"@openzeppelin/contracts/access/Ownable.sol\":1928:1940  _msgSender() */\n      jump\t// in\n    tag_109:\n        /* \"@openzeppelin/contracts/access/Ownable.sol\":1901:1941  OwnableUnauthorizedAccount(_msgSender()) */\n      mload(0x40)\n      0x118cdaa700000000000000000000000000000000000000000000000000000000\n      dup2\n      mstore\n      0x04\n      add\n      tag_110\n      swap2\n      swap1\n      tag_39\n      jump\t// in\n    tag_110:\n      mload(0x40)\n      dup1\n      swap2\n      sub\n      swap1\n      revert\n        /* \"@openzeppelin/contracts/access/Ownable.sol\":1851:1952  if (owner() != _msgSender()) {... */\n    tag_108:\n        /* \"@openzeppelin/contracts/access/Ownable.sol\":1796:1958  function _checkOwner() internal view virtual {... */\n      jump\t// out\n        /* \"@openzeppelin/contracts/access/Ownable.sol\":2912:3099  function _transferOwnership(address newOwner) internal virtual {... */\n    tag_96:\n        /* \"@openzeppelin/contracts/access/Ownable.sol\":2985:3001  address oldOwner */\n      0x00\n        /* \"@openzeppelin/contracts/access/Ownable.sol\":3004:3010  _owner */\n      dup1\n      0x00\n      swap1\n      sload\n      swap1\n      0x0100\n      exp\n      swap1\n      div\n      0xffffffffffffffffffffffffffffffffffffffff\n      and\n        /* \"@openzeppelin/contracts/access/Ownable.sol\":2985:3010  address oldOwner = _owner */\n      swap1\n      pop\n        /* \"@openzeppelin/contracts/access/Ownable.sol\":3029:3037  newOwner */\n      dup2\n        /* \"@openzeppelin/contracts/access/Ownable.sol\":3020:3026  _owner */\n      0x00\n      dup1\n        /* \"@openzeppelin/contracts/access/Ownable.sol\":3020:3037  _owner = newOwner */\n      0x0100\n      exp\n      dup2\n      sload\n      dup2\n      0xffffffffffffffffffffffffffffffffffffffff\n      mul\n      not\n      and\n      swap1\n      dup4\n      0xffffffffffffffffffffffffffffffffffffffff\n      and\n      mul\n      or\n      swap1\n      sstore\n      pop\n        /* \"@openzeppelin/contracts/access/Ownable.sol\":3083:3091  newOwner */\n      dup2\n        /* \"@openzeppelin/contracts/access/Ownable.sol\":3052:3092  OwnershipTransferred(oldOwner, newOwner) */\n      0xffffffffffffffffffffffffffffffffffffffff\n      and\n        /* \"@openzeppelin/contracts/access/Ownable.sol\":3073:3081  oldOwner */\n      dup2\n        /* \"@openzeppelin/contracts/access/Ownable.sol\":3052:3092  OwnershipTransferred(oldOwner, newOwner) */\n      0xffffffffffffffffffffffffffffffffffffffff\n      and\n      0x8be0079c531659141344cd1fd0a4f28419497f9722a3daafe3b4186f6b6457e0\n      mload(0x40)\n      mload(0x40)\n      dup1\n      swap2\n      sub\n      swap1\n      log3\n        /* \"@openzeppelin/contracts/access/Ownable.sol\":2975:3099  {... */\n      pop\n        /* \"@openzeppelin/contracts/access/Ownable.sol\":2912:3099  function _transferOwnership(address newOwner) internal virtual {... */\n      pop\n      jump\t// out\n        /* \"@openzeppelin/contracts/utils/Context.sol\":656:752  function _msgSender() internal view virtual returns (address) {... */\n    tag_106:\n        /* \"@openzeppelin/contracts/utils/Context.sol\":709:716  address */\n      0x00\n        /* \"@openzeppelin/contracts/utils/Context.sol\":735:745  msg.sender */\n      caller\n        /* \"@openzeppelin/contracts/utils/Context.sol\":728:745  return msg.sender */\n      swap1\n      pop\n        /* \"@openzeppelin/contracts/utils/Context.sol\":656:752  function _msgSender() internal view virtual returns (address) {... */\n      swap1\n      jump\t// out\n    tag_45:\n      mload(0x40)\n      dup1\n      0x80\n      add\n      0x40\n      mstore\n      dup1\n      0x60\n      dup2\n      mstore\n      0x20\n      add\n      0x60\n      dup2\n      mstore\n      0x20\n      add\n      0x60\n      dup2\n      mstore\n      0x20\n      add\n      iszero(iszero(0x00))\n      dup2\n      mstore\n      pop\n      swap1\n      jump\t// out\n        /* \"#utility.yul\":7:82   */\n    tag_113:\n        /* \"#utility.yul\":40:46   */\n      0x00\n        /* \"#utility.yul\":73:75   */\n      0x40\n        /* \"#utility.yul\":67:76   */\n      mload\n        /* \"#utility.yul\":57:76   */\n      swap1\n      pop\n        /* \"#utility.yul\":7:82   */\n      swap1\n      jump\t// out\n        /* \"#utility.yul\":88:205   */\n    tag_114:\n        /* \"#utility.yul\":197:198   */\n      0x00\n        /* \"#utility.yul\":194:195   */\n      dup1\n        /* \"#utility.yul\":187:199   */\n      revert\n        /* \"#utility.yul\":211:328   */\n    tag_115:\n        /* \"#utility.yul\":320:321   */\n      0x00\n        /* \"#utility.yul\":317:318   */\n      dup1\n        /* \"#utility.yul\":310:322   */\n      revert\n        /* \"#utility.yul\":334:411   */\n    tag_116:\n        /* \"#utility.yul\":371:378   */\n      0x00\n        /* \"#utility.yul\":400:405   */\n      dup2\n        /* \"#utility.yul\":389:405   */\n      swap1\n      pop\n        /* \"#utility.yul\":334:411   */\n      swap2\n      swap1\n      pop\n      jump\t// out\n        /* \"#utility.yul\":417:539   */\n    tag_117:\n        /* \"#utility.yul\":490:514   */\n      tag_170\n        /* \"#utility.yul\":508:513   */\n      dup2\n        /* \"#utility.yul\":490:514   */\n      tag_116\n      jump\t// in\n    tag_170:\n        /* \"#utility.yul\":483:488   */\n      dup2\n        /* \"#utility.yul\":480:515   */\n      eq\n        /* \"#utility.yul\":470:533   */\n      tag_171\n      jumpi\n        /* \"#utility.yul\":529:530   */\n      0x00\n        /* \"#utility.yul\":526:527   */\n      dup1\n        /* \"#utility.yul\":519:531   */\n      revert\n        /* \"#utility.yul\":470:533   */\n    tag_171:\n        /* \"#utility.yul\":417:539   */\n      pop\n      jump\t// out\n        /* \"#utility.yul\":545:684   */\n    tag_118:\n        /* \"#utility.yul\":591:596   */\n      0x00\n        /* \"#utility.yul\":629:635   */\n      dup2\n        /* \"#utility.yul\":616:636   */\n      calldataload\n        /* \"#utility.yul\":607:636   */\n      swap1\n      pop\n        /* \"#utility.yul\":645:678   */\n      tag_173\n        /* \"#utility.yul\":672:677   */\n      dup2\n        /* \"#utility.yul\":645:678   */\n      tag_117\n      jump\t// in\n    tag_173:\n        /* \"#utility.yul\":545:684   */\n      swap3\n      swap2\n      pop\n      pop\n      jump\t// out\n        /* \"#utility.yul\":690:1019   */\n    tag_14:\n        /* \"#utility.yul\":749:755   */\n      0x00\n        /* \"#utility.yul\":798:800   */\n      0x20\n        /* \"#utility.yul\":786:795   */\n      dup3\n        /* \"#utility.yul\":777:784   */\n      dup5\n        /* \"#utility.yul\":773:796   */\n      sub\n        /* \"#utility.yul\":769:801   */\n      slt\n        /* \"#utility.yul\":766:885   */\n      iszero\n      tag_175\n      jumpi\n        /* \"#utility.yul\":804:883   */\n      tag_176\n      tag_114\n      jump\t// in\n    tag_176:\n        /* \"#utility.yul\":766:885   */\n    tag_175:\n        /* \"#utility.yul\":924:925   */\n      0x00\n        /* \"#utility.yul\":949:1002   */\n      tag_177\n        /* \"#utility.yul\":994:1001   */\n      dup5\n        /* \"#utility.yul\":985:991   */\n      dup3\n        /* \"#utility.yul\":974:983   */\n      dup6\n        /* \"#utility.yul\":970:992   */\n      add\n        /* \"#utility.yul\":949:1002   */\n      tag_118\n      jump\t// in\n    tag_177:\n        /* \"#utility.yul\":939:1002   */\n      swap2\n      pop\n        /* \"#utility.yul\":895:1012   */\n      pop\n        /* \"#utility.yul\":690:1019   */\n      swap3\n      swap2\n      pop\n      pop\n      jump\t// out\n        /* \"#utility.yul\":1025:1124   */\n    tag_119:\n        /* \"#utility.yul\":1077:1083   */\n      0x00\n        /* \"#utility.yul\":1111:1116   */\n      dup2\n        /* \"#utility.yul\":1105:1117   */\n      mload\n        /* \"#utility.yul\":1095:1117   */\n      swap1\n      pop\n        /* \"#utility.yul\":1025:1124   */\n      swap2\n      swap1\n      pop\n      jump\t// out\n        /* \"#utility.yul\":1130:1289   */\n    tag_120:\n        /* \"#utility.yul\":1204:1215   */\n      0x00\n        /* \"#utility.yul\":1238:1244   */\n      dup3\n        /* \"#utility.yul\":1233:1236   */\n      dup3\n        /* \"#utility.yul\":1226:1245   */\n      mstore\n        /* \"#utility.yul\":1278:1282   */\n      0x20\n        /* \"#utility.yul\":1273:1276   */\n      dup3\n        /* \"#utility.yul\":1269:1283   */\n      add\n        /* \"#utility.yul\":1254:1283   */\n      swap1\n      pop\n        /* \"#utility.yul\":1130:1289   */\n      swap3\n      swap2\n      pop\n      pop\n      jump\t// out\n        /* \"#utility.yul\":1295:1434   */\n    tag_121:\n        /* \"#utility.yul\":1384:1390   */\n      dup3\n        /* \"#utility.yul\":1379:1382   */\n      dup2\n        /* \"#utility.yul\":1374:1377   */\n      dup4\n        /* \"#utility.yul\":1368:1391   */\n      mcopy\n        /* \"#utility.yul\":1425:1426   */\n      0x00\n        /* \"#utility.yul\":1416:1422   */\n      dup4\n        /* \"#utility.yul\":1411:1414   */\n      dup4\n        /* \"#utility.yul\":1407:1423   */\n      add\n        /* \"#utility.yul\":1400:1427   */\n      mstore\n        /* \"#utility.yul\":1295:1434   */\n      pop\n      pop\n      pop\n      jump\t// out\n        /* \"#utility.yul\":1440:1542   */\n    tag_122:\n        /* \"#utility.yul\":1481:1487   */\n      0x00\n        /* \"#utility.yul\":1532:1534   */\n      0x1f\n        /* \"#utility.yul\":1528:1535   */\n      not\n        /* \"#utility.yul\":1523:1525   */\n      0x1f\n        /* \"#utility.yul\":1516:1521   */\n      dup4\n        /* \"#utility.yul\":1512:1526   */\n      add\n        /* \"#utility.yul\":1508:1536   */\n      and\n        /* \"#utility.yul\":1498:1536   */\n      swap1\n      pop\n        /* \"#utility.yul\":1440:1542   */\n      swap2\n      swap1\n      pop\n      jump\t// out\n        /* \"#utility.yul\":1548:1905   */\n    tag_123:\n        /* \"#utility.yul\":1626:1629   */\n      0x00\n        /* \"#utility.yul\":1654:1693   */\n      tag_183\n        /* \"#utility.yul\":1687:1692   */\n      dup3\n        /* \"#utility.yul\":1654:1693   */\n      tag_119\n      jump\t// in\n    tag_183:\n        /* \"#utility.yul\":1709:1770   */\n      tag_184\n        /* \"#utility.yul\":1763:1769   */\n      dup2\n        /* \"#utility.yul\":1758:1761   */\n      dup6\n        /* \"#utility.yul\":1709:1770   */\n      tag_120\n      jump\t// in\n    tag_184:\n        /* \"#utility.yul\":1702:1770   */\n      swap4\n      pop\n        /* \"#utility.yul\":1779:1844   */\n      tag_185\n        /* \"#utility.yul\":1837:1843   */\n      dup2\n        /* \"#utility.yul\":1832:1835   */\n      dup6\n        /* \"#utility.yul\":1825:1829   */\n      0x20\n        /* \"#utility.yul\":1818:1823   */\n      dup7\n        /* \"#utility.yul\":1814:1830   */\n      add\n        /* \"#utility.yul\":1779:1844   */\n      tag_121\n      jump\t// in\n    tag_185:\n        /* \"#utility.yul\":1869:1898   */\n      tag_186\n        /* \"#utility.yul\":1891:1897   */\n      dup2\n        /* \"#utility.yul\":1869:1898   */\n      tag_122\n      jump\t// in\n    tag_186:\n        /* \"#utility.yul\":1864:1867   */\n      dup5\n        /* \"#utility.yul\":1860:1899   */\n      add\n        /* \"#utility.yul\":1853:1899   */\n      swap2\n      pop\n        /* \"#utility.yul\":1630:1905   */\n      pop\n        /* \"#utility.yul\":1548:1905   */\n      swap3\n      swap2\n      pop\n      pop\n      jump\t// out\n        /* \"#utility.yul\":1911:2001   */\n    tag_124:\n        /* \"#utility.yul\":1945:1952   */\n      0x00\n        /* \"#utility.yul\":1988:1993   */\n      dup2\n        /* \"#utility.yul\":1981:1994   */\n      iszero\n        /* \"#utility.yul\":1974:1995   */\n      iszero\n        /* \"#utility.yul\":1963:1995   */\n      swap1\n      pop\n        /* \"#utility.yul\":1911:2001   */\n      swap2\n      swap1\n      pop\n      jump\t// out\n        /* \"#utility.yul\":2007:2106   */\n    tag_125:\n        /* \"#utility.yul\":2078:2099   */\n      tag_189\n        /* \"#utility.yul\":2093:2098   */\n      dup2\n        /* \"#utility.yul\":2078:2099   */\n      tag_124\n      jump\t// in\n    tag_189:\n        /* \"#utility.yul\":2073:2076   */\n      dup3\n        /* \"#utility.yul\":2066:2100   */\n      mstore\n        /* \"#utility.yul\":2007:2106   */\n      pop\n      pop\n      jump\t// out\n        /* \"#utility.yul\":2180:3275   */\n    tag_126:\n        /* \"#utility.yul\":2297:2300   */\n      0x00\n        /* \"#utility.yul\":2333:2337   */\n      0x80\n        /* \"#utility.yul\":2328:2331   */\n      dup4\n        /* \"#utility.yul\":2324:2338   */\n      add\n        /* \"#utility.yul\":2420:2424   */\n      0x00\n        /* \"#utility.yul\":2413:2418   */\n      dup4\n        /* \"#utility.yul\":2409:2425   */\n      add\n        /* \"#utility.yul\":2403:2426   */\n      mload\n        /* \"#utility.yul\":2473:2476   */\n      dup5\n        /* \"#utility.yul\":2467:2471   */\n      dup3\n        /* \"#utility.yul\":2463:2477   */\n      sub\n        /* \"#utility.yul\":2456:2460   */\n      0x00\n        /* \"#utility.yul\":2451:2454   */\n      dup7\n        /* \"#utility.yul\":2447:2461   */\n      add\n        /* \"#utility.yul\":2440:2478   */\n      mstore\n        /* \"#utility.yul\":2499:2572   */\n      tag_191\n        /* \"#utility.yul\":2567:2571   */\n      dup3\n        /* \"#utility.yul\":2553:2565   */\n      dup3\n        /* \"#utility.yul\":2499:2572   */\n      tag_123\n      jump\t// in\n    tag_191:\n        /* \"#utility.yul\":2491:2572   */\n      swap2\n      pop\n        /* \"#utility.yul\":2348:2583   */\n      pop\n        /* \"#utility.yul\":2665:2669   */\n      0x20\n        /* \"#utility.yul\":2658:2663   */\n      dup4\n        /* \"#utility.yul\":2654:2670   */\n      add\n        /* \"#utility.yul\":2648:2671   */\n      mload\n        /* \"#utility.yul\":2718:2721   */\n      dup5\n        /* \"#utility.yul\":2712:2716   */\n      dup3\n        /* \"#utility.yul\":2708:2722   */\n      sub\n        /* \"#utility.yul\":2701:2705   */\n      0x20\n        /* \"#utility.yul\":2696:2699   */\n      dup7\n        /* \"#utility.yul\":2692:2706   */\n      add\n        /* \"#utility.yul\":2685:2723   */\n      mstore\n        /* \"#utility.yul\":2744:2817   */\n      tag_192\n        /* \"#utility.yul\":2812:2816   */\n      dup3\n        /* \"#utility.yul\":2798:2810   */\n      dup3\n        /* \"#utility.yul\":2744:2817   */\n      tag_123\n      jump\t// in\n    tag_192:\n        /* \"#utility.yul\":2736:2817   */\n      swap2\n      pop\n        /* \"#utility.yul\":2593:2828   */\n      pop\n        /* \"#utility.yul\":2913:2917   */\n      0x40\n        /* \"#utility.yul\":2906:2911   */\n      dup4\n        /* \"#utility.yul\":2902:2918   */\n      add\n        /* \"#utility.yul\":2896:2919   */\n      mload\n        /* \"#utility.yul\":2966:2969   */\n      dup5\n        /* \"#utility.yul\":2960:2964   */\n      dup3\n        /* \"#utility.yul\":2956:2970   */\n      sub\n        /* \"#utility.yul\":2949:2953   */\n      0x40\n        /* \"#utility.yul\":2944:2947   */\n      dup7\n        /* \"#utility.yul\":2940:2954   */\n      add\n        /* \"#utility.yul\":2933:2971   */\n      mstore\n        /* \"#utility.yul\":2992:3065   */\n      tag_193\n        /* \"#utility.yul\":3060:3064   */\n      dup3\n        /* \"#utility.yul\":3046:3058   */\n      dup3\n        /* \"#utility.yul\":2992:3065   */\n      tag_123\n      jump\t// in\n    tag_193:\n        /* \"#utility.yul\":2984:3065   */\n      swap2\n      pop\n        /* \"#utility.yul\":2838:3076   */\n      pop\n        /* \"#utility.yul\":3162:3166   */\n      0x60\n        /* \"#utility.yul\":3155:3160   */\n      dup4\n        /* \"#utility.yul\":3151:3167   */\n      add\n        /* \"#utility.yul\":3145:3168   */\n      mload\n        /* \"#utility.yul\":3181:3238   */\n      tag_194\n        /* \"#utility.yul\":3232:3236   */\n      0x60\n        /* \"#utility.yul\":3227:3230   */\n      dup7\n        /* \"#utility.yul\":3223:3237   */\n      add\n        /* \"#utility.yul\":3209:3221   */\n      dup3\n        /* \"#utility.yul\":3181:3238   */\n      tag_125\n      jump\t// in\n    tag_194:\n        /* \"#utility.yul\":3086:3248   */\n      pop\n        /* \"#utility.yul\":3265:3269   */\n      dup1\n        /* \"#utility.yul\":3258:3269   */\n      swap2\n      pop\n        /* \"#utility.yul\":2302:3275   */\n      pop\n        /* \"#utility.yul\":2180:3275   */\n      swap3\n      swap2\n      pop\n      pop\n      jump\t// out\n        /* \"#utility.yul\":3281:3650   */\n    tag_17:\n        /* \"#utility.yul\":3422:3426   */\n      0x00\n        /* \"#utility.yul\":3460:3462   */\n      0x20\n        /* \"#utility.yul\":3449:3458   */\n      dup3\n        /* \"#utility.yul\":3445:3463   */\n      add\n        /* \"#utility.yul\":3437:3463   */\n      swap1\n      pop\n        /* \"#utility.yul\":3509:3518   */\n      dup2\n        /* \"#utility.yul\":3503:3507   */\n      dup2\n        /* \"#utility.yul\":3499:3519   */\n      sub\n        /* \"#utility.yul\":3495:3496   */\n      0x00\n        /* \"#utility.yul\":3484:3493   */\n      dup4\n        /* \"#utility.yul\":3480:3497   */\n      add\n        /* \"#utility.yul\":3473:3520   */\n      mstore\n        /* \"#utility.yul\":3537:3643   */\n      tag_196\n        /* \"#utility.yul\":3638:3642   */\n      dup2\n        /* \"#utility.yul\":3629:3635   */\n      dup5\n        /* \"#utility.yul\":3537:3643   */\n      tag_126\n      jump\t// in\n    tag_196:\n        /* \"#utility.yul\":3529:3643   */\n      swap1\n      pop\n        /* \"#utility.yul\":3281:3650   */\n      swap3\n      swap2\n      pop\n      pop\n      jump\t// out\n        /* \"#utility.yul\":3656:3825   */\n    tag_127:\n        /* \"#utility.yul\":3740:3751   */\n      0x00\n        /* \"#utility.yul\":3774:3780   */\n      dup3\n        /* \"#utility.yul\":3769:3772   */\n      dup3\n        /* \"#utility.yul\":3762:3781   */\n      mstore\n        /* \"#utility.yul\":3814:3818   */\n      0x20\n        /* \"#utility.yul\":3809:3812   */\n      dup3\n        /* \"#utility.yul\":3805:3819   */\n      add\n        /* \"#utility.yul\":3790:3819   */\n      swap1\n      pop\n        /* \"#utility.yul\":3656:3825   */\n      swap3\n      swap2\n      pop\n      pop\n      jump\t// out\n        /* \"#utility.yul\":3831:4208   */\n    tag_128:\n        /* \"#utility.yul\":3919:3922   */\n      0x00\n        /* \"#utility.yul\":3947:3986   */\n      tag_199\n        /* \"#utility.yul\":3980:3985   */\n      dup3\n        /* \"#utility.yul\":3947:3986   */\n      tag_119\n      jump\t// in\n    tag_199:\n        /* \"#utility.yul\":4002:4073   */\n      tag_200\n        /* \"#utility.yul\":4066:4072   */\n      dup2\n        /* \"#utility.yul\":4061:4064   */\n      dup6\n        /* \"#utility.yul\":4002:4073   */\n      tag_127\n      jump\t// in\n    tag_200:\n        /* \"#utility.yul\":3995:4073   */\n      swap4\n      pop\n        /* \"#utility.yul\":4082:4147   */\n      tag_201\n        /* \"#utility.yul\":4140:4146   */\n      dup2\n        /* \"#utility.yul\":4135:4138   */\n      dup6\n        /* \"#utility.yul\":4128:4132   */\n      0x20\n        /* \"#utility.yul\":4121:4126   */\n      dup7\n        /* \"#utility.yul\":4117:4133   */\n      add\n        /* \"#utility.yul\":4082:4147   */\n      tag_121\n      jump\t// in\n    tag_201:\n        /* \"#utility.yul\":4172:4201   */\n      tag_202\n        /* \"#utility.yul\":4194:4200   */\n      dup2\n        /* \"#utility.yul\":4172:4201   */\n      tag_122\n      jump\t// in\n    tag_202:\n        /* \"#utility.yul\":4167:4170   */\n      dup5\n        /* \"#utility.yul\":4163:4202   */\n      add\n        /* \"#utility.yul\":4156:4202   */\n      swap2\n      pop\n        /* \"#utility.yul\":3923:4208   */\n      pop\n        /* \"#utility.yul\":3831:4208   */\n      swap3\n      swap2\n      pop\n      pop\n      jump\t// out\n        /* \"#utility.yul\":4214:4323   */\n    tag_129:\n        /* \"#utility.yul\":4295:4316   */\n      tag_204\n        /* \"#utility.yul\":4310:4315   */\n      dup2\n        /* \"#utility.yul\":4295:4316   */\n      tag_124\n      jump\t// in\n    tag_204:\n        /* \"#utility.yul\":4290:4293   */\n      dup3\n        /* \"#utility.yul\":4283:4317   */\n      mstore\n        /* \"#utility.yul\":4214:4323   */\n      pop\n      pop\n      jump\t// out\n        /* \"#utility.yul\":4329:5143   */\n    tag_22:\n        /* \"#utility.yul\":4560:4564   */\n      0x00\n        /* \"#utility.yul\":4598:4601   */\n      0x80\n        /* \"#utility.yul\":4587:4596   */\n      dup3\n        /* \"#utility.yul\":4583:4602   */\n      add\n        /* \"#utility.yul\":4575:4602   */\n      swap1\n      pop\n        /* \"#utility.yul\":4648:4657   */\n      dup2\n        /* \"#utility.yul\":4642:4646   */\n      dup2\n        /* \"#utility.yul\":4638:4658   */\n      sub\n        /* \"#utility.yul\":4634:4635   */\n      0x00\n        /* \"#utility.yul\":4623:4632   */\n      dup4\n        /* \"#utility.yul\":4619:4636   */\n      add\n        /* \"#utility.yul\":4612:4659   */\n      mstore\n        /* \"#utility.yul\":4676:4754   */\n      tag_206\n        /* \"#utility.yul\":4749:4753   */\n      dup2\n        /* \"#utility.yul\":4740:4746   */\n      dup8\n        /* \"#utility.yul\":4676:4754   */\n      tag_128\n      jump\t// in\n    tag_206:\n        /* \"#utility.yul\":4668:4754   */\n      swap1\n      pop\n        /* \"#utility.yul\":4801:4810   */\n      dup2\n        /* \"#utility.yul\":4795:4799   */\n      dup2\n        /* \"#utility.yul\":4791:4811   */\n      sub\n        /* \"#utility.yul\":4786:4788   */\n      0x20\n        /* \"#utility.yul\":4775:4784   */\n      dup4\n        /* \"#utility.yul\":4771:4789   */\n      add\n        /* \"#utility.yul\":4764:4812   */\n      mstore\n        /* \"#utility.yul\":4829:4907   */\n      tag_207\n        /* \"#utility.yul\":4902:4906   */\n      dup2\n        /* \"#utility.yul\":4893:4899   */\n      dup7\n        /* \"#utility.yul\":4829:4907   */\n      tag_128\n      jump\t// in\n    tag_207:\n        /* \"#utility.yul\":4821:4907   */\n      swap1\n      pop\n        /* \"#utility.yul\":4954:4963   */\n      dup2\n        /* \"#utility.yul\":4948:4952   */\n      dup2\n        /* \"#utility.yul\":4944:4964   */\n      sub\n        /* \"#utility.yul\":4939:4941   */\n      0x40\n        /* \"#utility.yul\":4928:4937   */\n      dup4\n        /* \"#utility.yul\":4924:4942   */\n      add\n        /* \"#utility.yul\":4917:4965   */\n      mstore\n        /* \"#utility.yul\":4982:5060   */\n      tag_208\n        /* \"#utility.yul\":5055:5059   */\n      dup2\n        /* \"#utility.yul\":5046:5052   */\n      dup6\n        /* \"#utility.yul\":4982:5060   */\n      tag_128\n      jump\t// in\n    tag_208:\n        /* \"#utility.yul\":4974:5060   */\n      swap1\n      pop\n        /* \"#utility.yul\":5070:5136   */\n      tag_209\n        /* \"#utility.yul\":5132:5134   */\n      0x60\n        /* \"#utility.yul\":5121:5130   */\n      dup4\n        /* \"#utility.yul\":5117:5135   */\n      add\n        /* \"#utility.yul\":5108:5114   */\n      dup5\n        /* \"#utility.yul\":5070:5136   */\n      tag_129\n      jump\t// in\n    tag_209:\n        /* \"#utility.yul\":4329:5143   */\n      swap6\n      swap5\n      pop\n      pop\n      pop\n      pop\n      pop\n      jump\t// out\n        /* \"#utility.yul\":5149:5266   */\n    tag_130:\n        /* \"#utility.yul\":5258:5259   */\n      0x00\n        /* \"#utility.yul\":5255:5256   */\n      dup1\n        /* \"#utility.yul\":5248:5260   */\n      revert\n        /* \"#utility.yul\":5272:5389   */\n    tag_131:\n        /* \"#utility.yul\":5381:5382   */\n      0x00\n        /* \"#utility.yul\":5378:5379   */\n      dup1\n        /* \"#utility.yul\":5371:5383   */\n      revert\n        /* \"#utility.yul\":5395:5575   */\n    tag_132:\n        /* \"#utility.yul\":5443:5520   */\n      0x4e487b7100000000000000000000000000000000000000000000000000000000\n        /* \"#utility.yul\":5440:5441   */\n      0x00\n        /* \"#utility.yul\":5433:5521   */\n      mstore\n        /* \"#utility.yul\":5540:5544   */\n      0x41\n        /* \"#utility.yul\":5537:5538   */\n      0x04\n        /* \"#utility.yul\":5530:5545   */\n      mstore\n        /* \"#utility.yul\":5564:5568   */\n      0x24\n        /* \"#utility.yul\":5561:5562   */\n      0x00\n        /* \"#utility.yul\":5554:5569   */\n      revert\n        /* \"#utility.yul\":5581:5862   */\n    tag_133:\n        /* \"#utility.yul\":5664:5691   */\n      tag_214\n        /* \"#utility.yul\":5686:5690   */\n      dup3\n        /* \"#utility.yul\":5664:5691   */\n      tag_122\n      jump\t// in\n    tag_214:\n        /* \"#utility.yul\":5656:5662   */\n      dup2\n        /* \"#utility.yul\":5652:5692   */\n      add\n        /* \"#utility.yul\":5794:5800   */\n      dup2\n        /* \"#utility.yul\":5782:5792   */\n      dup2\n        /* \"#utility.yul\":5779:5801   */\n      lt\n        /* \"#utility.yul\":5758:5776   */\n      0xffffffffffffffff\n        /* \"#utility.yul\":5746:5756   */\n      dup3\n        /* \"#utility.yul\":5743:5777   */\n      gt\n        /* \"#utility.yul\":5740:5802   */\n      or\n        /* \"#utility.yul\":5737:5825   */\n      iszero\n      tag_215\n      jumpi\n        /* \"#utility.yul\":5805:5823   */\n      tag_216\n      tag_132\n      jump\t// in\n    tag_216:\n        /* \"#utility.yul\":5737:5825   */\n    tag_215:\n        /* \"#utility.yul\":5845:5855   */\n      dup1\n        /* \"#utility.yul\":5841:5843   */\n      0x40\n        /* \"#utility.yul\":5834:5856   */\n      mstore\n        /* \"#utility.yul\":5624:5862   */\n      pop\n        /* \"#utility.yul\":5581:5862   */\n      pop\n      pop\n      jump\t// out\n        /* \"#utility.yul\":5868:5997   */\n    tag_134:\n        /* \"#utility.yul\":5902:5908   */\n      0x00\n        /* \"#utility.yul\":5929:5949   */\n      tag_218\n      tag_113\n      jump\t// in\n    tag_218:\n        /* \"#utility.yul\":5919:5949   */\n      swap1\n      pop\n        /* \"#utility.yul\":5958:5991   */\n      tag_219\n        /* \"#utility.yul\":5986:5990   */\n      dup3\n        /* \"#utility.yul\":5978:5984   */\n      dup3\n        /* \"#utility.yul\":5958:5991   */\n      tag_133\n      jump\t// in\n    tag_219:\n        /* \"#utility.yul\":5868:5997   */\n      swap2\n      swap1\n      pop\n      jump\t// out\n        /* \"#utility.yul\":6003:6311   */\n    tag_135:\n        /* \"#utility.yul\":6065:6069   */\n      0x00\n        /* \"#utility.yul\":6155:6173   */\n      0xffffffffffffffff\n        /* \"#utility.yul\":6147:6153   */\n      dup3\n        /* \"#utility.yul\":6144:6174   */\n      gt\n        /* \"#utility.yul\":6141:6197   */\n      iszero\n      tag_221\n      jumpi\n        /* \"#utility.yul\":6177:6195   */\n      tag_222\n      tag_132\n      jump\t// in\n    tag_222:\n        /* \"#utility.yul\":6141:6197   */\n    tag_221:\n        /* \"#utility.yul\":6215:6244   */\n      tag_223\n        /* \"#utility.yul\":6237:6243   */\n      dup3\n        /* \"#utility.yul\":6215:6244   */\n      tag_122\n      jump\t// in\n    tag_223:\n        /* \"#utility.yul\":6207:6244   */\n      swap1\n      pop\n        /* \"#utility.yul\":6299:6303   */\n      0x20\n        /* \"#utility.yul\":6293:6297   */\n      dup2\n        /* \"#utility.yul\":6289:6304   */\n      add\n        /* \"#utility.yul\":6281:6304   */\n      swap1\n      pop\n        /* \"#utility.yul\":6003:6311   */\n      swap2\n      swap1\n      pop\n      jump\t// out\n        /* \"#utility.yul\":6317:6465   */\n    tag_136:\n        /* \"#utility.yul\":6415:6421   */\n      dup3\n        /* \"#utility.yul\":6410:6413   */\n      dup2\n        /* \"#utility.yul\":6405:6408   */\n      dup4\n        /* \"#utility.yul\":6392:6422   */\n      calldatacopy\n        /* \"#utility.yul\":6456:6457   */\n      0x00\n        /* \"#utility.yul\":6447:6453   */\n      dup4\n        /* \"#utility.yul\":6442:6445   */\n      dup4\n        /* \"#utility.yul\":6438:6454   */\n      add\n        /* \"#utility.yul\":6431:6458   */\n      mstore\n        /* \"#utility.yul\":6317:6465   */\n      pop\n      pop\n      pop\n      jump\t// out\n        /* \"#utility.yul\":6471:6896   */\n    tag_137:\n        /* \"#utility.yul\":6549:6554   */\n      0x00\n        /* \"#utility.yul\":6574:6640   */\n      tag_226\n        /* \"#utility.yul\":6590:6639   */\n      tag_227\n        /* \"#utility.yul\":6632:6638   */\n      dup5\n        /* \"#utility.yul\":6590:6639   */\n      tag_135\n      jump\t// in\n    tag_227:\n        /* \"#utility.yul\":6574:6640   */\n      tag_134\n      jump\t// in\n    tag_226:\n        /* \"#utility.yul\":6565:6640   */\n      swap1\n      pop\n        /* \"#utility.yul\":6663:6669   */\n      dup3\n        /* \"#utility.yul\":6656:6661   */\n      dup2\n        /* \"#utility.yul\":6649:6670   */\n      mstore\n        /* \"#utility.yul\":6701:6705   */\n      0x20\n        /* \"#utility.yul\":6694:6699   */\n      dup2\n        /* \"#utility.yul\":6690:6706   */\n      add\n        /* \"#utility.yul\":6739:6742   */\n      dup5\n        /* \"#utility.yul\":6730:6736   */\n      dup5\n        /* \"#utility.yul\":6725:6728   */\n      dup5\n        /* \"#utility.yul\":6721:6737   */\n      add\n        /* \"#utility.yul\":6718:6743   */\n      gt\n        /* \"#utility.yul\":6715:6827   */\n      iszero\n      tag_228\n      jumpi\n        /* \"#utility.yul\":6746:6825   */\n      tag_229\n      tag_131\n      jump\t// in\n    tag_229:\n        /* \"#utility.yul\":6715:6827   */\n    tag_228:\n        /* \"#utility.yul\":6836:6890   */\n      tag_230\n        /* \"#utility.yul\":6883:6889   */\n      dup5\n        /* \"#utility.yul\":6878:6881   */\n      dup3\n        /* \"#utility.yul\":6873:6876   */\n      dup6\n        /* \"#utility.yul\":6836:6890   */\n      tag_136\n      jump\t// in\n    tag_230:\n        /* \"#utility.yul\":6555:6896   */\n      pop\n        /* \"#utility.yul\":6471:6896   */\n      swap4\n      swap3\n      pop\n      pop\n      pop\n      jump\t// out\n        /* \"#utility.yul\":6916:7256   */\n    tag_138:\n        /* \"#utility.yul\":6972:6977   */\n      0x00\n        /* \"#utility.yul\":7021:7024   */\n      dup3\n        /* \"#utility.yul\":7014:7018   */\n      0x1f\n        /* \"#utility.yul\":7006:7012   */\n      dup4\n        /* \"#utility.yul\":7002:7019   */\n      add\n        /* \"#utility.yul\":6998:7025   */\n      slt\n        /* \"#utility.yul\":6988:7110   */\n      tag_232\n      jumpi\n        /* \"#utility.yul\":7029:7108   */\n      tag_233\n      tag_130\n      jump\t// in\n    tag_233:\n        /* \"#utility.yul\":6988:7110   */\n    tag_232:\n        /* \"#utility.yul\":7146:7152   */\n      dup2\n        /* \"#utility.yul\":7133:7153   */\n      calldataload\n        /* \"#utility.yul\":7171:7250   */\n      tag_234\n        /* \"#utility.yul\":7246:7249   */\n      dup5\n        /* \"#utility.yul\":7238:7244   */\n      dup3\n        /* \"#utility.yul\":7231:7235   */\n      0x20\n        /* \"#utility.yul\":7223:7229   */\n      dup7\n        /* \"#utility.yul\":7219:7236   */\n      add\n        /* \"#utility.yul\":7171:7250   */\n      tag_137\n      jump\t// in\n    tag_234:\n        /* \"#utility.yul\":7162:7250   */\n      swap2\n      pop\n        /* \"#utility.yul\":6978:7256   */\n      pop\n        /* \"#utility.yul\":6916:7256   */\n      swap3\n      swap2\n      pop\n      pop\n      jump\t// out\n        /* \"#utility.yul\":7262:8421   */\n    tag_28:\n        /* \"#utility.yul\":7369:7375   */\n      0x00\n        /* \"#utility.yul\":7377:7383   */\n      dup1\n        /* \"#utility.yul\":7385:7391   */\n      0x00\n        /* \"#utility.yul\":7434:7436   */\n      0x60\n        /* \"#utility.yul\":7422:7431   */\n      dup5\n        /* \"#utility.yul\":7413:7420   */\n      dup7\n        /* \"#utility.yul\":7409:7432   */\n      sub\n        /* \"#utility.yul\":7405:7437   */\n      slt\n        /* \"#utility.yul\":7402:7521   */\n      iszero\n      tag_236\n      jumpi\n        /* \"#utility.yul\":7440:7519   */\n      tag_237\n      tag_114\n      jump\t// in\n    tag_237:\n        /* \"#utility.yul\":7402:7521   */\n    tag_236:\n        /* \"#utility.yul\":7588:7589   */\n      0x00\n        /* \"#utility.yul\":7577:7586   */\n      dup5\n        /* \"#utility.yul\":7573:7590   */\n      add\n        /* \"#utility.yul\":7560:7591   */\n      calldataload\n        /* \"#utility.yul\":7618:7636   */\n      0xffffffffffffffff\n        /* \"#utility.yul\":7610:7616   */\n      dup2\n        /* \"#utility.yul\":7607:7637   */\n      gt\n        /* \"#utility.yul\":7604:7721   */\n      iszero\n      tag_238\n      jumpi\n        /* \"#utility.yul\":7640:7719   */\n      tag_239\n      tag_115\n      jump\t// in\n    tag_239:\n        /* \"#utility.yul\":7604:7721   */\n    tag_238:\n        /* \"#utility.yul\":7745:7808   */\n      tag_240\n        /* \"#utility.yul\":7800:7807   */\n      dup7\n        /* \"#utility.yul\":7791:7797   */\n      dup3\n        /* \"#utility.yul\":7780:7789   */\n      dup8\n        /* \"#utility.yul\":7776:7798   */\n      add\n        /* \"#utility.yul\":7745:7808   */\n      tag_138\n      jump\t// in\n    tag_240:\n        /* \"#utility.yul\":7735:7808   */\n      swap4\n      pop\n        /* \"#utility.yul\":7531:7818   */\n      pop\n        /* \"#utility.yul\":7885:7887   */\n      0x20\n        /* \"#utility.yul\":7874:7883   */\n      dup5\n        /* \"#utility.yul\":7870:7888   */\n      add\n        /* \"#utility.yul\":7857:7889   */\n      calldataload\n        /* \"#utility.yul\":7916:7934   */\n      0xffffffffffffffff\n        /* \"#utility.yul\":7908:7914   */\n      dup2\n        /* \"#utility.yul\":7905:7935   */\n      gt\n        /* \"#utility.yul\":7902:8019   */\n      iszero\n      tag_241\n      jumpi\n        /* \"#utility.yul\":7938:8017   */\n      tag_242\n      tag_115\n      jump\t// in\n    tag_242:\n        /* \"#utility.yul\":7902:8019   */\n    tag_241:\n        /* \"#utility.yul\":8043:8106   */\n      tag_243\n        /* \"#utility.yul\":8098:8105   */\n      dup7\n        /* \"#utility.yul\":8089:8095   */\n      dup3\n        /* \"#utility.yul\":8078:8087   */\n      dup8\n        /* \"#utility.yul\":8074:8096   */\n      add\n        /* \"#utility.yul\":8043:8106   */\n      tag_138\n      jump\t// in\n    tag_243:\n        /* \"#utility.yul\":8033:8106   */\n      swap3\n      pop\n        /* \"#utility.yul\":7828:8116   */\n      pop\n        /* \"#utility.yul\":8183:8185   */\n      0x40\n        /* \"#utility.yul\":8172:8181   */\n      dup5\n        /* \"#utility.yul\":8168:8186   */\n      add\n        /* \"#utility.yul\":8155:8187   */\n      calldataload\n        /* \"#utility.yul\":8214:8232   */\n      0xffffffffffffffff\n        /* \"#utility.yul\":8206:8212   */\n      dup2\n        /* \"#utility.yul\":8203:8233   */\n      gt\n        /* \"#utility.yul\":8200:8317   */\n      iszero\n      tag_244\n      jumpi\n        /* \"#utility.yul\":8236:8315   */\n      tag_245\n      tag_115\n      jump\t// in\n    tag_245:\n        /* \"#utility.yul\":8200:8317   */\n    tag_244:\n        /* \"#utility.yul\":8341:8404   */\n      tag_246\n        /* \"#utility.yul\":8396:8403   */\n      dup7\n        /* \"#utility.yul\":8387:8393   */\n      dup3\n        /* \"#utility.yul\":8376:8385   */\n      dup8\n        /* \"#utility.yul\":8372:8394   */\n      add\n        /* \"#utility.yul\":8341:8404   */\n      tag_138\n      jump\t// in\n    tag_246:\n        /* \"#utility.yul\":8331:8404   */\n      swap2\n      pop\n        /* \"#utility.yul\":8126:8414   */\n      pop\n        /* \"#utility.yul\":7262:8421   */\n      swap3\n      pop\n      swap3\n      pop\n      swap3\n      jump\t// out\n        /* \"#utility.yul\":8427:8545   */\n    tag_139:\n        /* \"#utility.yul\":8514:8538   */\n      tag_248\n        /* \"#utility.yul\":8532:8537   */\n      dup2\n        /* \"#utility.yul\":8514:8538   */\n      tag_116\n      jump\t// in\n    tag_248:\n        /* \"#utility.yul\":8509:8512   */\n      dup3\n        /* \"#utility.yul\":8502:8539   */\n      mstore\n        /* \"#utility.yul\":8427:8545   */\n      pop\n      pop\n      jump\t// out\n        /* \"#utility.yul\":8551:8773   */\n    tag_33:\n        /* \"#utility.yul\":8644:8648   */\n      0x00\n        /* \"#utility.yul\":8682:8684   */\n      0x20\n        /* \"#utility.yul\":8671:8680   */\n      dup3\n        /* \"#utility.yul\":8667:8685   */\n      add\n        /* \"#utility.yul\":8659:8685   */\n      swap1\n      pop\n        /* \"#utility.yul\":8695:8766   */\n      tag_250\n        /* \"#utility.yul\":8763:8764   */\n      0x00\n        /* \"#utility.yul\":8752:8761   */\n      dup4\n        /* \"#utility.yul\":8748:8765   */\n      add\n        /* \"#utility.yul\":8739:8745   */\n      dup5\n        /* \"#utility.yul\":8695:8766   */\n      tag_139\n      jump\t// in\n    tag_250:\n        /* \"#utility.yul\":8551:8773   */\n      swap3\n      swap2\n      pop\n      pop\n      jump\t// out\n        /* \"#utility.yul\":8779:8905   */\n    tag_140:\n        /* \"#utility.yul\":8816:8823   */\n      0x00\n        /* \"#utility.yul\":8856:8898   */\n      0xffffffffffffffffffffffffffffffffffffffff\n        /* \"#utility.yul\":8849:8854   */\n      dup3\n        /* \"#utility.yul\":8845:8899   */\n      and\n        /* \"#utility.yul\":8834:8899   */\n      swap1\n      pop\n        /* \"#utility.yul\":8779:8905   */\n      swap2\n      swap1\n      pop\n      jump\t// out\n        /* \"#utility.yul\":8911:9007   */\n    tag_141:\n        /* \"#utility.yul\":8948:8955   */\n      0x00\n        /* \"#utility.yul\":8977:9001   */\n      tag_253\n        /* \"#utility.yul\":8995:9000   */\n      dup3\n        /* \"#utility.yul\":8977:9001   */\n      tag_140\n      jump\t// in\n    tag_253:\n        /* \"#utility.yul\":8966:9001   */\n      swap1\n      pop\n        /* \"#utility.yul\":8911:9007   */\n      swap2\n      swap1\n      pop\n      jump\t// out\n        /* \"#utility.yul\":9013:9131   */\n    tag_142:\n        /* \"#utility.yul\":9100:9124   */\n      tag_255\n        /* \"#utility.yul\":9118:9123   */\n      dup2\n        /* \"#utility.yul\":9100:9124   */\n      tag_141\n      jump\t// in\n    tag_255:\n        /* \"#utility.yul\":9095:9098   */\n      dup3\n        /* \"#utility.yul\":9088:9125   */\n      mstore\n        /* \"#utility.yul\":9013:9131   */\n      pop\n      pop\n      jump\t// out\n        /* \"#utility.yul\":9137:9359   */\n    tag_39:\n        /* \"#utility.yul\":9230:9234   */\n      0x00\n        /* \"#utility.yul\":9268:9270   */\n      0x20\n        /* \"#utility.yul\":9257:9266   */\n      dup3\n        /* \"#utility.yul\":9253:9271   */\n      add\n        /* \"#utility.yul\":9245:9271   */\n      swap1\n      pop\n        /* \"#utility.yul\":9281:9352   */\n      tag_257\n        /* \"#utility.yul\":9349:9350   */\n      0x00\n        /* \"#utility.yul\":9338:9347   */\n      dup4\n        /* \"#utility.yul\":9334:9351   */\n      add\n        /* \"#utility.yul\":9325:9331   */\n      dup5\n        /* \"#utility.yul\":9281:9352   */\n      tag_142\n      jump\t// in\n    tag_257:\n        /* \"#utility.yul\":9137:9359   */\n      swap3\n      swap2\n      pop\n      pop\n      jump\t// out\n        /* \"#utility.yul\":9365:9487   */\n    tag_143:\n        /* \"#utility.yul\":9438:9462   */\n      tag_259\n        /* \"#utility.yul\":9456:9461   */\n      dup2\n        /* \"#utility.yul\":9438:9462   */\n      tag_141\n      jump\t// in\n    tag_259:\n        /* \"#utility.yul\":9431:9436   */\n      dup2\n        /* \"#utility.yul\":9428:9463   */\n      eq\n        /* \"#utility.yul\":9418:9481   */\n      tag_260\n      jumpi\n        /* \"#utility.yul\":9477:9478   */\n      0x00\n        /* \"#utility.yul\":9474:9475   */\n      dup1\n        /* \"#utility.yul\":9467:9479   */\n      revert\n        /* \"#utility.yul\":9418:9481   */\n    tag_260:\n        /* \"#utility.yul\":9365:9487   */\n      pop\n      jump\t// out\n        /* \"#utility.yul\":9493:9632   */\n    tag_144:\n        /* \"#utility.yul\":9539:9544   */\n      0x00\n        /* \"#utility.yul\":9577:9583   */\n      dup2\n        /* \"#utility.yul\":9564:9584   */\n      calldataload\n        /* \"#utility.yul\":9555:9584   */\n      swap1\n      pop\n        /* \"#utility.yul\":9593:9626   */\n      tag_262\n        /* \"#utility.yul\":9620:9625   */\n      dup2\n        /* \"#utility.yul\":9593:9626   */\n      tag_143\n      jump\t// in\n    tag_262:\n        /* \"#utility.yul\":9493:9632   */\n      swap3\n      swap2\n      pop\n      pop\n      jump\t// out\n        /* \"#utility.yul\":9638:9967   */\n    tag_42:\n        /* \"#utility.yul\":9697:9703   */\n      0x00\n        /* \"#utility.yul\":9746:9748   */\n      0x20\n        /* \"#utility.yul\":9734:9743   */\n      dup3\n        /* \"#utility.yul\":9725:9732   */\n      dup5\n        /* \"#utility.yul\":9721:9744   */\n      sub\n        /* \"#utility.yul\":9717:9749   */\n      slt\n        /* \"#utility.yul\":9714:9833   */\n      iszero\n      tag_264\n      jumpi\n        /* \"#utility.yul\":9752:9831   */\n      tag_265\n      tag_114\n      jump\t// in\n    tag_265:\n        /* \"#utility.yul\":9714:9833   */\n    tag_264:\n        /* \"#utility.yul\":9872:9873   */\n      0x00\n        /* \"#utility.yul\":9897:9950   */\n      tag_266\n        /* \"#utility.yul\":9942:9949   */\n      dup5\n        /* \"#utility.yul\":9933:9939   */\n      dup3\n        /* \"#utility.yul\":9922:9931   */\n      dup6\n        /* \"#utility.yul\":9918:9940   */\n      add\n        /* \"#utility.yul\":9897:9950   */\n      tag_144\n      jump\t// in\n    tag_266:\n        /* \"#utility.yul\":9887:9950   */\n      swap2\n      pop\n        /* \"#utility.yul\":9843:9960   */\n      pop\n        /* \"#utility.yul\":9638:9967   */\n      swap3\n      swap2\n      pop\n      pop\n      jump\t// out\n        /* \"#utility.yul\":9973:10153   */\n    tag_145:\n        /* \"#utility.yul\":10021:10098   */\n      0x4e487b7100000000000000000000000000000000000000000000000000000000\n        /* \"#utility.yul\":10018:10019   */\n      0x00\n        /* \"#utility.yul\":10011:10099   */\n      mstore\n        /* \"#utility.yul\":10118:10122   */\n      0x22\n        /* \"#utility.yul\":10115:10116   */\n      0x04\n        /* \"#utility.yul\":10108:10123   */\n      mstore\n        /* \"#utility.yul\":10142:10146   */\n      0x24\n        /* \"#utility.yul\":10139:10140   */\n      0x00\n        /* \"#utility.yul\":10132:10147   */\n      revert\n        /* \"#utility.yul\":10159:10479   */\n    tag_48:\n        /* \"#utility.yul\":10203:10209   */\n      0x00\n        /* \"#utility.yul\":10240:10241   */\n      0x02\n        /* \"#utility.yul\":10234:10238   */\n      dup3\n        /* \"#utility.yul\":10230:10242   */\n      div\n        /* \"#utility.yul\":10220:10242   */\n      swap1\n      pop\n        /* \"#utility.yul\":10287:10288   */\n      0x01\n        /* \"#utility.yul\":10281:10285   */\n      dup3\n        /* \"#utility.yul\":10277:10289   */\n      and\n        /* \"#utility.yul\":10308:10326   */\n      dup1\n        /* \"#utility.yul\":10298:10379   */\n      tag_269\n      jumpi\n        /* \"#utility.yul\":10364:10368   */\n      0x7f\n        /* \"#utility.yul\":10356:10362   */\n      dup3\n        /* \"#utility.yul\":10352:10369   */\n      and\n        /* \"#utility.yul\":10342:10369   */\n      swap2\n      pop\n        /* \"#utility.yul\":10298:10379   */\n    tag_269:\n        /* \"#utility.yul\":10426:10428   */\n      0x20\n        /* \"#utility.yul\":10418:10424   */\n      dup3\n        /* \"#utility.yul\":10415:10429   */\n      lt\n        /* \"#utility.yul\":10395:10413   */\n      dup2\n        /* \"#utility.yul\":10392:10430   */\n      sub\n        /* \"#utility.yul\":10389:10473   */\n      tag_270\n      jumpi\n        /* \"#utility.yul\":10445:10463   */\n      tag_271\n      tag_145\n      jump\t// in\n    tag_271:\n        /* \"#utility.yul\":10389:10473   */\n    tag_270:\n        /* \"#utility.yul\":10210:10479   */\n      pop\n        /* \"#utility.yul\":10159:10479   */\n      swap2\n      swap1\n      pop\n      jump\t// out\n        /* \"#utility.yul\":10485:10651   */\n    tag_146:\n        /* \"#utility.yul\":10625:10643   */\n      0x416c72656164792072656465656d656400000000000000000000000000000000\n        /* \"#utility.yul\":10621:10622   */\n      0x00\n        /* \"#utility.yul\":10613:10619   */\n      dup3\n        /* \"#utility.yul\":10609:10623   */\n      add\n        /* \"#utility.yul\":10602:10644   */\n      mstore\n        /* \"#utility.yul\":10485:10651   */\n      pop\n      jump\t// out\n        /* \"#utility.yul\":10657:11023   */\n    tag_147:\n        /* \"#utility.yul\":10799:10802   */\n      0x00\n        /* \"#utility.yul\":10820:10887   */\n      tag_274\n        /* \"#utility.yul\":10884:10886   */\n      0x10\n        /* \"#utility.yul\":10879:10882   */\n      dup4\n        /* \"#utility.yul\":10820:10887   */\n      tag_127\n      jump\t// in\n    tag_274:\n        /* \"#utility.yul\":10813:10887   */\n      swap2\n      pop\n        /* \"#utility.yul\":10896:10989   */\n      tag_275\n        /* \"#utility.yul\":10985:10988   */\n      dup3\n        /* \"#utility.yul\":10896:10989   */\n      tag_146\n      jump\t// in\n    tag_275:\n        /* \"#utility.yul\":11014:11016   */\n      0x20\n        /* \"#utility.yul\":11009:11012   */\n      dup3\n        /* \"#utility.yul\":11005:11017   */\n      add\n        /* \"#utility.yul\":10998:11017   */\n      swap1\n      pop\n        /* \"#utility.yul\":10657:11023   */\n      swap2\n      swap1\n      pop\n      jump\t// out\n        /* \"#utility.yul\":11029:11448   */\n    tag_81:\n        /* \"#utility.yul\":11195:11199   */\n      0x00\n        /* \"#utility.yul\":11233:11235   */\n      0x20\n        /* \"#utility.yul\":11222:11231   */\n      dup3\n        /* \"#utility.yul\":11218:11236   */\n      add\n        /* \"#utility.yul\":11210:11236   */\n      swap1\n      pop\n        /* \"#utility.yul\":11282:11291   */\n      dup2\n        /* \"#utility.yul\":11276:11280   */\n      dup2\n        /* \"#utility.yul\":11272:11292   */\n      sub\n        /* \"#utility.yul\":11268:11269   */\n      0x00\n        /* \"#utility.yul\":11257:11266   */\n      dup4\n        /* \"#utility.yul\":11253:11270   */\n      add\n        /* \"#utility.yul\":11246:11293   */\n      mstore\n        /* \"#utility.yul\":11310:11441   */\n      tag_277\n        /* \"#utility.yul\":11436:11440   */\n      dup2\n        /* \"#utility.yul\":11310:11441   */\n      tag_147\n      jump\t// in\n    tag_277:\n        /* \"#utility.yul\":11302:11441   */\n      swap1\n      pop\n        /* \"#utility.yul\":11029:11448   */\n      swap2\n      swap1\n      pop\n      jump\t// out\n        /* \"#utility.yul\":11454:11595   */\n    tag_148:\n        /* \"#utility.yul\":11503:11507   */\n      0x00\n        /* \"#utility.yul\":11526:11529   */\n      dup2\n        /* \"#utility.yul\":11518:11529   */\n      swap1\n      pop\n        /* \"#utility.yul\":11549:11552   */\n      dup2\n        /* \"#utility.yul\":11546:11547   */\n      0x00\n        /* \"#utility.yul\":11539:11553   */\n      mstore\n        /* \"#utility.yul\":11583:11587   */\n      0x20\n        /* \"#utility.yul\":11580:11581   */\n      0x00\n        /* \"#utility.yul\":11570:11588   */\n      keccak256\n        /* \"#utility.yul\":11562:11588   */\n      swap1\n      pop\n        /* \"#utility.yul\":11454:11595   */\n      swap2\n      swap1\n      pop\n      jump\t// out\n        /* \"#utility.yul\":11601:11694   */\n    tag_149:\n        /* \"#utility.yul\":11638:11644   */\n      0x00\n        /* \"#utility.yul\":11685:11687   */\n      0x20\n        /* \"#utility.yul\":11680:11682   */\n      0x1f\n        /* \"#utility.yul\":11673:11678   */\n      dup4\n        /* \"#utility.yul\":11669:11683   */\n      add\n        /* \"#utility.yul\":11665:11688   */\n      div\n        /* \"#utility.yul\":11655:11688   */\n      swap1\n      pop\n        /* \"#utility.yul\":11601:11694   */\n      swap2\n      swap1\n      pop\n      jump\t// out\n        /* \"#utility.yul\":11700:11807   */\n    tag_150:\n        /* \"#utility.yul\":11744:11752   */\n      0x00\n        /* \"#utility.yul\":11794:11799   */\n      dup3\n        /* \"#utility.yul\":11788:11792   */\n      dup3\n        /* \"#utility.yul\":11784:11800   */\n      shl\n        /* \"#utility.yul\":11763:11800   */\n      swap1\n      pop\n        /* \"#utility.yul\":11700:11807   */\n      swap3\n      swap2\n      pop\n      pop\n      jump\t// out\n        /* \"#utility.yul\":11813:12206   */\n    tag_151:\n        /* \"#utility.yul\":11882:11888   */\n      0x00\n        /* \"#utility.yul\":11932:11933   */\n      0x08\n        /* \"#utility.yul\":11920:11930   */\n      dup4\n        /* \"#utility.yul\":11916:11934   */\n      mul\n        /* \"#utility.yul\":11955:12052   */\n      tag_282\n        /* \"#utility.yul\":11985:12051   */\n      0xffffffffffffffffffffffffffffffffffffffffffffffffffffffffffffffff\n        /* \"#utility.yul\":11974:11983   */\n      dup3\n        /* \"#utility.yul\":11955:12052   */\n      tag_150\n      jump\t// in\n    tag_282:\n        /* \"#utility.yul\":12073:12112   */\n      tag_283\n        /* \"#utility.yul\":12103:12111   */\n      dup7\n        /* \"#utility.yul\":12092:12101   */\n      dup4\n        /* \"#utility.yul\":12073:12112   */\n      tag_150\n      jump\t// in\n    tag_283:\n        /* \"#utility.yul\":12061:12112   */\n      swap6\n      pop\n        /* \"#utility.yul\":12145:12149   */\n      dup1\n        /* \"#utility.yul\":12141:12150   */\n      not\n        /* \"#utility.yul\":12134:12139   */\n      dup5\n        /* \"#utility.yul\":12130:12151   */\n      and\n        /* \"#utility.yul\":12121:12151   */\n      swap4\n      pop\n        /* \"#utility.yul\":12194:12198   */\n      dup1\n        /* \"#utility.yul\":12184:12192   */\n      dup7\n        /* \"#utility.yul\":12180:12199   */\n      and\n        /* \"#utility.yul\":12173:12178   */\n      dup5\n        /* \"#utility.yul\":12170:12200   */\n      or\n        /* \"#utility.yul\":12160:12200   */\n      swap3\n      pop\n        /* \"#utility.yul\":11889:12206   */\n      pop\n      pop\n        /* \"#utility.yul\":11813:12206   */\n      swap4\n      swap3\n      pop\n      pop\n      pop\n      jump\t// out\n        /* \"#utility.yul\":12212:12272   */\n    tag_152:\n        /* \"#utility.yul\":12240:12243   */\n      0x00\n        /* \"#utility.yul\":12261:12266   */\n      dup2\n        /* \"#utility.yul\":12254:12266   */\n      swap1\n      pop\n        /* \"#utility.yul\":12212:12272   */\n      swap2\n      swap1\n      pop\n      jump\t// out\n        /* \"#utility.yul\":12278:12420   */\n    tag_153:\n        /* \"#utility.yul\":12328:12337   */\n      0x00\n        /* \"#utility.yul\":12361:12414   */\n      tag_286\n        /* \"#utility.yul\":12379:12413   */\n      tag_287\n        /* \"#utility.yul\":12388:12412   */\n      tag_288\n        /* \"#utility.yul\":12406:12411   */\n      dup5\n        /* \"#utility.yul\":12388:12412   */\n      tag_116\n      jump\t// in\n    tag_288:\n        /* \"#utility.yul\":12379:12413   */\n      tag_152\n      jump\t// in\n    tag_287:\n        /* \"#utility.yul\":12361:12414   */\n      tag_116\n      jump\t// in\n    tag_286:\n        /* \"#utility.yul\":12348:12414   */\n      swap1\n      pop\n        /* \"#utility.yul\":12278:12420   */\n      swap2\n      swap1\n      pop\n      jump\t// out\n        /* \"#utility.yul\":12426:12501   */\n    tag_154:\n        /* \"#utility.yul\":12469:12472   */\n      0x00\n        /* \"#utility.yul\":12490:12495   */\n      dup2\n        /* \"#utility.yul\":12483:12495   */\n      swap1\n      pop\n        /* \"#utility.yul\":12426:12501   */\n      swap2\n      swap1\n      pop\n      jump\t// out\n        /* \"#utility.yul\":12507:12776   */\n    tag_155:\n        /* \"#utility.yul\":12617:12656   */\n      tag_291\n        /* \"#utility.yul\":12648:12655   */\n      dup4\n        /* \"#utility.yul\":12617:12656   */\n      tag_153\n      jump\t// in\n    tag_291:\n        /* \"#utility.yul\":12678:12769   */\n      tag_292\n        /* \"#utility.yul\":12727:12768   */\n      tag_293\n        /* \"#utility.yul\":12751:12767   */\n      dup3\n        /* \"#utility.yul\":12727:12768   */\n      tag_154\n      jump\t// in\n    tag_293:\n        /* \"#utility.yul\":12719:12725   */\n      dup5\n        /* \"#utility.yul\":12712:12716   */\n      dup5\n        /* \"#utility.yul\":12706:12717   */\n      sload\n        /* \"#utility.yul\":12678:12769   */\n      tag_151\n      jump\t// in\n    tag_292:\n        /* \"#utility.yul\":12672:12676   */\n      dup3\n        /* \"#utility.yul\":12665:12770   */\n      sstore\n        /* \"#utility.yul\":12583:12776   */\n      pop\n        /* \"#utility.yul\":12507:12776   */\n      pop\n      pop\n      pop\n      jump\t// out\n        /* \"#utility.yul\":12782:12855   */\n    tag_156:\n        /* \"#utility.yul\":12827:12830   */\n      0x00\n        /* \"#utility.yul\":12782:12855   */\n      swap1\n      jump\t// out\n        /* \"#utility.yul\":12861:13050   */\n    tag_157:\n        /* \"#utility.yul\":12938:12970   */\n      tag_296\n      tag_156\n      jump\t// in\n    tag_296:\n        /* \"#utility.yul\":12979:13044   */\n      tag_297\n        /* \"#utility.yul\":13037:13043   */\n      dup2\n        /* \"#utility.yul\":13029:13035   */\n      dup5\n        /* \"#utility.yul\":13023:13027   */\n      dup5\n        /* \"#utility.yul\":12979:13044   */\n      tag_155\n      jump\t// in\n    tag_297:\n        /* \"#utility.yul\":12914:13050   */\n      pop\n        /* \"#utility.yul\":12861:13050   */\n      pop\n      pop\n      jump\t// out\n        /* \"#utility.yul\":13056:13242   */\n    tag_158:\n        /* \"#utility.yul\":13116:13236   */\n    tag_299:\n        /* \"#utility.yul\":13133:13136   */\n      dup2\n        /* \"#utility.yul\":13126:13131   */\n      dup2\n        /* \"#utility.yul\":13123:13137   */\n      lt\n        /* \"#utility.yul\":13116:13236   */\n      iszero\n      tag_301\n      jumpi\n        /* \"#utility.yul\":13187:13226   */\n      tag_302\n        /* \"#utility.yul\":13224:13225   */\n      0x00\n        /* \"#utility.yul\":13217:13222   */\n      dup3\n        /* \"#utility.yul\":13187:13226   */\n      tag_157\n      jump\t// in\n    tag_302:\n        /* \"#utility.yul\":13160:13161   */\n      0x01\n        /* \"#utility.yul\":13153:13158   */\n      dup2\n        /* \"#utility.yul\":13149:13162   */\n      add\n        /* \"#utility.yul\":13140:13162   */\n      swap1\n      pop\n        /* \"#utility.yul\":13116:13236   */\n      jump(tag_299)\n    tag_301:\n        /* \"#utility.yul\":13056:13242   */\n      pop\n      pop\n      jump\t// out\n        /* \"#utility.yul\":13248:13791   */\n    tag_159:\n        /* \"#utility.yul\":13349:13351   */\n      0x1f\n        /* \"#utility.yul\":13344:13347   */\n      dup3\n        /* \"#utility.yul\":13341:13352   */\n      gt\n        /* \"#utility.yul\":13338:13784   */\n      iszero\n      tag_304\n      jumpi\n        /* \"#utility.yul\":13383:13421   */\n      tag_305\n        /* \"#utility.yul\":13415:13420   */\n      dup2\n        /* \"#utility.yul\":13383:13421   */\n      tag_148\n      jump\t// in\n    tag_305:\n        /* \"#utility.yul\":13467:13496   */\n      tag_306\n        /* \"#utility.yul\":13485:13495   */\n      dup5\n        /* \"#utility.yul\":13467:13496   */\n      tag_149\n      jump\t// in\n    tag_306:\n        /* \"#utility.yul\":13457:13465   */\n      dup2\n        /* \"#utility.yul\":13453:13497   */\n      add\n        /* \"#utility.yul\":13650:13652   */\n      0x20\n        /* \"#utility.yul\":13638:13648   */\n      dup6\n        /* \"#utility.yul\":13635:13653   */\n      lt\n        /* \"#utility.yul\":13632:13681   */\n      iszero\n      tag_307\n      jumpi\n        /* \"#utility.yul\":13671:13679   */\n      dup2\n        /* \"#utility.yul\":13656:13679   */\n      swap1\n      pop\n        /* \"#utility.yul\":13632:13681   */\n    tag_307:\n        /* \"#utility.yul\":13694:13774   */\n      tag_308\n        /* \"#utility.yul\":13750:13772   */\n      tag_309\n        /* \"#utility.yul\":13768:13771   */\n      dup6\n        /* \"#utility.yul\":13750:13772   */\n      tag_149\n      jump\t// in\n    tag_309:\n        /* \"#utility.yul\":13740:13748   */\n      dup4\n        /* \"#utility.yul\":13736:13773   */\n      add\n        /* \"#utility.yul\":13723:13734   */\n      dup3\n        /* \"#utility.yul\":13694:13774   */\n      tag_158\n      jump\t// in\n    tag_308:\n        /* \"#utility.yul\":13353:13784   */\n      pop\n      pop\n        /* \"#utility.yul\":13338:13784   */\n    tag_304:\n        /* \"#utility.yul\":13248:13791   */\n      pop\n      pop\n      pop\n      jump\t// out\n        /* \"#utility.yul\":13797:13914   */\n    tag_160:\n        /* \"#utility.yul\":13851:13859   */\n      0x00\n        /* \"#utility.yul\":13901:13906   */\n      dup3\n        /* \"#utility.yul\":13895:13899   */\n      dup3\n        /* \"#utility.yul\":13891:13907   */\n      shr\n        /* \"#utility.yul\":13870:13907   */\n      swap1\n      pop\n        /* \"#utility.yul\":13797:13914   */\n      swap3\n      swap2\n      pop\n      pop\n      jump\t// out\n        /* \"#utility.yul\":13920:14089   */\n    tag_161:\n        /* \"#utility.yul\":13964:13970   */\n      0x00\n        /* \"#utility.yul\":13997:14048   */\n      tag_312\n        /* \"#utility.yul\":14045:14046   */\n      0x00\n        /* \"#utility.yul\":14041:14047   */\n      not\n        /* \"#utility.yul\":14033:14038   */\n      dup5\n        /* \"#utility.yul\":14030:14031   */\n      0x08\n        /* \"#utility.yul\":14026:14039   */\n      mul\n        /* \"#utility.yul\":13997:14048   */\n      tag_160\n      jump\t// in\n    tag_312:\n        /* \"#utility.yul\":13993:14049   */\n      not\n        /* \"#utility.yul\":14078:14082   */\n      dup1\n        /* \"#utility.yul\":14072:14076   */\n      dup4\n        /* \"#utility.yul\":14068:14083   */\n      and\n        /* \"#utility.yul\":14058:14083   */\n      swap2\n      pop\n        /* \"#utility.yul\":13971:14089   */\n      pop\n        /* \"#utility.yul\":13920:14089   */\n      swap3\n      swap2\n      pop\n      pop\n      jump\t// out\n        /* \"#utility.yul\":14094:14389   */\n    tag_162:\n        /* \"#utility.yul\":14170:14174   */\n      0x00\n        /* \"#utility.yul\":14316:14345   */\n      tag_314\n        /* \"#utility.yul\":14341:14344   */\n      dup4\n        /* \"#utility.yul\":14335:14339   */\n      dup4\n        /* \"#utility.yul\":14316:14345   */\n      tag_161\n      jump\t// in\n    tag_314:\n        /* \"#utility.yul\":14308:14345   */\n      swap2\n      pop\n        /* \"#utility.yul\":14378:14381   */\n      dup3\n        /* \"#utility.yul\":14375:14376   */\n      0x02\n        /* \"#utility.yul\":14371:14382   */\n      mul\n        /* \"#utility.yul\":14365:14369   */\n      dup3\n        /* \"#utility.yul\":14362:14383   */\n      or\n        /* \"#utility.yul\":14354:14383   */\n      swap1\n      pop\n        /* \"#utility.yul\":14094:14389   */\n      swap3\n      swap2\n      pop\n      pop\n      jump\t// out\n        /* \"#utility.yul\":14394:15789   */\n    tag_87:\n        /* \"#utility.yul\":14511:14548   */\n      tag_316\n        /* \"#utility.yul\":14544:14547   */\n      dup3\n        /* \"#utility.yul\":14511:14548   */\n      tag_119\n      jump\t// in\n    tag_316:\n        /* \"#utility.yul\":14613:14631   */\n      0xffffffffffffffff\n        /* \"#utility.yul\":14605:14611   */\n      dup2\n        /* \"#utility.yul\":14602:14632   */\n      gt\n        /* \"#utility.yul\":14599:14655   */\n      iszero\n      tag_317\n      jumpi\n        /* \"#utility.yul\":14635:14653   */\n      tag_318\n      tag_132\n      jump\t// in\n    tag_318:\n        /* \"#utility.yul\":14599:14655   */\n    tag_317:\n        /* \"#utility.yul\":14679:14717   */\n      tag_319\n        /* \"#utility.yul\":14711:14715   */\n      dup3\n        /* \"#utility.yul\":14705:14716   */\n      sload\n        /* \"#utility.yul\":14679:14717   */\n      tag_48\n      jump\t// in\n    tag_319:\n        /* \"#utility.yul\":14764:14831   */\n      tag_320\n        /* \"#utility.yul\":14824:14830   */\n      dup3\n        /* \"#utility.yul\":14816:14822   */\n      dup3\n        /* \"#utility.yul\":14810:14814   */\n      dup6\n        /* \"#utility.yul\":14764:14831   */\n      tag_159\n      jump\t// in\n    tag_320:\n        /* \"#utility.yul\":14858:14859   */\n      0x00\n        /* \"#utility.yul\":14882:14886   */\n      0x20\n        /* \"#utility.yul\":14869:14886   */\n      swap1\n      pop\n        /* \"#utility.yul\":14914:14916   */\n      0x1f\n        /* \"#utility.yul\":14906:14912   */\n      dup4\n        /* \"#utility.yul\":14903:14917   */\n      gt\n        /* \"#utility.yul\":14931:14932   */\n      0x01\n        /* \"#utility.yul\":14926:15544   */\n      dup2\n      eq\n      tag_322\n      jumpi\n        /* \"#utility.yul\":15588:15589   */\n      0x00\n        /* \"#utility.yul\":15605:15611   */\n      dup5\n        /* \"#utility.yul\":15602:15679   */\n      iszero\n      tag_323\n      jumpi\n        /* \"#utility.yul\":15654:15663   */\n      dup3\n        /* \"#utility.yul\":15649:15652   */\n      dup8\n        /* \"#utility.yul\":15645:15664   */\n      add\n        /* \"#utility.yul\":15639:15665   */\n      mload\n        /* \"#utility.yul\":15630:15665   */\n      swap1\n      pop\n        /* \"#utility.yul\":15602:15679   */\n    tag_323:\n        /* \"#utility.yul\":15705:15772   */\n      tag_324\n        /* \"#utility.yul\":15765:15771   */\n      dup6\n        /* \"#utility.yul\":15758:15763   */\n      dup3\n        /* \"#utility.yul\":15705:15772   */\n      tag_162\n      jump\t// in\n    tag_324:\n        /* \"#utility.yul\":15699:15703   */\n      dup7\n        /* \"#utility.yul\":15692:15773   */\n      sstore\n        /* \"#utility.yul\":15561:15783   */\n      pop\n        /* \"#utility.yul\":14896:15783   */\n      jump(tag_321)\n        /* \"#utility.yul\":14926:15544   */\n    tag_322:\n        /* \"#utility.yul\":14978:14982   */\n      0x1f\n        /* \"#utility.yul\":14974:14983   */\n      not\n        /* \"#utility.yul\":14966:14972   */\n      dup5\n        /* \"#utility.yul\":14962:14984   */\n      and\n        /* \"#utility.yul\":15012:15049   */\n      tag_325\n        /* \"#utility.yul\":15044:15048   */\n      dup7\n        /* \"#utility.yul\":15012:15049   */\n      tag_148\n      jump\t// in\n    tag_325:\n        /* \"#utility.yul\":15071:15072   */\n      0x00\n        /* \"#utility.yul\":15085:15293   */\n    tag_326:\n        /* \"#utility.yul\":15099:15106   */\n      dup3\n        /* \"#utility.yul\":15096:15097   */\n      dup2\n        /* \"#utility.yul\":15093:15107   */\n      lt\n        /* \"#utility.yul\":15085:15293   */\n      iszero\n      tag_328\n      jumpi\n        /* \"#utility.yul\":15178:15187   */\n      dup5\n        /* \"#utility.yul\":15173:15176   */\n      dup10\n        /* \"#utility.yul\":15169:15188   */\n      add\n        /* \"#utility.yul\":15163:15189   */\n      mload\n        /* \"#utility.yul\":15155:15161   */\n      dup3\n        /* \"#utility.yul\":15148:15190   */\n      sstore\n        /* \"#utility.yul\":15229:15230   */\n      0x01\n        /* \"#utility.yul\":15221:15227   */\n      dup3\n        /* \"#utility.yul\":15217:15231   */\n      add\n        /* \"#utility.yul\":15207:15231   */\n      swap2\n      pop\n        /* \"#utility.yul\":15276:15278   */\n      0x20\n        /* \"#utility.yul\":15265:15274   */\n      dup6\n        /* \"#utility.yul\":15261:15279   */\n      add\n        /* \"#utility.yul\":15248:15279   */\n      swap5\n      pop\n        /* \"#utility.yul\":15122:15126   */\n      0x20\n        /* \"#utility.yul\":15119:15120   */\n      dup2\n        /* \"#utility.yul\":15115:15127   */\n      add\n        /* \"#utility.yul\":15110:15127   */\n      swap1\n      pop\n        /* \"#utility.yul\":15085:15293   */\n      jump(tag_326)\n    tag_328:\n        /* \"#utility.yul\":15321:15327   */\n      dup7\n        /* \"#utility.yul\":15312:15319   */\n      dup4\n        /* \"#utility.yul\":15309:15328   */\n      lt\n        /* \"#utility.yul\":15306:15485   */\n      iszero\n      tag_329\n      jumpi\n        /* \"#utility.yul\":15379:15388   */\n      dup5\n        /* \"#utility.yul\":15374:15377   */\n      dup10\n        /* \"#utility.yul\":15370:15389   */\n      add\n        /* \"#utility.yul\":15364:15390   */\n      mload\n        /* \"#utility.yul\":15422:15470   */\n      tag_330\n        /* \"#utility.yul\":15464:15468   */\n      0x1f\n        /* \"#utility.yul\":15456:15462   */\n      dup10\n        /* \"#utility.yul\":15452:15469   */\n      and\n        /* \"#utility.yul\":15441:15450   */\n      dup3\n        /* \"#utility.yul\":15422:15470   */\n      tag_161\n      jump\t// in\n    tag_330:\n        /* \"#utility.yul\":15414:15420   */\n      dup4\n        /* \"#utility.yul\":15407:15471   */\n      sstore\n        /* \"#utility.yul\":15329:15485   */\n      pop\n        /* \"#utility.yul\":15306:15485   */\n    tag_329:\n        /* \"#utility.yul\":15531:15532   */\n      0x01\n        /* \"#utility.yul\":15527:15528   */\n      0x02\n        /* \"#utility.yul\":15519:15525   */\n      dup9\n        /* \"#utility.yul\":15515:15529   */\n      mul\n        /* \"#utility.yul\":15511:15533   */\n      add\n        /* \"#utility.yul\":15505:15509   */\n      dup9\n        /* \"#utility.yul\":15498:15534   */\n      sstore\n        /* \"#utility.yul\":14933:15544   */\n      pop\n      pop\n      pop\n        /* \"#utility.yul\":14896:15783   */\n    tag_321:\n      pop\n        /* \"#utility.yul\":14486:15789   */\n      pop\n      pop\n      pop\n        /* \"#utility.yul\":14394:15789   */\n      pop\n      pop\n      jump\t// out\n        /* \"#utility.yul\":15795:15975   */\n    tag_163:\n        /* \"#utility.yul\":15843:15920   */\n      0x4e487b7100000000000000000000000000000000000000000000000000000000\n        /* \"#utility.yul\":15840:15841   */\n      0x00\n        /* \"#utility.yul\":15833:15921   */\n      mstore\n        /* \"#utility.yul\":15940:15944   */\n      0x11\n        /* \"#utility.yul\":15937:15938   */\n      0x04\n        /* \"#utility.yul\":15930:15945   */\n      mstore\n        /* \"#utility.yul\":15964:15968   */\n      0x24\n        /* \"#utility.yul\":15961:15962   */\n      0x00\n        /* \"#utility.yul\":15954:15969   */\n      revert\n        /* \"#utility.yul\":15981:16214   */\n    tag_91:\n        /* \"#utility.yul\":16020:16023   */\n      0x00\n        /* \"#utility.yul\":16043:16067   */\n      tag_333\n        /* \"#utility.yul\":16061:16066   */\n      dup3\n        /* \"#utility.yul\":16043:16067   */\n      tag_116\n      jump\t// in\n    tag_333:\n        /* \"#utility.yul\":16034:16067   */\n      swap2\n      pop\n        /* \"#utility.yul\":16089:16155   */\n      0xffffffffffffffffffffffffffffffffffffffffffffffffffffffffffffffff\n        /* \"#utility.yul\":16082:16087   */\n      dup3\n        /* \"#utility.yul\":16079:16156   */\n      sub\n        /* \"#utility.yul\":16076:16179   */\n      tag_334\n      jumpi\n        /* \"#utility.yul\":16159:16177   */\n      tag_335\n      tag_163\n      jump\t// in\n    tag_335:\n        /* \"#utility.yul\":16076:16179   */\n    tag_334:\n        /* \"#utility.yul\":16206:16207   */\n      0x01\n        /* \"#utility.yul\":16199:16204   */\n      dup3\n        /* \"#utility.yul\":16195:16208   */\n      add\n        /* \"#utility.yul\":16188:16208   */\n      swap1\n      pop\n        /* \"#utility.yul\":15981:16214   */\n      swap2\n      swap1\n      pop\n      jump\t// out\n\n    auxdata: 0xa2646970667358221220b21e637fb1e784c6570a6c91c16919a82e1525c58a4b1efe44f45a8a0cfff2b664736f6c634300081a0033\n}\n",
				"bytecode": {
					"linkReferences": {},
					"object": "608060405234801561000f575f80fd5b506040516113b93803806113b9833981810160405281019061003191906101d7565b805f73ffffffffffffffffffffffffffffffffffffffff168173ffffffffffffffffffffffffffffffffffffffff16036100a2575f6040517f1e4fbdf70000000000000000000000000000000000000000000000000000000081526004016100999190610211565b60405180910390fd5b6100b1816100b860201b60201c565b505061022a565b5f805f9054906101000a900473ffffffffffffffffffffffffffffffffffffffff169050815f806101000a81548173ffffffffffffffffffffffffffffffffffffffff021916908373ffffffffffffffffffffffffffffffffffffffff1602179055508173ffffffffffffffffffffffffffffffffffffffff168173ffffffffffffffffffffffffffffffffffffffff167f8be0079c531659141344cd1fd0a4f28419497f9722a3daafe3b4186f6b6457e060405160405180910390a35050565b5f80fd5b5f73ffffffffffffffffffffffffffffffffffffffff82169050919050565b5f6101a68261017d565b9050919050565b6101b68161019c565b81146101c0575f80fd5b50565b5f815190506101d1816101ad565b92915050565b5f602082840312156101ec576101eb610179565b5b5f6101f9848285016101c3565b91505092915050565b61020b8161019c565b82525050565b5f6020820190506102245f830184610202565b92915050565b611182806102375f395ff3fe608060405234801561000f575f80fd5b5060043610610086575f3560e01c806361b8ce8c1161005957806361b8ce8c14610125578063715018a6146101435780638da5cb5b1461014d578063f2fde38b1461016b57610086565b80631c4b774b1461008a57806330828e92146100ba57806351a71b17146100ed5780635216ee3c14610109575b5f80fd5b6100a4600480360381019061009f9190610910565b610187565b6040516100b19190610a33565b60405180910390f35b6100d460048036038101906100cf9190610910565b61037b565b6040516100e49493929190610aaa565b60405180910390f35b61010760048036038101906101029190610910565b610545565b005b610123600480360381019061011e9190610c2e565b6105d4565b005b61012d610690565b60405161013a9190610ce1565b60405180910390f35b61014b610696565b005b6101556106a9565b6040516101629190610d39565b60405180910390f35b61018560048036038101906101809190610d7c565b6106d0565b005b61018f6108a3565b60015f8381526020019081526020015f206040518060800160405290815f820180546101ba90610dd4565b80601f01602080910402602001604051908101604052809291908181526020018280546101e690610dd4565b80156102315780601f1061020857610100808354040283529160200191610231565b820191905f5260205f20905b81548152906001019060200180831161021457829003601f168201915b5050505050815260200160018201805461024a90610dd4565b80601f016020809104026020016040519081016040528092919081815260200182805461027690610dd4565b80156102c15780601f10610298576101008083540402835291602001916102c1565b820191905f5260205f20905b8154815290600101906020018083116102a457829003601f168201915b505050505081526020016002820180546102da90610dd4565b80601f016020809104026020016040519081016040528092919081815260200182805461030690610dd4565b80156103515780601f1061032857610100808354040283529160200191610351565b820191905f5260205f20905b81548152906001019060200180831161033457829003601f168201915b50505050508152602001600382015f9054906101000a900460ff1615151515815250509050919050565b6001602052805f5260405f205f91509050805f01805461039a90610dd4565b80601f01602080910402602001604051908101604052809291908181526020018280546103c690610dd4565b80156104115780601f106103e857610100808354040283529160200191610411565b820191905f5260205f20905b8154815290600101906020018083116103f457829003601f168201915b50505050509080600101805461042690610dd4565b80601f016020809104026020016040519081016040528092919081815260200182805461045290610dd4565b801561049d5780601f106104745761010080835404028352916020019161049d565b820191905f5260205f20905b81548152906001019060200180831161048057829003601f168201915b5050505050908060020180546104b290610dd4565b80601f01602080910402602001604051908101604052809291908181526020018280546104de90610dd4565b80156105295780601f1061050057610100808354040283529160200191610529565b820191905f5260205f20905b81548152906001019060200180831161050c57829003601f168201915b505050505090806003015f9054906101000a900460ff16905084565b60015f8281526020019081526020015f206003015f9054906101000a900460ff16156105a6576040517f08c379a000000000000000000000000000000000000000000000000000000000815260040161059d90610e4e565b60405180910390fd5b6001805f8381526020019081526020015f206003015f6101000a81548160ff02191690831515021790555050565b6105dc610754565b60405180608001604052808481526020018381526020018281526020015f151581525060015f60025481526020019081526020015f205f820151815f0190816106259190611009565b50602082015181600101908161063b9190611009565b5060408201518160020190816106519190611009565b506060820151816003015f6101000a81548160ff02191690831515021790555090505060025f81548092919061068690611105565b9190505550505050565b60025481565b61069e610754565b6106a75f6107db565b565b5f805f9054906101000a900473ffffffffffffffffffffffffffffffffffffffff16905090565b6106d8610754565b5f73ffffffffffffffffffffffffffffffffffffffff168173ffffffffffffffffffffffffffffffffffffffff1603610748575f6040517f1e4fbdf700000000000000000000000000000000000000000000000000000000815260040161073f9190610d39565b60405180910390fd5b610751816107db565b50565b61075c61089c565b73ffffffffffffffffffffffffffffffffffffffff1661077a6106a9565b73ffffffffffffffffffffffffffffffffffffffff16146107d95761079d61089c565b6040517f118cdaa70000000000000000000000000000000000000000000000000000000081526004016107d09190610d39565b60405180910390fd5b565b5f805f9054906101000a900473ffffffffffffffffffffffffffffffffffffffff169050815f806101000a81548173ffffffffffffffffffffffffffffffffffffffff021916908373ffffffffffffffffffffffffffffffffffffffff1602179055508173ffffffffffffffffffffffffffffffffffffffff168173ffffffffffffffffffffffffffffffffffffffff167f8be0079c531659141344cd1fd0a4f28419497f9722a3daafe3b4186f6b6457e060405160405180910390a35050565b5f33905090565b60405180608001604052806060815260200160608152602001606081526020015f151581525090565b5f604051905090565b5f80fd5b5f80fd5b5f819050919050565b6108ef816108dd565b81146108f9575f80fd5b50565b5f8135905061090a816108e6565b92915050565b5f60208284031215610925576109246108d5565b5b5f610932848285016108fc565b91505092915050565b5f81519050919050565b5f82825260208201905092915050565b8281835e5f83830152505050565b5f601f19601f8301169050919050565b5f61097d8261093b565b6109878185610945565b9350610997818560208601610955565b6109a081610963565b840191505092915050565b5f8115159050919050565b6109bf816109ab565b82525050565b5f608083015f8301518482035f8601526109df8282610973565b915050602083015184820360208601526109f98282610973565b91505060408301518482036040860152610a138282610973565b9150506060830151610a2860608601826109b6565b508091505092915050565b5f6020820190508181035f830152610a4b81846109c5565b905092915050565b5f82825260208201905092915050565b5f610a6d8261093b565b610a778185610a53565b9350610a87818560208601610955565b610a9081610963565b840191505092915050565b610aa4816109ab565b82525050565b5f6080820190508181035f830152610ac28187610a63565b90508181036020830152610ad68186610a63565b90508181036040830152610aea8185610a63565b9050610af96060830184610a9b565b95945050505050565b5f80fd5b5f80fd5b7f4e487b71000000000000000000000000000000000000000000000000000000005f52604160045260245ffd5b610b4082610963565b810181811067ffffffffffffffff82111715610b5f57610b5e610b0a565b5b80604052505050565b5f610b716108cc565b9050610b7d8282610b37565b919050565b5f67ffffffffffffffff821115610b9c57610b9b610b0a565b5b610ba582610963565b9050602081019050919050565b828183375f83830152505050565b5f610bd2610bcd84610b82565b610b68565b905082815260208101848484011115610bee57610bed610b06565b5b610bf9848285610bb2565b509392505050565b5f82601f830112610c1557610c14610b02565b5b8135610c25848260208601610bc0565b91505092915050565b5f805f60608486031215610c4557610c446108d5565b5b5f84013567ffffffffffffffff811115610c6257610c616108d9565b5b610c6e86828701610c01565b935050602084013567ffffffffffffffff811115610c8f57610c8e6108d9565b5b610c9b86828701610c01565b925050604084013567ffffffffffffffff811115610cbc57610cbb6108d9565b5b610cc886828701610c01565b9150509250925092565b610cdb816108dd565b82525050565b5f602082019050610cf45f830184610cd2565b92915050565b5f73ffffffffffffffffffffffffffffffffffffffff82169050919050565b5f610d2382610cfa565b9050919050565b610d3381610d19565b82525050565b5f602082019050610d4c5f830184610d2a565b92915050565b610d5b81610d19565b8114610d65575f80fd5b50565b5f81359050610d7681610d52565b92915050565b5f60208284031215610d9157610d906108d5565b5b5f610d9e84828501610d68565b91505092915050565b7f4e487b71000000000000000000000000000000000000000000000000000000005f52602260045260245ffd5b5f6002820490506001821680610deb57607f821691505b602082108103610dfe57610dfd610da7565b5b50919050565b7f416c72656164792072656465656d6564000000000000000000000000000000005f82015250565b5f610e38601083610a53565b9150610e4382610e04565b602082019050919050565b5f6020820190508181035f830152610e6581610e2c565b9050919050565b5f819050815f5260205f209050919050565b5f6020601f8301049050919050565b5f82821b905092915050565b5f60088302610ec87fffffffffffffffffffffffffffffffffffffffffffffffffffffffffffffffff82610e8d565b610ed28683610e8d565b95508019841693508086168417925050509392505050565b5f819050919050565b5f610f0d610f08610f03846108dd565b610eea565b6108dd565b9050919050565b5f819050919050565b610f2683610ef3565b610f3a610f3282610f14565b848454610e99565b825550505050565b5f90565b610f4e610f42565b610f59818484610f1d565b505050565b5b81811015610f7c57610f715f82610f46565b600181019050610f5f565b5050565b601f821115610fc157610f9281610e6c565b610f9b84610e7e565b81016020851015610faa578190505b610fbe610fb685610e7e565b830182610f5e565b50505b505050565b5f82821c905092915050565b5f610fe15f1984600802610fc6565b1980831691505092915050565b5f610ff98383610fd2565b9150826002028217905092915050565b6110128261093b565b67ffffffffffffffff81111561102b5761102a610b0a565b5b6110358254610dd4565b611040828285610f80565b5f60209050601f831160018114611071575f841561105f578287015190505b6110698582610fee565b8655506110d0565b601f19841661107f86610e6c565b5f5b828110156110a657848901518255600182019150602085019450602081019050611081565b868310156110c357848901516110bf601f891682610fd2565b8355505b6001600288020188555050505b505050505050565b7f4e487b71000000000000000000000000000000000000000000000000000000005f52601160045260245ffd5b5f61110f826108dd565b91507fffffffffffffffffffffffffffffffffffffffffffffffffffffffffffffffff8203611141576111406110d8565b5b60018201905091905056fea2646970667358221220b21e637fb1e784c6570a6c91c16919a82e1525c58a4b1efe44f45a8a0cfff2b664736f6c634300081a0033",
					"opcodes": "PUSH1 0x80 PUSH1 0x40 MSTORE CALLVALUE DUP1 ISZERO PUSH2 0xF JUMPI PUSH0 DUP1 REVERT JUMPDEST POP PUSH1 0x40 MLOAD PUSH2 0x13B9 CODESIZE SUB DUP1 PUSH2 0x13B9 DUP4 CODECOPY DUP2 DUP2 ADD PUSH1 0x40 MSTORE DUP2 ADD SWAP1 PUSH2 0x31 SWAP2 SWAP1 PUSH2 0x1D7 JUMP JUMPDEST DUP1 PUSH0 PUSH20 0xFFFFFFFFFFFFFFFFFFFFFFFFFFFFFFFFFFFFFFFF AND DUP2 PUSH20 0xFFFFFFFFFFFFFFFFFFFFFFFFFFFFFFFFFFFFFFFF AND SUB PUSH2 0xA2 JUMPI PUSH0 PUSH1 0x40 MLOAD PUSH32 0x1E4FBDF700000000000000000000000000000000000000000000000000000000 DUP2 MSTORE PUSH1 0x4 ADD PUSH2 0x99 SWAP2 SWAP1 PUSH2 0x211 JUMP JUMPDEST PUSH1 0x40 MLOAD DUP1 SWAP2 SUB SWAP1 REVERT JUMPDEST PUSH2 0xB1 DUP2 PUSH2 0xB8 PUSH1 0x20 SHL PUSH1 0x20 SHR JUMP JUMPDEST POP POP PUSH2 0x22A JUMP JUMPDEST PUSH0 DUP1 PUSH0 SWAP1 SLOAD SWAP1 PUSH2 0x100 EXP SWAP1 DIV PUSH20 0xFFFFFFFFFFFFFFFFFFFFFFFFFFFFFFFFFFFFFFFF AND SWAP1 POP DUP2 PUSH0 DUP1 PUSH2 0x100 EXP DUP2 SLOAD DUP2 PUSH20 0xFFFFFFFFFFFFFFFFFFFFFFFFFFFFFFFFFFFFFFFF MUL NOT AND SWAP1 DUP4 PUSH20 0xFFFFFFFFFFFFFFFFFFFFFFFFFFFFFFFFFFFFFFFF AND MUL OR SWAP1 SSTORE POP DUP2 PUSH20 0xFFFFFFFFFFFFFFFFFFFFFFFFFFFFFFFFFFFFFFFF AND DUP2 PUSH20 0xFFFFFFFFFFFFFFFFFFFFFFFFFFFFFFFFFFFFFFFF AND PUSH32 0x8BE0079C531659141344CD1FD0A4F28419497F9722A3DAAFE3B4186F6B6457E0 PUSH1 0x40 MLOAD PUSH1 0x40 MLOAD DUP1 SWAP2 SUB SWAP1 LOG3 POP POP JUMP JUMPDEST PUSH0 DUP1 REVERT JUMPDEST PUSH0 PUSH20 0xFFFFFFFFFFFFFFFFFFFFFFFFFFFFFFFFFFFFFFFF DUP3 AND SWAP1 POP SWAP2 SWAP1 POP JUMP JUMPDEST PUSH0 PUSH2 0x1A6 DUP3 PUSH2 0x17D JUMP JUMPDEST SWAP1 POP SWAP2 SWAP1 POP JUMP JUMPDEST PUSH2 0x1B6 DUP2 PUSH2 0x19C JUMP JUMPDEST DUP2 EQ PUSH2 0x1C0 JUMPI PUSH0 DUP1 REVERT JUMPDEST POP JUMP JUMPDEST PUSH0 DUP2 MLOAD SWAP1 POP PUSH2 0x1D1 DUP2 PUSH2 0x1AD JUMP JUMPDEST SWAP3 SWAP2 POP POP JUMP JUMPDEST PUSH0 PUSH1 0x20 DUP3 DUP5 SUB SLT ISZERO PUSH2 0x1EC JUMPI PUSH2 0x1EB PUSH2 0x179 JUMP JUMPDEST JUMPDEST PUSH0 PUSH2 0x1F9 DUP5 DUP3 DUP6 ADD PUSH2 0x1C3 JUMP JUMPDEST SWAP2 POP POP SWAP3 SWAP2 POP POP JUMP JUMPDEST PUSH2 0x20B DUP2 PUSH2 0x19C JUMP JUMPDEST DUP3 MSTORE POP POP JUMP JUMPDEST PUSH0 PUSH1 0x20 DUP3 ADD SWAP1 POP PUSH2 0x224 PUSH0 DUP4 ADD DUP5 PUSH2 0x202 JUMP JUMPDEST SWAP3 SWAP2 POP POP JUMP JUMPDEST PUSH2 0x1182 DUP1 PUSH2 0x237 PUSH0 CODECOPY PUSH0 RETURN INVALID PUSH1 0x80 PUSH1 0x40 MSTORE CALLVALUE DUP1 ISZERO PUSH2 0xF JUMPI PUSH0 DUP1 REVERT JUMPDEST POP PUSH1 0x4 CALLDATASIZE LT PUSH2 0x86 JUMPI PUSH0 CALLDATALOAD PUSH1 0xE0 SHR DUP1 PUSH4 0x61B8CE8C GT PUSH2 0x59 JUMPI DUP1 PUSH4 0x61B8CE8C EQ PUSH2 0x125 JUMPI DUP1 PUSH4 0x715018A6 EQ PUSH2 0x143 JUMPI DUP1 PUSH4 0x8DA5CB5B EQ PUSH2 0x14D JUMPI DUP1 PUSH4 0xF2FDE38B EQ PUSH2 0x16B JUMPI PUSH2 0x86 JUMP JUMPDEST DUP1 PUSH4 0x1C4B774B EQ PUSH2 0x8A JUMPI DUP1 PUSH4 0x30828E92 EQ PUSH2 0xBA JUMPI DUP1 PUSH4 0x51A71B17 EQ PUSH2 0xED JUMPI DUP1 PUSH4 0x5216EE3C EQ PUSH2 0x109 JUMPI JUMPDEST PUSH0 DUP1 REVERT JUMPDEST PUSH2 0xA4 PUSH1 0x4 DUP1 CALLDATASIZE SUB DUP2 ADD SWAP1 PUSH2 0x9F SWAP2 SWAP1 PUSH2 0x910 JUMP JUMPDEST PUSH2 0x187 JUMP JUMPDEST PUSH1 0x40 MLOAD PUSH2 0xB1 SWAP2 SWAP1 PUSH2 0xA33 JUMP JUMPDEST PUSH1 0x40 MLOAD DUP1 SWAP2 SUB SWAP1 RETURN JUMPDEST PUSH2 0xD4 PUSH1 0x4 DUP1 CALLDATASIZE SUB DUP2 ADD SWAP1 PUSH2 0xCF SWAP2 SWAP1 PUSH2 0x910 JUMP JUMPDEST PUSH2 0x37B JUMP JUMPDEST PUSH1 0x40 MLOAD PUSH2 0xE4 SWAP5 SWAP4 SWAP3 SWAP2 SWAP1 PUSH2 0xAAA JUMP JUMPDEST PUSH1 0x40 MLOAD DUP1 SWAP2 SUB SWAP1 RETURN JUMPDEST PUSH2 0x107 PUSH1 0x4 DUP1 CALLDATASIZE SUB DUP2 ADD SWAP1 PUSH2 0x102 SWAP2 SWAP1 PUSH2 0x910 JUMP JUMPDEST PUSH2 0x545 JUMP JUMPDEST STOP JUMPDEST PUSH2 0x123 PUSH1 0x4 DUP1 CALLDATASIZE SUB DUP2 ADD SWAP1 PUSH2 0x11E SWAP2 SWAP1 PUSH2 0xC2E JUMP JUMPDEST PUSH2 0x5D4 JUMP JUMPDEST STOP JUMPDEST PUSH2 0x12D PUSH2 0x690 JUMP JUMPDEST PUSH1 0x40 MLOAD PUSH2 0x13A SWAP2 SWAP1 PUSH2 0xCE1 JUMP JUMPDEST PUSH1 0x40 MLOAD DUP1 SWAP2 SUB SWAP1 RETURN JUMPDEST PUSH2 0x14B PUSH2 0x696 JUMP JUMPDEST STOP JUMPDEST PUSH2 0x155 PUSH2 0x6A9 JUMP JUMPDEST PUSH1 0x40 MLOAD PUSH2 0x162 SWAP2 SWAP1 PUSH2 0xD39 JUMP JUMPDEST PUSH1 0x40 MLOAD DUP1 SWAP2 SUB SWAP1 RETURN JUMPDEST PUSH2 0x185 PUSH1 0x4 DUP1 CALLDATASIZE SUB DUP2 ADD SWAP1 PUSH2 0x180 SWAP2 SWAP1 PUSH2 0xD7C JUMP JUMPDEST PUSH2 0x6D0 JUMP JUMPDEST STOP JUMPDEST PUSH2 0x18F PUSH2 0x8A3 JUMP JUMPDEST PUSH1 0x1 PUSH0 DUP4 DUP2 MSTORE PUSH1 0x20 ADD SWAP1 DUP2 MSTORE PUSH1 0x20 ADD PUSH0 KECCAK256 PUSH1 0x40 MLOAD DUP1 PUSH1 0x80 ADD PUSH1 0x40 MSTORE SWAP1 DUP2 PUSH0 DUP3 ADD DUP1 SLOAD PUSH2 0x1BA SWAP1 PUSH2 0xDD4 JUMP JUMPDEST DUP1 PUSH1 0x1F ADD PUSH1 0x20 DUP1 SWAP2 DIV MUL PUSH1 0x20 ADD PUSH1 0x40 MLOAD SWAP1 DUP2 ADD PUSH1 0x40 MSTORE DUP1 SWAP3 SWAP2 SWAP1 DUP2 DUP2 MSTORE PUSH1 0x20 ADD DUP3 DUP1 SLOAD PUSH2 0x1E6 SWAP1 PUSH2 0xDD4 JUMP JUMPDEST DUP1 ISZERO PUSH2 0x231 JUMPI DUP1 PUSH1 0x1F LT PUSH2 0x208 JUMPI PUSH2 0x100 DUP1 DUP4 SLOAD DIV MUL DUP4 MSTORE SWAP2 PUSH1 0x20 ADD SWAP2 PUSH2 0x231 JUMP JUMPDEST DUP3 ADD SWAP2 SWAP1 PUSH0 MSTORE PUSH1 0x20 PUSH0 KECCAK256 SWAP1 JUMPDEST DUP2 SLOAD DUP2 MSTORE SWAP1 PUSH1 0x1 ADD SWAP1 PUSH1 0x20 ADD DUP1 DUP4 GT PUSH2 0x214 JUMPI DUP3 SWAP1 SUB PUSH1 0x1F AND DUP3 ADD SWAP2 JUMPDEST POP POP POP POP POP DUP2 MSTORE PUSH1 0x20 ADD PUSH1 0x1 DUP3 ADD DUP1 SLOAD PUSH2 0x24A SWAP1 PUSH2 0xDD4 JUMP JUMPDEST DUP1 PUSH1 0x1F ADD PUSH1 0x20 DUP1 SWAP2 DIV MUL PUSH1 0x20 ADD PUSH1 0x40 MLOAD SWAP1 DUP2 ADD PUSH1 0x40 MSTORE DUP1 SWAP3 SWAP2 SWAP1 DUP2 DUP2 MSTORE PUSH1 0x20 ADD DUP3 DUP1 SLOAD PUSH2 0x276 SWAP1 PUSH2 0xDD4 JUMP JUMPDEST DUP1 ISZERO PUSH2 0x2C1 JUMPI DUP1 PUSH1 0x1F LT PUSH2 0x298 JUMPI PUSH2 0x100 DUP1 DUP4 SLOAD DIV MUL DUP4 MSTORE SWAP2 PUSH1 0x20 ADD SWAP2 PUSH2 0x2C1 JUMP JUMPDEST DUP3 ADD SWAP2 SWAP1 PUSH0 MSTORE PUSH1 0x20 PUSH0 KECCAK256 SWAP1 JUMPDEST DUP2 SLOAD DUP2 MSTORE SWAP1 PUSH1 0x1 ADD SWAP1 PUSH1 0x20 ADD DUP1 DUP4 GT PUSH2 0x2A4 JUMPI DUP3 SWAP1 SUB PUSH1 0x1F AND DUP3 ADD SWAP2 JUMPDEST POP POP POP POP POP DUP2 MSTORE PUSH1 0x20 ADD PUSH1 0x2 DUP3 ADD DUP1 SLOAD PUSH2 0x2DA SWAP1 PUSH2 0xDD4 JUMP JUMPDEST DUP1 PUSH1 0x1F ADD PUSH1 0x20 DUP1 SWAP2 DIV MUL PUSH1 0x20 ADD PUSH1 0x40 MLOAD SWAP1 DUP2 ADD PUSH1 0x40 MSTORE DUP1 SWAP3 SWAP2 SWAP1 DUP2 DUP2 MSTORE PUSH1 0x20 ADD DUP3 DUP1 SLOAD PUSH2 0x306 SWAP1 PUSH2 0xDD4 JUMP JUMPDEST DUP1 ISZERO PUSH2 0x351 JUMPI DUP1 PUSH1 0x1F LT PUSH2 0x328 JUMPI PUSH2 0x100 DUP1 DUP4 SLOAD DIV MUL DUP4 MSTORE SWAP2 PUSH1 0x20 ADD SWAP2 PUSH2 0x351 JUMP JUMPDEST DUP3 ADD SWAP2 SWAP1 PUSH0 MSTORE PUSH1 0x20 PUSH0 KECCAK256 SWAP1 JUMPDEST DUP2 SLOAD DUP2 MSTORE SWAP1 PUSH1 0x1 ADD SWAP1 PUSH1 0x20 ADD DUP1 DUP4 GT PUSH2 0x334 JUMPI DUP3 SWAP1 SUB PUSH1 0x1F AND DUP3 ADD SWAP2 JUMPDEST POP POP POP POP POP DUP2 MSTORE PUSH1 0x20 ADD PUSH1 0x3 DUP3 ADD PUSH0 SWAP1 SLOAD SWAP1 PUSH2 0x100 EXP SWAP1 DIV PUSH1 0xFF AND ISZERO ISZERO ISZERO ISZERO DUP2 MSTORE POP POP SWAP1 POP SWAP2 SWAP1 POP JUMP JUMPDEST PUSH1 0x1 PUSH1 0x20 MSTORE DUP1 PUSH0 MSTORE PUSH1 0x40 PUSH0 KECCAK256 PUSH0 SWAP2 POP SWAP1 POP DUP1 PUSH0 ADD DUP1 SLOAD PUSH2 0x39A SWAP1 PUSH2 0xDD4 JUMP JUMPDEST DUP1 PUSH1 0x1F ADD PUSH1 0x20 DUP1 SWAP2 DIV MUL PUSH1 0x20 ADD PUSH1 0x40 MLOAD SWAP1 DUP2 ADD PUSH1 0x40 MSTORE DUP1 SWAP3 SWAP2 SWAP1 DUP2 DUP2 MSTORE PUSH1 0x20 ADD DUP3 DUP1 SLOAD PUSH2 0x3C6 SWAP1 PUSH2 0xDD4 JUMP JUMPDEST DUP1 ISZERO PUSH2 0x411 JUMPI DUP1 PUSH1 0x1F LT PUSH2 0x3E8 JUMPI PUSH2 0x100 DUP1 DUP4 SLOAD DIV MUL DUP4 MSTORE SWAP2 PUSH1 0x20 ADD SWAP2 PUSH2 0x411 JUMP JUMPDEST DUP3 ADD SWAP2 SWAP1 PUSH0 MSTORE PUSH1 0x20 PUSH0 KECCAK256 SWAP1 JUMPDEST DUP2 SLOAD DUP2 MSTORE SWAP1 PUSH1 0x1 ADD SWAP1 PUSH1 0x20 ADD DUP1 DUP4 GT PUSH2 0x3F4 JUMPI DUP3 SWAP1 SUB PUSH1 0x1F AND DUP3 ADD SWAP2 JUMPDEST POP POP POP POP POP SWAP1 DUP1 PUSH1 0x1 ADD DUP1 SLOAD PUSH2 0x426 SWAP1 PUSH2 0xDD4 JUMP JUMPDEST DUP1 PUSH1 0x1F ADD PUSH1 0x20 DUP1 SWAP2 DIV MUL PUSH1 0x20 ADD PUSH1 0x40 MLOAD SWAP1 DUP2 ADD PUSH1 0x40 MSTORE DUP1 SWAP3 SWAP2 SWAP1 DUP2 DUP2 MSTORE PUSH1 0x20 ADD DUP3 DUP1 SLOAD PUSH2 0x452 SWAP1 PUSH2 0xDD4 JUMP JUMPDEST DUP1 ISZERO PUSH2 0x49D JUMPI DUP1 PUSH1 0x1F LT PUSH2 0x474 JUMPI PUSH2 0x100 DUP1 DUP4 SLOAD DIV MUL DUP4 MSTORE SWAP2 PUSH1 0x20 ADD SWAP2 PUSH2 0x49D JUMP JUMPDEST DUP3 ADD SWAP2 SWAP1 PUSH0 MSTORE PUSH1 0x20 PUSH0 KECCAK256 SWAP1 JUMPDEST DUP2 SLOAD DUP2 MSTORE SWAP1 PUSH1 0x1 ADD SWAP1 PUSH1 0x20 ADD DUP1 DUP4 GT PUSH2 0x480 JUMPI DUP3 SWAP1 SUB PUSH1 0x1F AND DUP3 ADD SWAP2 JUMPDEST POP POP POP POP POP SWAP1 DUP1 PUSH1 0x2 ADD DUP1 SLOAD PUSH2 0x4B2 SWAP1 PUSH2 0xDD4 JUMP JUMPDEST DUP1 PUSH1 0x1F ADD PUSH1 0x20 DUP1 SWAP2 DIV MUL PUSH1 0x20 ADD PUSH1 0x40 MLOAD SWAP1 DUP2 ADD PUSH1 0x40 MSTORE DUP1 SWAP3 SWAP2 SWAP1 DUP2 DUP2 MSTORE PUSH1 0x20 ADD DUP3 DUP1 SLOAD PUSH2 0x4DE SWAP1 PUSH2 0xDD4 JUMP JUMPDEST DUP1 ISZERO PUSH2 0x529 JUMPI DUP1 PUSH1 0x1F LT PUSH2 0x500 JUMPI PUSH2 0x100 DUP1 DUP4 SLOAD DIV MUL DUP4 MSTORE SWAP2 PUSH1 0x20 ADD SWAP2 PUSH2 0x529 JUMP JUMPDEST DUP3 ADD SWAP2 SWAP1 PUSH0 MSTORE PUSH1 0x20 PUSH0 KECCAK256 SWAP1 JUMPDEST DUP2 SLOAD DUP2 MSTORE SWAP1 PUSH1 0x1 ADD SWAP1 PUSH1 0x20 ADD DUP1 DUP4 GT PUSH2 0x50C JUMPI DUP3 SWAP1 SUB PUSH1 0x1F AND DUP3 ADD SWAP2 JUMPDEST POP POP POP POP POP SWAP1 DUP1 PUSH1 0x3 ADD PUSH0 SWAP1 SLOAD SWAP1 PUSH2 0x100 EXP SWAP1 DIV PUSH1 0xFF AND SWAP1 POP DUP5 JUMP JUMPDEST PUSH1 0x1 PUSH0 DUP3 DUP2 MSTORE PUSH1 0x20 ADD SWAP1 DUP2 MSTORE PUSH1 0x20 ADD PUSH0 KECCAK256 PUSH1 0x3 ADD PUSH0 SWAP1 SLOAD SWAP1 PUSH2 0x100 EXP SWAP1 DIV PUSH1 0xFF AND ISZERO PUSH2 0x5A6 JUMPI PUSH1 0x40 MLOAD PUSH32 0x8C379A000000000000000000000000000000000000000000000000000000000 DUP2 MSTORE PUSH1 0x4 ADD PUSH2 0x59D SWAP1 PUSH2 0xE4E JUMP JUMPDEST PUSH1 0x40 MLOAD DUP1 SWAP2 SUB SWAP1 REVERT JUMPDEST PUSH1 0x1 DUP1 PUSH0 DUP4 DUP2 MSTORE PUSH1 0x20 ADD SWAP1 DUP2 MSTORE PUSH1 0x20 ADD PUSH0 KECCAK256 PUSH1 0x3 ADD PUSH0 PUSH2 0x100 EXP DUP2 SLOAD DUP2 PUSH1 0xFF MUL NOT AND SWAP1 DUP4 ISZERO ISZERO MUL OR SWAP1 SSTORE POP POP JUMP JUMPDEST PUSH2 0x5DC PUSH2 0x754 JUMP JUMPDEST PUSH1 0x40 MLOAD DUP1 PUSH1 0x80 ADD PUSH1 0x40 MSTORE DUP1 DUP5 DUP2 MSTORE PUSH1 0x20 ADD DUP4 DUP2 MSTORE PUSH1 0x20 ADD DUP3 DUP2 MSTORE PUSH1 0x20 ADD PUSH0 ISZERO ISZERO DUP2 MSTORE POP PUSH1 0x1 PUSH0 PUSH1 0x2 SLOAD DUP2 MSTORE PUSH1 0x20 ADD SWAP1 DUP2 MSTORE PUSH1 0x20 ADD PUSH0 KECCAK256 PUSH0 DUP3 ADD MLOAD DUP2 PUSH0 ADD SWAP1 DUP2 PUSH2 0x625 SWAP2 SWAP1 PUSH2 0x1009 JUMP JUMPDEST POP PUSH1 0x20 DUP3 ADD MLOAD DUP2 PUSH1 0x1 ADD SWAP1 DUP2 PUSH2 0x63B SWAP2 SWAP1 PUSH2 0x1009 JUMP JUMPDEST POP PUSH1 0x40 DUP3 ADD MLOAD DUP2 PUSH1 0x2 ADD SWAP1 DUP2 PUSH2 0x651 SWAP2 SWAP1 PUSH2 0x1009 JUMP JUMPDEST POP PUSH1 0x60 DUP3 ADD MLOAD DUP2 PUSH1 0x3 ADD PUSH0 PUSH2 0x100 EXP DUP2 SLOAD DUP2 PUSH1 0xFF MUL NOT AND SWAP1 DUP4 ISZERO ISZERO MUL OR SWAP1 SSTORE POP SWAP1 POP POP PUSH1 0x2 PUSH0 DUP2 SLOAD DUP1 SWAP3 SWAP2 SWAP1 PUSH2 0x686 SWAP1 PUSH2 0x1105 JUMP JUMPDEST SWAP2 SWAP1 POP SSTORE POP POP POP POP JUMP JUMPDEST PUSH1 0x2 SLOAD DUP2 JUMP JUMPDEST PUSH2 0x69E PUSH2 0x754 JUMP JUMPDEST PUSH2 0x6A7 PUSH0 PUSH2 0x7DB JUMP JUMPDEST JUMP JUMPDEST PUSH0 DUP1 PUSH0 SWAP1 SLOAD SWAP1 PUSH2 0x100 EXP SWAP1 DIV PUSH20 0xFFFFFFFFFFFFFFFFFFFFFFFFFFFFFFFFFFFFFFFF AND SWAP1 POP SWAP1 JUMP JUMPDEST PUSH2 0x6D8 PUSH2 0x754 JUMP JUMPDEST PUSH0 PUSH20 0xFFFFFFFFFFFFFFFFFFFFFFFFFFFFFFFFFFFFFFFF AND DUP2 PUSH20 0xFFFFFFFFFFFFFFFFFFFFFFFFFFFFFFFFFFFFFFFF AND SUB PUSH2 0x748 JUMPI PUSH0 PUSH1 0x40 MLOAD PUSH32 0x1E4FBDF700000000000000000000000000000000000000000000000000000000 DUP2 MSTORE PUSH1 0x4 ADD PUSH2 0x73F SWAP2 SWAP1 PUSH2 0xD39 JUMP JUMPDEST PUSH1 0x40 MLOAD DUP1 SWAP2 SUB SWAP1 REVERT JUMPDEST PUSH2 0x751 DUP2 PUSH2 0x7DB JUMP JUMPDEST POP JUMP JUMPDEST PUSH2 0x75C PUSH2 0x89C JUMP JUMPDEST PUSH20 0xFFFFFFFFFFFFFFFFFFFFFFFFFFFFFFFFFFFFFFFF AND PUSH2 0x77A PUSH2 0x6A9 JUMP JUMPDEST PUSH20 0xFFFFFFFFFFFFFFFFFFFFFFFFFFFFFFFFFFFFFFFF AND EQ PUSH2 0x7D9 JUMPI PUSH2 0x79D PUSH2 0x89C JUMP JUMPDEST PUSH1 0x40 MLOAD PUSH32 0x118CDAA700000000000000000000000000000000000000000000000000000000 DUP2 MSTORE PUSH1 0x4 ADD PUSH2 0x7D0 SWAP2 SWAP1 PUSH2 0xD39 JUMP JUMPDEST PUSH1 0x40 MLOAD DUP1 SWAP2 SUB SWAP1 REVERT JUMPDEST JUMP JUMPDEST PUSH0 DUP1 PUSH0 SWAP1 SLOAD SWAP1 PUSH2 0x100 EXP SWAP1 DIV PUSH20 0xFFFFFFFFFFFFFFFFFFFFFFFFFFFFFFFFFFFFFFFF AND SWAP1 POP DUP2 PUSH0 DUP1 PUSH2 0x100 EXP DUP2 SLOAD DUP2 PUSH20 0xFFFFFFFFFFFFFFFFFFFFFFFFFFFFFFFFFFFFFFFF MUL NOT AND SWAP1 DUP4 PUSH20 0xFFFFFFFFFFFFFFFFFFFFFFFFFFFFFFFFFFFFFFFF AND MUL OR SWAP1 SSTORE POP DUP2 PUSH20 0xFFFFFFFFFFFFFFFFFFFFFFFFFFFFFFFFFFFFFFFF AND DUP2 PUSH20 0xFFFFFFFFFFFFFFFFFFFFFFFFFFFFFFFFFFFFFFFF AND PUSH32 0x8BE0079C531659141344CD1FD0A4F28419497F9722A3DAAFE3B4186F6B6457E0 PUSH1 0x40 MLOAD PUSH1 0x40 MLOAD DUP1 SWAP2 SUB SWAP1 LOG3 POP POP JUMP JUMPDEST PUSH0 CALLER SWAP1 POP SWAP1 JUMP JUMPDEST PUSH1 0x40 MLOAD DUP1 PUSH1 0x80 ADD PUSH1 0x40 MSTORE DUP1 PUSH1 0x60 DUP2 MSTORE PUSH1 0x20 ADD PUSH1 0x60 DUP2 MSTORE PUSH1 0x20 ADD PUSH1 0x60 DUP2 MSTORE PUSH1 0x20 ADD PUSH0 ISZERO ISZERO DUP2 MSTORE POP SWAP1 JUMP JUMPDEST PUSH0 PUSH1 0x40 MLOAD SWAP1 POP SWAP1 JUMP JUMPDEST PUSH0 DUP1 REVERT JUMPDEST PUSH0 DUP1 REVERT JUMPDEST PUSH0 DUP2 SWAP1 POP SWAP2 SWAP1 POP JUMP JUMPDEST PUSH2 0x8EF DUP2 PUSH2 0x8DD JUMP JUMPDEST DUP2 EQ PUSH2 0x8F9 JUMPI PUSH0 DUP1 REVERT JUMPDEST POP JUMP JUMPDEST PUSH0 DUP2 CALLDATALOAD SWAP1 POP PUSH2 0x90A DUP2 PUSH2 0x8E6 JUMP JUMPDEST SWAP3 SWAP2 POP POP JUMP JUMPDEST PUSH0 PUSH1 0x20 DUP3 DUP5 SUB SLT ISZERO PUSH2 0x925 JUMPI PUSH2 0x924 PUSH2 0x8D5 JUMP JUMPDEST JUMPDEST PUSH0 PUSH2 0x932 DUP5 DUP3 DUP6 ADD PUSH2 0x8FC JUMP JUMPDEST SWAP2 POP POP SWAP3 SWAP2 POP POP JUMP JUMPDEST PUSH0 DUP2 MLOAD SWAP1 POP SWAP2 SWAP1 POP JUMP JUMPDEST PUSH0 DUP3 DUP3 MSTORE PUSH1 0x20 DUP3 ADD SWAP1 POP SWAP3 SWAP2 POP POP JUMP JUMPDEST DUP3 DUP2 DUP4 MCOPY PUSH0 DUP4 DUP4 ADD MSTORE POP POP POP JUMP JUMPDEST PUSH0 PUSH1 0x1F NOT PUSH1 0x1F DUP4 ADD AND SWAP1 POP SWAP2 SWAP1 POP JUMP JUMPDEST PUSH0 PUSH2 0x97D DUP3 PUSH2 0x93B JUMP JUMPDEST PUSH2 0x987 DUP2 DUP6 PUSH2 0x945 JUMP JUMPDEST SWAP4 POP PUSH2 0x997 DUP2 DUP6 PUSH1 0x20 DUP7 ADD PUSH2 0x955 JUMP JUMPDEST PUSH2 0x9A0 DUP2 PUSH2 0x963 JUMP JUMPDEST DUP5 ADD SWAP2 POP POP SWAP3 SWAP2 POP POP JUMP JUMPDEST PUSH0 DUP2 ISZERO ISZERO SWAP1 POP SWAP2 SWAP1 POP JUMP JUMPDEST PUSH2 0x9BF DUP2 PUSH2 0x9AB JUMP JUMPDEST DUP3 MSTORE POP POP JUMP JUMPDEST PUSH0 PUSH1 0x80 DUP4 ADD PUSH0 DUP4 ADD MLOAD DUP5 DUP3 SUB PUSH0 DUP7 ADD MSTORE PUSH2 0x9DF DUP3 DUP3 PUSH2 0x973 JUMP JUMPDEST SWAP2 POP POP PUSH1 0x20 DUP4 ADD MLOAD DUP5 DUP3 SUB PUSH1 0x20 DUP7 ADD MSTORE PUSH2 0x9F9 DUP3 DUP3 PUSH2 0x973 JUMP JUMPDEST SWAP2 POP POP PUSH1 0x40 DUP4 ADD MLOAD DUP5 DUP3 SUB PUSH1 0x40 DUP7 ADD MSTORE PUSH2 0xA13 DUP3 DUP3 PUSH2 0x973 JUMP JUMPDEST SWAP2 POP POP PUSH1 0x60 DUP4 ADD MLOAD PUSH2 0xA28 PUSH1 0x60 DUP7 ADD DUP3 PUSH2 0x9B6 JUMP JUMPDEST POP DUP1 SWAP2 POP POP SWAP3 SWAP2 POP POP JUMP JUMPDEST PUSH0 PUSH1 0x20 DUP3 ADD SWAP1 POP DUP2 DUP2 SUB PUSH0 DUP4 ADD MSTORE PUSH2 0xA4B DUP2 DUP5 PUSH2 0x9C5 JUMP JUMPDEST SWAP1 POP SWAP3 SWAP2 POP POP JUMP JUMPDEST PUSH0 DUP3 DUP3 MSTORE PUSH1 0x20 DUP3 ADD SWAP1 POP SWAP3 SWAP2 POP POP JUMP JUMPDEST PUSH0 PUSH2 0xA6D DUP3 PUSH2 0x93B JUMP JUMPDEST PUSH2 0xA77 DUP2 DUP6 PUSH2 0xA53 JUMP JUMPDEST SWAP4 POP PUSH2 0xA87 DUP2 DUP6 PUSH1 0x20 DUP7 ADD PUSH2 0x955 JUMP JUMPDEST PUSH2 0xA90 DUP2 PUSH2 0x963 JUMP JUMPDEST DUP5 ADD SWAP2 POP POP SWAP3 SWAP2 POP POP JUMP JUMPDEST PUSH2 0xAA4 DUP2 PUSH2 0x9AB JUMP JUMPDEST DUP3 MSTORE POP POP JUMP JUMPDEST PUSH0 PUSH1 0x80 DUP3 ADD SWAP1 POP DUP2 DUP2 SUB PUSH0 DUP4 ADD MSTORE PUSH2 0xAC2 DUP2 DUP8 PUSH2 0xA63 JUMP JUMPDEST SWAP1 POP DUP2 DUP2 SUB PUSH1 0x20 DUP4 ADD MSTORE PUSH2 0xAD6 DUP2 DUP7 PUSH2 0xA63 JUMP JUMPDEST SWAP1 POP DUP2 DUP2 SUB PUSH1 0x40 DUP4 ADD MSTORE PUSH2 0xAEA DUP2 DUP6 PUSH2 0xA63 JUMP JUMPDEST SWAP1 POP PUSH2 0xAF9 PUSH1 0x60 DUP4 ADD DUP5 PUSH2 0xA9B JUMP JUMPDEST SWAP6 SWAP5 POP POP POP POP POP JUMP JUMPDEST PUSH0 DUP1 REVERT JUMPDEST PUSH0 DUP1 REVERT JUMPDEST PUSH32 0x4E487B7100000000000000000000000000000000000000000000000000000000 PUSH0 MSTORE PUSH1 0x41 PUSH1 0x4 MSTORE PUSH1 0x24 PUSH0 REVERT JUMPDEST PUSH2 0xB40 DUP3 PUSH2 0x963 JUMP JUMPDEST DUP2 ADD DUP2 DUP2 LT PUSH8 0xFFFFFFFFFFFFFFFF DUP3 GT OR ISZERO PUSH2 0xB5F JUMPI PUSH2 0xB5E PUSH2 0xB0A JUMP JUMPDEST JUMPDEST DUP1 PUSH1 0x40 MSTORE POP POP POP JUMP JUMPDEST PUSH0 PUSH2 0xB71 PUSH2 0x8CC JUMP JUMPDEST SWAP1 POP PUSH2 0xB7D DUP3 DUP3 PUSH2 0xB37 JUMP JUMPDEST SWAP2 SWAP1 POP JUMP JUMPDEST PUSH0 PUSH8 0xFFFFFFFFFFFFFFFF DUP3 GT ISZERO PUSH2 0xB9C JUMPI PUSH2 0xB9B PUSH2 0xB0A JUMP JUMPDEST JUMPDEST PUSH2 0xBA5 DUP3 PUSH2 0x963 JUMP JUMPDEST SWAP1 POP PUSH1 0x20 DUP2 ADD SWAP1 POP SWAP2 SWAP1 POP JUMP JUMPDEST DUP3 DUP2 DUP4 CALLDATACOPY PUSH0 DUP4 DUP4 ADD MSTORE POP POP POP JUMP JUMPDEST PUSH0 PUSH2 0xBD2 PUSH2 0xBCD DUP5 PUSH2 0xB82 JUMP JUMPDEST PUSH2 0xB68 JUMP JUMPDEST SWAP1 POP DUP3 DUP2 MSTORE PUSH1 0x20 DUP2 ADD DUP5 DUP5 DUP5 ADD GT ISZERO PUSH2 0xBEE JUMPI PUSH2 0xBED PUSH2 0xB06 JUMP JUMPDEST JUMPDEST PUSH2 0xBF9 DUP5 DUP3 DUP6 PUSH2 0xBB2 JUMP JUMPDEST POP SWAP4 SWAP3 POP POP POP JUMP JUMPDEST PUSH0 DUP3 PUSH1 0x1F DUP4 ADD SLT PUSH2 0xC15 JUMPI PUSH2 0xC14 PUSH2 0xB02 JUMP JUMPDEST JUMPDEST DUP2 CALLDATALOAD PUSH2 0xC25 DUP5 DUP3 PUSH1 0x20 DUP7 ADD PUSH2 0xBC0 JUMP JUMPDEST SWAP2 POP POP SWAP3 SWAP2 POP POP JUMP JUMPDEST PUSH0 DUP1 PUSH0 PUSH1 0x60 DUP5 DUP7 SUB SLT ISZERO PUSH2 0xC45 JUMPI PUSH2 0xC44 PUSH2 0x8D5 JUMP JUMPDEST JUMPDEST PUSH0 DUP5 ADD CALLDATALOAD PUSH8 0xFFFFFFFFFFFFFFFF DUP2 GT ISZERO PUSH2 0xC62 JUMPI PUSH2 0xC61 PUSH2 0x8D9 JUMP JUMPDEST JUMPDEST PUSH2 0xC6E DUP7 DUP3 DUP8 ADD PUSH2 0xC01 JUMP JUMPDEST SWAP4 POP POP PUSH1 0x20 DUP5 ADD CALLDATALOAD PUSH8 0xFFFFFFFFFFFFFFFF DUP2 GT ISZERO PUSH2 0xC8F JUMPI PUSH2 0xC8E PUSH2 0x8D9 JUMP JUMPDEST JUMPDEST PUSH2 0xC9B DUP7 DUP3 DUP8 ADD PUSH2 0xC01 JUMP JUMPDEST SWAP3 POP POP PUSH1 0x40 DUP5 ADD CALLDATALOAD PUSH8 0xFFFFFFFFFFFFFFFF DUP2 GT ISZERO PUSH2 0xCBC JUMPI PUSH2 0xCBB PUSH2 0x8D9 JUMP JUMPDEST JUMPDEST PUSH2 0xCC8 DUP7 DUP3 DUP8 ADD PUSH2 0xC01 JUMP JUMPDEST SWAP2 POP POP SWAP3 POP SWAP3 POP SWAP3 JUMP JUMPDEST PUSH2 0xCDB DUP2 PUSH2 0x8DD JUMP JUMPDEST DUP3 MSTORE POP POP JUMP JUMPDEST PUSH0 PUSH1 0x20 DUP3 ADD SWAP1 POP PUSH2 0xCF4 PUSH0 DUP4 ADD DUP5 PUSH2 0xCD2 JUMP JUMPDEST SWAP3 SWAP2 POP POP JUMP JUMPDEST PUSH0 PUSH20 0xFFFFFFFFFFFFFFFFFFFFFFFFFFFFFFFFFFFFFFFF DUP3 AND SWAP1 POP SWAP2 SWAP1 POP JUMP JUMPDEST PUSH0 PUSH2 0xD23 DUP3 PUSH2 0xCFA JUMP JUMPDEST SWAP1 POP SWAP2 SWAP1 POP JUMP JUMPDEST PUSH2 0xD33 DUP2 PUSH2 0xD19 JUMP JUMPDEST DUP3 MSTORE POP POP JUMP JUMPDEST PUSH0 PUSH1 0x20 DUP3 ADD SWAP1 POP PUSH2 0xD4C PUSH0 DUP4 ADD DUP5 PUSH2 0xD2A JUMP JUMPDEST SWAP3 SWAP2 POP POP JUMP JUMPDEST PUSH2 0xD5B DUP2 PUSH2 0xD19 JUMP JUMPDEST DUP2 EQ PUSH2 0xD65 JUMPI PUSH0 DUP1 REVERT JUMPDEST POP JUMP JUMPDEST PUSH0 DUP2 CALLDATALOAD SWAP1 POP PUSH2 0xD76 DUP2 PUSH2 0xD52 JUMP JUMPDEST SWAP3 SWAP2 POP POP JUMP JUMPDEST PUSH0 PUSH1 0x20 DUP3 DUP5 SUB SLT ISZERO PUSH2 0xD91 JUMPI PUSH2 0xD90 PUSH2 0x8D5 JUMP JUMPDEST JUMPDEST PUSH0 PUSH2 0xD9E DUP5 DUP3 DUP6 ADD PUSH2 0xD68 JUMP JUMPDEST SWAP2 POP POP SWAP3 SWAP2 POP POP JUMP JUMPDEST PUSH32 0x4E487B7100000000000000000000000000000000000000000000000000000000 PUSH0 MSTORE PUSH1 0x22 PUSH1 0x4 MSTORE PUSH1 0x24 PUSH0 REVERT JUMPDEST PUSH0 PUSH1 0x2 DUP3 DIV SWAP1 POP PUSH1 0x1 DUP3 AND DUP1 PUSH2 0xDEB JUMPI PUSH1 0x7F DUP3 AND SWAP2 POP JUMPDEST PUSH1 0x20 DUP3 LT DUP2 SUB PUSH2 0xDFE JUMPI PUSH2 0xDFD PUSH2 0xDA7 JUMP JUMPDEST JUMPDEST POP SWAP2 SWAP1 POP JUMP JUMPDEST PUSH32 0x416C72656164792072656465656D656400000000000000000000000000000000 PUSH0 DUP3 ADD MSTORE POP JUMP JUMPDEST PUSH0 PUSH2 0xE38 PUSH1 0x10 DUP4 PUSH2 0xA53 JUMP JUMPDEST SWAP2 POP PUSH2 0xE43 DUP3 PUSH2 0xE04 JUMP JUMPDEST PUSH1 0x20 DUP3 ADD SWAP1 POP SWAP2 SWAP1 POP JUMP JUMPDEST PUSH0 PUSH1 0x20 DUP3 ADD SWAP1 POP DUP2 DUP2 SUB PUSH0 DUP4 ADD MSTORE PUSH2 0xE65 DUP2 PUSH2 0xE2C JUMP JUMPDEST SWAP1 POP SWAP2 SWAP1 POP JUMP JUMPDEST PUSH0 DUP2 SWAP1 POP DUP2 PUSH0 MSTORE PUSH1 0x20 PUSH0 KECCAK256 SWAP1 POP SWAP2 SWAP1 POP JUMP JUMPDEST PUSH0 PUSH1 0x20 PUSH1 0x1F DUP4 ADD DIV SWAP1 POP SWAP2 SWAP1 POP JUMP JUMPDEST PUSH0 DUP3 DUP3 SHL SWAP1 POP SWAP3 SWAP2 POP POP JUMP JUMPDEST PUSH0 PUSH1 0x8 DUP4 MUL PUSH2 0xEC8 PUSH32 0xFFFFFFFFFFFFFFFFFFFFFFFFFFFFFFFFFFFFFFFFFFFFFFFFFFFFFFFFFFFFFFFF DUP3 PUSH2 0xE8D JUMP JUMPDEST PUSH2 0xED2 DUP7 DUP4 PUSH2 0xE8D JUMP JUMPDEST SWAP6 POP DUP1 NOT DUP5 AND SWAP4 POP DUP1 DUP7 AND DUP5 OR SWAP3 POP POP POP SWAP4 SWAP3 POP POP POP JUMP JUMPDEST PUSH0 DUP2 SWAP1 POP SWAP2 SWAP1 POP JUMP JUMPDEST PUSH0 PUSH2 0xF0D PUSH2 0xF08 PUSH2 0xF03 DUP5 PUSH2 0x8DD JUMP JUMPDEST PUSH2 0xEEA JUMP JUMPDEST PUSH2 0x8DD JUMP JUMPDEST SWAP1 POP SWAP2 SWAP1 POP JUMP JUMPDEST PUSH0 DUP2 SWAP1 POP SWAP2 SWAP1 POP JUMP JUMPDEST PUSH2 0xF26 DUP4 PUSH2 0xEF3 JUMP JUMPDEST PUSH2 0xF3A PUSH2 0xF32 DUP3 PUSH2 0xF14 JUMP JUMPDEST DUP5 DUP5 SLOAD PUSH2 0xE99 JUMP JUMPDEST DUP3 SSTORE POP POP POP POP JUMP JUMPDEST PUSH0 SWAP1 JUMP JUMPDEST PUSH2 0xF4E PUSH2 0xF42 JUMP JUMPDEST PUSH2 0xF59 DUP2 DUP5 DUP5 PUSH2 0xF1D JUMP JUMPDEST POP POP POP JUMP JUMPDEST JUMPDEST DUP2 DUP2 LT ISZERO PUSH2 0xF7C JUMPI PUSH2 0xF71 PUSH0 DUP3 PUSH2 0xF46 JUMP JUMPDEST PUSH1 0x1 DUP2 ADD SWAP1 POP PUSH2 0xF5F JUMP JUMPDEST POP POP JUMP JUMPDEST PUSH1 0x1F DUP3 GT ISZERO PUSH2 0xFC1 JUMPI PUSH2 0xF92 DUP2 PUSH2 0xE6C JUMP JUMPDEST PUSH2 0xF9B DUP5 PUSH2 0xE7E JUMP JUMPDEST DUP2 ADD PUSH1 0x20 DUP6 LT ISZERO PUSH2 0xFAA JUMPI DUP2 SWAP1 POP JUMPDEST PUSH2 0xFBE PUSH2 0xFB6 DUP6 PUSH2 0xE7E JUMP JUMPDEST DUP4 ADD DUP3 PUSH2 0xF5E JUMP JUMPDEST POP POP JUMPDEST POP POP POP JUMP JUMPDEST PUSH0 DUP3 DUP3 SHR SWAP1 POP SWAP3 SWAP2 POP POP JUMP JUMPDEST PUSH0 PUSH2 0xFE1 PUSH0 NOT DUP5 PUSH1 0x8 MUL PUSH2 0xFC6 JUMP JUMPDEST NOT DUP1 DUP4 AND SWAP2 POP POP SWAP3 SWAP2 POP POP JUMP JUMPDEST PUSH0 PUSH2 0xFF9 DUP4 DUP4 PUSH2 0xFD2 JUMP JUMPDEST SWAP2 POP DUP3 PUSH1 0x2 MUL DUP3 OR SWAP1 POP SWAP3 SWAP2 POP POP JUMP JUMPDEST PUSH2 0x1012 DUP3 PUSH2 0x93B JUMP JUMPDEST PUSH8 0xFFFFFFFFFFFFFFFF DUP2 GT ISZERO PUSH2 0x102B JUMPI PUSH2 0x102A PUSH2 0xB0A JUMP JUMPDEST JUMPDEST PUSH2 0x1035 DUP3 SLOAD PUSH2 0xDD4 JUMP JUMPDEST PUSH2 0x1040 DUP3 DUP3 DUP6 PUSH2 0xF80 JUMP JUMPDEST PUSH0 PUSH1 0x20 SWAP1 POP PUSH1 0x1F DUP4 GT PUSH1 0x1 DUP2 EQ PUSH2 0x1071 JUMPI PUSH0 DUP5 ISZERO PUSH2 0x105F JUMPI DUP3 DUP8 ADD MLOAD SWAP1 POP JUMPDEST PUSH2 0x1069 DUP6 DUP3 PUSH2 0xFEE JUMP JUMPDEST DUP7 SSTORE POP PUSH2 0x10D0 JUMP JUMPDEST PUSH1 0x1F NOT DUP5 AND PUSH2 0x107F DUP7 PUSH2 0xE6C JUMP JUMPDEST PUSH0 JUMPDEST DUP3 DUP2 LT ISZERO PUSH2 0x10A6 JUMPI DUP5 DUP10 ADD MLOAD DUP3 SSTORE PUSH1 0x1 DUP3 ADD SWAP2 POP PUSH1 0x20 DUP6 ADD SWAP5 POP PUSH1 0x20 DUP2 ADD SWAP1 POP PUSH2 0x1081 JUMP JUMPDEST DUP7 DUP4 LT ISZERO PUSH2 0x10C3 JUMPI DUP5 DUP10 ADD MLOAD PUSH2 0x10BF PUSH1 0x1F DUP10 AND DUP3 PUSH2 0xFD2 JUMP JUMPDEST DUP4 SSTORE POP JUMPDEST PUSH1 0x1 PUSH1 0x2 DUP9 MUL ADD DUP9 SSTORE POP POP POP JUMPDEST POP POP POP POP POP POP JUMP JUMPDEST PUSH32 0x4E487B7100000000000000000000000000000000000000000000000000000000 PUSH0 MSTORE PUSH1 0x11 PUSH1 0x4 MSTORE PUSH1 0x24 PUSH0 REVERT JUMPDEST PUSH0 PUSH2 0x110F DUP3 PUSH2 0x8DD JUMP JUMPDEST SWAP2 POP PUSH32 0xFFFFFFFFFFFFFFFFFFFFFFFFFFFFFFFFFFFFFFFFFFFFFFFFFFFFFFFFFFFFFFFF DUP3 SUB PUSH2 0x1141 JUMPI PUSH2 0x1140 PUSH2 0x10D8 JUMP JUMPDEST JUMPDEST PUSH1 0x1 DUP3 ADD SWAP1 POP SWAP2 SWAP1 POP JUMP INVALID LOG2 PUSH5 0x6970667358 0x22 SLT KECCAK256 0xB2 0x1E PUSH4 0x7FB1E784 0xC6 JUMPI EXP PUSH13 0x91C16919A82E1525C58A4B1EFE PREVRANDAO DELEGATECALL GAS DUP11 0xC SELFDESTRUCT CALLCODE 0xB6 PUSH5 0x736F6C6343 STOP ADDMOD BYTE STOP CALLER "
				},
				"gasEstimates": {
					"creation": {
						"codeDepositCost": "896400",
						"executionCost": "infinite",
						"totalCost": "infinite"
					},
					"external": {
						"coupons(uint256)": "infinite",
						"createReward(string,string,string)": "infinite",
						"getReward(uint256)": "infinite",
						"nextId()": "2425",
						"owner()": "2559",
						"redeemReward(uint256)": "27031",
						"renounceOwnership()": "infinite",
						"transferOwnership(address)": "infinite"
					}
				},
				"methodIdentifiers": {
					"coupons(uint256)": "30828e92",
					"createReward(string,string,string)": "5216ee3c",
					"getReward(uint256)": "1c4b774b",
					"nextId()": "61b8ce8c",
					"owner()": "8da5cb5b",
					"redeemReward(uint256)": "51a71b17",
					"renounceOwnership()": "715018a6",
					"transferOwnership(address)": "f2fde38b"
				}
			},
			"storageLayout": {
				"storage": [
					{
						"astId": 8,
						"contract": "RewardManager.sol:RewardManager",
						"label": "_owner",
						"offset": 0,
						"slot": "0",
						"type": "t_address"
					},
					{
						"astId": 196,
						"contract": "RewardManager.sol:RewardManager",
						"label": "coupons",
						"offset": 0,
						"slot": "1",
						"type": "t_mapping(t_uint256,t_struct(Rewards)191_storage)"
					},
					{
						"astId": 198,
						"contract": "RewardManager.sol:RewardManager",
						"label": "nextId",
						"offset": 0,
						"slot": "2",
						"type": "t_uint256"
					}
				],
				"types": {
					"t_address": {
						"encoding": "inplace",
						"label": "address",
						"numberOfBytes": "20"
					},
					"t_bool": {
						"encoding": "inplace",
						"label": "bool",
						"numberOfBytes": "1"
					},
					"t_mapping(t_uint256,t_struct(Rewards)191_storage)": {
						"encoding": "mapping",
						"key": "t_uint256",
						"label": "mapping(uint256 => struct RewardManager.Rewards)",
						"numberOfBytes": "32",
						"value": "t_struct(Rewards)191_storage"
					},
					"t_string_storage": {
						"encoding": "bytes",
						"label": "string",
						"numberOfBytes": "32"
					},
					"t_struct(Rewards)191_storage": {
						"encoding": "inplace",
						"label": "struct RewardManager.Rewards",
						"members": [
							{
								"astId": 184,
								"contract": "RewardManager.sol:RewardManager",
								"label": "name",
								"offset": 0,
								"slot": "0",
								"type": "t_string_storage"
							},
							{
								"astId": 186,
								"contract": "RewardManager.sol:RewardManager",
								"label": "code",
								"offset": 0,
								"slot": "1",
								"type": "t_string_storage"
							},
							{
								"astId": 188,
								"contract": "RewardManager.sol:RewardManager",
								"label": "company",
								"offset": 0,
								"slot": "2",
								"type": "t_string_storage"
							},
							{
								"astId": 190,
								"contract": "RewardManager.sol:RewardManager",
								"label": "redeemed",
								"offset": 0,
								"slot": "3",
								"type": "t_bool"
							}
						],
						"numberOfBytes": "128"
					},
					"t_uint256": {
						"encoding": "inplace",
						"label": "uint256",
						"numberOfBytes": "32"
					}
				}
			},
			"userdoc": {
				"kind": "user",
				"methods": {},
				"version": 1
			}
		}
	}
}