{
	"RewardPool.sol": {
		"RewardPoolManager": {
			"abi": [
				{
					"inputs": [
						{
							"internalType": "address",
							"name": "_tokenAddress",
							"type": "address"
						},
						{
							"internalType": "address",
							"name": "_treasury",
							"type": "address"
						}
					],
					"stateMutability": "nonpayable",
					"type": "constructor"
				},
				{
					"inputs": [
						{
							"internalType": "string",
							"name": "ipfsHash",
							"type": "string"
						},
						{
							"internalType": "uint256",
							"name": "entryCost",
							"type": "uint256"
						}
					],
					"name": "createPool",
					"outputs": [],
					"stateMutability": "nonpayable",
					"type": "function"
				},
				{
					"inputs": [
						{
							"internalType": "uint256",
							"name": "poolId",
							"type": "uint256"
						}
					],
					"name": "enterPool",
					"outputs": [],
					"stateMutability": "nonpayable",
					"type": "function"
				},
				{
					"inputs": [
						{
							"internalType": "uint256",
							"name": "poolId",
							"type": "uint256"
						}
					],
					"name": "getPoolEntries",
					"outputs": [
						{
							"internalType": "address[]",
							"name": "",
							"type": "address[]"
						}
					],
					"stateMutability": "view",
					"type": "function"
				},
				{
					"inputs": [],
					"name": "owner",
					"outputs": [
						{
							"internalType": "address",
							"name": "",
							"type": "address"
						}
					],
					"stateMutability": "view",
					"type": "function"
				},
				{
					"inputs": [],
					"name": "poolCount",
					"outputs": [
						{
							"internalType": "uint256",
							"name": "",
							"type": "uint256"
						}
					],
					"stateMutability": "view",
					"type": "function"
				},
				{
					"inputs": [
						{
							"internalType": "uint256",
							"name": "",
							"type": "uint256"
						},
						{
							"internalType": "uint256",
							"name": "",
							"type": "uint256"
						}
					],
					"name": "poolEntries",
					"outputs": [
						{
							"internalType": "address",
							"name": "",
							"type": "address"
						}
					],
					"stateMutability": "view",
					"type": "function"
				},
				{
					"inputs": [
						{
							"internalType": "uint256",
							"name": "",
							"type": "uint256"
						}
					],
					"name": "pools",
					"outputs": [
						{
							"internalType": "string",
							"name": "ipfsHash",
							"type": "string"
						},
						{
							"internalType": "uint256",
							"name": "entryCost",
							"type": "uint256"
						},
						{
							"internalType": "bool",
							"name": "active",
							"type": "bool"
						}
					],
					"stateMutability": "view",
					"type": "function"
				},
				{
					"inputs": [],
					"name": "tokenAddress",
					"outputs": [
						{
							"internalType": "address",
							"name": "",
							"type": "address"
						}
					],
					"stateMutability": "view",
					"type": "function"
				},
				{
					"inputs": [],
					"name": "treasury",
					"outputs": [
						{
							"internalType": "address",
							"name": "",
							"type": "address"
						}
					],
					"stateMutability": "view",
					"type": "function"
				}
			],
			"devdoc": {
				"kind": "dev",
				"methods": {},
				"version": 1
			},
			"evm": {
				"assembly": "    /* \"RewardPool.sol\":180:1617  contract RewardPoolManager {... */\n  mstore(0x40, 0x80)\n    /* \"RewardPool.sol\":667:886  constructor(address _tokenAddress, address _treasury) {... */\n  callvalue\n  dup1\n  iszero\n  tag_1\n  jumpi\n  0x00\n  dup1\n  revert\ntag_1:\n  pop\n  mload(0x40)\n  sub(codesize, bytecodeSize)\n  dup1\n  bytecodeSize\n  dup4\n  codecopy\n  dup2\n  dup2\n  add\n  0x40\n  mstore\n  dup2\n  add\n  swap1\n  tag_2\n  swap2\n  swap1\n  tag_3\n  jump\t// in\ntag_2:\n    /* \"RewardPool.sol\":747:760  _tokenAddress */\n  dup2\n    /* \"RewardPool.sol\":732:744  tokenAddress */\n  0x00\n  dup1\n    /* \"RewardPool.sol\":732:760  tokenAddress = _tokenAddress */\n  0x0100\n  exp\n  dup2\n  sload\n  dup2\n  0xffffffffffffffffffffffffffffffffffffffff\n  mul\n  not\n  and\n  swap1\n  dup4\n  0xffffffffffffffffffffffffffffffffffffffff\n  and\n  mul\n  or\n  swap1\n  sstore\n  pop\n    /* \"RewardPool.sol\":866:875  _treasury */\n  dup1\n    /* \"RewardPool.sol\":855:863  treasury */\n  0x01\n  0x00\n    /* \"RewardPool.sol\":855:875  treasury = _treasury */\n  0x0100\n  exp\n  dup2\n  sload\n  dup2\n  0xffffffffffffffffffffffffffffffffffffffff\n  mul\n  not\n  and\n  swap1\n  dup4\n  0xffffffffffffffffffffffffffffffffffffffff\n  and\n  mul\n  or\n  swap1\n  sstore\n  pop\n    /* \"RewardPool.sol\":667:886  constructor(address _tokenAddress, address _treasury) {... */\n  pop\n  pop\n    /* \"RewardPool.sol\":180:1617  contract RewardPoolManager {... */\n  jump(tag_6)\n    /* \"#utility.yul\":88:205   */\ntag_8:\n    /* \"#utility.yul\":197:198   */\n  0x00\n    /* \"#utility.yul\":194:195   */\n  dup1\n    /* \"#utility.yul\":187:199   */\n  revert\n    /* \"#utility.yul\":334:460   */\ntag_10:\n    /* \"#utility.yul\":371:378   */\n  0x00\n    /* \"#utility.yul\":411:453   */\n  0xffffffffffffffffffffffffffffffffffffffff\n    /* \"#utility.yul\":404:409   */\n  dup3\n    /* \"#utility.yul\":400:454   */\n  and\n    /* \"#utility.yul\":389:454   */\n  swap1\n  pop\n    /* \"#utility.yul\":334:460   */\n  swap2\n  swap1\n  pop\n  jump\t// out\n    /* \"#utility.yul\":466:562   */\ntag_11:\n    /* \"#utility.yul\":503:510   */\n  0x00\n    /* \"#utility.yul\":532:556   */\n  tag_20\n    /* \"#utility.yul\":550:555   */\n  dup3\n    /* \"#utility.yul\":532:556   */\n  tag_10\n  jump\t// in\ntag_20:\n    /* \"#utility.yul\":521:556   */\n  swap1\n  pop\n    /* \"#utility.yul\":466:562   */\n  swap2\n  swap1\n  pop\n  jump\t// out\n    /* \"#utility.yul\":568:690   */\ntag_12:\n    /* \"#utility.yul\":641:665   */\n  tag_22\n    /* \"#utility.yul\":659:664   */\n  dup2\n    /* \"#utility.yul\":641:665   */\n  tag_11\n  jump\t// in\ntag_22:\n    /* \"#utility.yul\":634:639   */\n  dup2\n    /* \"#utility.yul\":631:666   */\n  eq\n    /* \"#utility.yul\":621:684   */\n  tag_23\n  jumpi\n    /* \"#utility.yul\":680:681   */\n  0x00\n    /* \"#utility.yul\":677:678   */\n  dup1\n    /* \"#utility.yul\":670:682   */\n  revert\n    /* \"#utility.yul\":621:684   */\ntag_23:\n    /* \"#utility.yul\":568:690   */\n  pop\n  jump\t// out\n    /* \"#utility.yul\":696:839   */\ntag_13:\n    /* \"#utility.yul\":753:758   */\n  0x00\n    /* \"#utility.yul\":784:790   */\n  dup2\n    /* \"#utility.yul\":778:791   */\n  mload\n    /* \"#utility.yul\":769:791   */\n  swap1\n  pop\n    /* \"#utility.yul\":800:833   */\n  tag_25\n    /* \"#utility.yul\":827:832   */\n  dup2\n    /* \"#utility.yul\":800:833   */\n  tag_12\n  jump\t// in\ntag_25:\n    /* \"#utility.yul\":696:839   */\n  swap3\n  swap2\n  pop\n  pop\n  jump\t// out\n    /* \"#utility.yul\":845:1352   */\ntag_3:\n    /* \"#utility.yul\":924:930   */\n  0x00\n    /* \"#utility.yul\":932:938   */\n  dup1\n    /* \"#utility.yul\":981:983   */\n  0x40\n    /* \"#utility.yul\":969:978   */\n  dup4\n    /* \"#utility.yul\":960:967   */\n  dup6\n    /* \"#utility.yul\":956:979   */\n  sub\n    /* \"#utility.yul\":952:984   */\n  slt\n    /* \"#utility.yul\":949:1068   */\n  iszero\n  tag_27\n  jumpi\n    /* \"#utility.yul\":987:1066   */\n  tag_28\n  tag_8\n  jump\t// in\ntag_28:\n    /* \"#utility.yul\":949:1068   */\ntag_27:\n    /* \"#utility.yul\":1107:1108   */\n  0x00\n    /* \"#utility.yul\":1132:1196   */\n  tag_29\n    /* \"#utility.yul\":1188:1195   */\n  dup6\n    /* \"#utility.yul\":1179:1185   */\n  dup3\n    /* \"#utility.yul\":1168:1177   */\n  dup7\n    /* \"#utility.yul\":1164:1186   */\n  add\n    /* \"#utility.yul\":1132:1196   */\n  tag_13\n  jump\t// in\ntag_29:\n    /* \"#utility.yul\":1122:1196   */\n  swap3\n  pop\n    /* \"#utility.yul\":1078:1206   */\n  pop\n    /* \"#utility.yul\":1245:1247   */\n  0x20\n    /* \"#utility.yul\":1271:1335   */\n  tag_30\n    /* \"#utility.yul\":1327:1334   */\n  dup6\n    /* \"#utility.yul\":1318:1324   */\n  dup3\n    /* \"#utility.yul\":1307:1316   */\n  dup7\n    /* \"#utility.yul\":1303:1325   */\n  add\n    /* \"#utility.yul\":1271:1335   */\n  tag_13\n  jump\t// in\ntag_30:\n    /* \"#utility.yul\":1261:1335   */\n  swap2\n  pop\n    /* \"#utility.yul\":1216:1345   */\n  pop\n    /* \"#utility.yul\":845:1352   */\n  swap3\n  pop\n  swap3\n  swap1\n  pop\n  jump\t// out\n    /* \"RewardPool.sol\":180:1617  contract RewardPoolManager {... */\ntag_6:\n  dataSize(sub_0)\n  dup1\n  dataOffset(sub_0)\n  0x00\n  codecopy\n  0x00\n  return\nstop\n\nsub_0: assembly {\n        /* \"RewardPool.sol\":180:1617  contract RewardPoolManager {... */\n      mstore(0x40, 0x80)\n      callvalue\n      dup1\n      iszero\n      tag_1\n      jumpi\n      0x00\n      dup1\n      revert\n    tag_1:\n      pop\n      jumpi(tag_2, lt(calldatasize, 0x04))\n      shr(0xe0, calldataload(0x00))\n      dup1\n      0x61d027b3\n      gt\n      tag_12\n      jumpi\n      dup1\n      0x61d027b3\n      eq\n      tag_7\n      jumpi\n      dup1\n      0x8da5cb5b\n      eq\n      tag_8\n      jumpi\n      dup1\n      0x9d76ea58\n      eq\n      tag_9\n      jumpi\n      dup1\n      0xac4afa38\n      eq\n      tag_10\n      jumpi\n      dup1\n      0xf525cb68\n      eq\n      tag_11\n      jumpi\n      jump(tag_2)\n    tag_12:\n      dup1\n      0x17c1fdd3\n      eq\n      tag_3\n      jumpi\n      dup1\n      0x26fc66ab\n      eq\n      tag_4\n      jumpi\n      dup1\n      0x38a84ab4\n      eq\n      tag_5\n      jumpi\n      dup1\n      0x5f951eab\n      eq\n      tag_6\n      jumpi\n    tag_2:\n      0x00\n      dup1\n      revert\n        /* \"RewardPool.sol\":1488:1614  function getPoolEntries(uint256 poolId) external view returns (address[] memory) {... */\n    tag_3:\n      tag_13\n      0x04\n      dup1\n      calldatasize\n      sub\n      dup2\n      add\n      swap1\n      tag_14\n      swap2\n      swap1\n      tag_15\n      jump\t// in\n    tag_14:\n      tag_16\n      jump\t// in\n    tag_13:\n      mload(0x40)\n      tag_17\n      swap2\n      swap1\n      tag_18\n      jump\t// in\n    tag_17:\n      mload(0x40)\n      dup1\n      swap2\n      sub\n      swap1\n      return\n        /* \"RewardPool.sol\":894:1066  function createPool(string memory ipfsHash, uint256 entryCost) external onlyOwner{... */\n    tag_4:\n      tag_19\n      0x04\n      dup1\n      calldatasize\n      sub\n      dup2\n      add\n      swap1\n      tag_20\n      swap2\n      swap1\n      tag_21\n      jump\t// in\n    tag_20:\n      tag_22\n      jump\t// in\n    tag_19:\n      stop\n        /* \"RewardPool.sol\":488:536  mapping(uint256 => address[]) public poolEntries */\n    tag_5:\n      tag_23\n      0x04\n      dup1\n      calldatasize\n      sub\n      dup2\n      add\n      swap1\n      tag_24\n      swap2\n      swap1\n      tag_25\n      jump\t// in\n    tag_24:\n      tag_26\n      jump\t// in\n    tag_23:\n      mload(0x40)\n      tag_27\n      swap2\n      swap1\n      tag_28\n      jump\t// in\n    tag_27:\n      mload(0x40)\n      dup1\n      swap2\n      sub\n      swap1\n      return\n        /* \"RewardPool.sol\":1110:1480  function enterPool(uint256 poolId) external {... */\n    tag_6:\n      tag_29\n      0x04\n      dup1\n      calldatasize\n      sub\n      dup2\n      add\n      swap1\n      tag_30\n      swap2\n      swap1\n      tag_15\n      jump\t// in\n    tag_30:\n      tag_31\n      jump\t// in\n    tag_29:\n      stop\n        /* \"RewardPool.sol\":248:271  address public treasury */\n    tag_7:\n      tag_32\n      tag_33\n      jump\t// in\n    tag_32:\n      mload(0x40)\n      tag_34\n      swap2\n      swap1\n      tag_28\n      jump\t// in\n    tag_34:\n      mload(0x40)\n      dup1\n      swap2\n      sub\n      swap1\n      return\n        /* \"RewardPool.sol\":278:298  address public owner */\n    tag_8:\n      tag_35\n      tag_36\n      jump\t// in\n    tag_35:\n      mload(0x40)\n      tag_37\n      swap2\n      swap1\n      tag_28\n      jump\t// in\n    tag_37:\n      mload(0x40)\n      dup1\n      swap2\n      sub\n      swap1\n      return\n        /* \"RewardPool.sol\":214:241  address public tokenAddress */\n    tag_9:\n      tag_38\n      tag_39\n      jump\t// in\n    tag_38:\n      mload(0x40)\n      tag_40\n      swap2\n      swap1\n      tag_28\n      jump\t// in\n    tag_40:\n      mload(0x40)\n      dup1\n      swap2\n      sub\n      swap1\n      return\n        /* \"RewardPool.sol\":411:448  mapping(uint256 => Pool) public pools */\n    tag_10:\n      tag_41\n      0x04\n      dup1\n      calldatasize\n      sub\n      dup2\n      add\n      swap1\n      tag_42\n      swap2\n      swap1\n      tag_15\n      jump\t// in\n    tag_42:\n      tag_43\n      jump\t// in\n    tag_41:\n      mload(0x40)\n      tag_44\n      swap4\n      swap3\n      swap2\n      swap1\n      tag_45\n      jump\t// in\n    tag_44:\n      mload(0x40)\n      dup1\n      swap2\n      sub\n      swap1\n      return\n        /* \"RewardPool.sol\":455:479  uint256 public poolCount */\n    tag_11:\n      tag_46\n      tag_47\n      jump\t// in\n    tag_46:\n      mload(0x40)\n      tag_48\n      swap2\n      swap1\n      tag_49\n      jump\t// in\n    tag_48:\n      mload(0x40)\n      dup1\n      swap2\n      sub\n      swap1\n      return\n        /* \"RewardPool.sol\":1488:1614  function getPoolEntries(uint256 poolId) external view returns (address[] memory) {... */\n    tag_16:\n        /* \"RewardPool.sol\":1551:1567  address[] memory */\n      0x60\n        /* \"RewardPool.sol\":1587:1598  poolEntries */\n      0x05\n        /* \"RewardPool.sol\":1587:1606  poolEntries[poolId] */\n      0x00\n        /* \"RewardPool.sol\":1599:1605  poolId */\n      dup4\n        /* \"RewardPool.sol\":1587:1606  poolEntries[poolId] */\n      dup2\n      mstore\n      0x20\n      add\n      swap1\n      dup2\n      mstore\n      0x20\n      add\n      0x00\n      keccak256\n        /* \"RewardPool.sol\":1580:1606  return poolEntries[poolId] */\n      dup1\n      sload\n      dup1\n      0x20\n      mul\n      0x20\n      add\n      mload(0x40)\n      swap1\n      dup2\n      add\n      0x40\n      mstore\n      dup1\n      swap3\n      swap2\n      swap1\n      dup2\n      dup2\n      mstore\n      0x20\n      add\n      dup3\n      dup1\n      sload\n      dup1\n      iszero\n      tag_51\n      jumpi\n      0x20\n      mul\n      dup3\n      add\n      swap2\n      swap1\n      0x00\n      mstore\n      keccak256(0x00, 0x20)\n      swap1\n    tag_52:\n      dup2\n      0x00\n      swap1\n      sload\n      swap1\n      0x0100\n      exp\n      swap1\n      div\n      0xffffffffffffffffffffffffffffffffffffffff\n      and\n      0xffffffffffffffffffffffffffffffffffffffff\n      and\n      dup2\n      mstore\n      0x20\n      add\n      swap1\n      0x01\n      add\n      swap1\n      dup1\n      dup4\n      gt\n      tag_52\n      jumpi\n    tag_51:\n      pop\n      pop\n      pop\n      pop\n      pop\n      swap1\n      pop\n        /* \"RewardPool.sol\":1488:1614  function getPoolEntries(uint256 poolId) external view returns (address[] memory) {... */\n      swap2\n      swap1\n      pop\n      jump\t// out\n        /* \"RewardPool.sol\":894:1066  function createPool(string memory ipfsHash, uint256 entryCost) external onlyOwner{... */\n    tag_22:\n        /* \"RewardPool.sol\":598:603  owner */\n      0x02\n      0x00\n      swap1\n      sload\n      swap1\n      0x0100\n      exp\n      swap1\n      div\n      0xffffffffffffffffffffffffffffffffffffffff\n      and\n        /* \"RewardPool.sol\":584:603  msg.sender == owner */\n      0xffffffffffffffffffffffffffffffffffffffff\n      and\n        /* \"RewardPool.sol\":584:594  msg.sender */\n      caller\n        /* \"RewardPool.sol\":584:603  msg.sender == owner */\n      0xffffffffffffffffffffffffffffffffffffffff\n      and\n      eq\n        /* \"RewardPool.sol\":576:639  require(msg.sender == owner, \"Only (organization) have access\") */\n      tag_54\n      jumpi\n      mload(0x40)\n      0x08c379a000000000000000000000000000000000000000000000000000000000\n      dup2\n      mstore\n      0x04\n      add\n      tag_55\n      swap1\n      tag_56\n      jump\t// in\n    tag_55:\n      mload(0x40)\n      dup1\n      swap2\n      sub\n      swap1\n      revert\n    tag_54:\n        /* \"RewardPool.sol\":1005:1036  Pool(ipfsHash, entryCost, true) */\n      mload(0x40)\n      dup1\n      0x60\n      add\n      0x40\n      mstore\n      dup1\n        /* \"RewardPool.sol\":1010:1018  ipfsHash */\n      dup4\n        /* \"RewardPool.sol\":1005:1036  Pool(ipfsHash, entryCost, true) */\n      dup2\n      mstore\n      0x20\n      add\n        /* \"RewardPool.sol\":1020:1029  entryCost */\n      dup3\n        /* \"RewardPool.sol\":1005:1036  Pool(ipfsHash, entryCost, true) */\n      dup2\n      mstore\n      0x20\n      add\n        /* \"RewardPool.sol\":1031:1035  true */\n      0x01\n        /* \"RewardPool.sol\":1005:1036  Pool(ipfsHash, entryCost, true) */\n      iszero\n      iszero\n      dup2\n      mstore\n      pop\n        /* \"RewardPool.sol\":986:991  pools */\n      0x03\n        /* \"RewardPool.sol\":986:1002  pools[poolCount] */\n      0x00\n        /* \"RewardPool.sol\":992:1001  poolCount */\n      sload(0x04)\n        /* \"RewardPool.sol\":986:1002  pools[poolCount] */\n      dup2\n      mstore\n      0x20\n      add\n      swap1\n      dup2\n      mstore\n      0x20\n      add\n      0x00\n      keccak256\n        /* \"RewardPool.sol\":986:1036  pools[poolCount] = Pool(ipfsHash, entryCost, true) */\n      0x00\n      dup3\n      add\n      mload\n      dup2\n      0x00\n      add\n      swap1\n      dup2\n      tag_58\n      swap2\n      swap1\n      tag_59\n      jump\t// in\n    tag_58:\n      pop\n      0x20\n      dup3\n      add\n      mload\n      dup2\n      0x01\n      add\n      sstore\n      0x40\n      dup3\n      add\n      mload\n      dup2\n      0x02\n      add\n      exp(0x0100, 0x00)\n      dup2\n      sload\n      dup2\n      0xff\n      mul\n      not\n      and\n      swap1\n      dup4\n      iszero\n      iszero\n      mul\n      or\n      swap1\n      sstore\n      pop\n      swap1\n      pop\n      pop\n        /* \"RewardPool.sol\":1047:1056  poolCount */\n      0x04\n      0x00\n        /* \"RewardPool.sol\":1047:1058  poolCount++ */\n      dup2\n      sload\n      dup1\n      swap3\n      swap2\n      swap1\n      tag_60\n      swap1\n      tag_61\n      jump\t// in\n    tag_60:\n      swap2\n      swap1\n      pop\n      sstore\n      pop\n        /* \"RewardPool.sol\":894:1066  function createPool(string memory ipfsHash, uint256 entryCost) external onlyOwner{... */\n      pop\n      pop\n      jump\t// out\n        /* \"RewardPool.sol\":488:536  mapping(uint256 => address[]) public poolEntries */\n    tag_26:\n      mstore(0x20, 0x05)\n      dup2\n      0x00\n      mstore\n      keccak256(0x00, 0x40)\n      dup2\n      dup2\n      sload\n      dup2\n      lt\n      tag_62\n      jumpi\n      0x00\n      dup1\n      revert\n    tag_62:\n      swap1\n      0x00\n      mstore\n      keccak256(0x00, 0x20)\n      add\n      0x00\n      swap2\n      pop\n      swap2\n      pop\n      swap1\n      sload\n      swap1\n      0x0100\n      exp\n      swap1\n      div\n      0xffffffffffffffffffffffffffffffffffffffff\n      and\n      dup2\n      jump\t// out\n        /* \"RewardPool.sol\":1110:1480  function enterPool(uint256 poolId) external {... */\n    tag_31:\n        /* \"RewardPool.sol\":1165:1181  Pool memory pool */\n      0x00\n        /* \"RewardPool.sol\":1184:1189  pools */\n      0x03\n        /* \"RewardPool.sol\":1184:1197  pools[poolId] */\n      0x00\n        /* \"RewardPool.sol\":1190:1196  poolId */\n      dup4\n        /* \"RewardPool.sol\":1184:1197  pools[poolId] */\n      dup2\n      mstore\n      0x20\n      add\n      swap1\n      dup2\n      mstore\n      0x20\n      add\n      0x00\n      keccak256\n        /* \"RewardPool.sol\":1165:1197  Pool memory pool = pools[poolId] */\n      mload(0x40)\n      dup1\n      0x60\n      add\n      0x40\n      mstore\n      swap1\n      dup2\n      0x00\n      dup3\n      add\n      dup1\n      sload\n      tag_65\n      swap1\n      tag_66\n      jump\t// in\n    tag_65:\n      dup1\n      0x1f\n      add\n      0x20\n      dup1\n      swap2\n      div\n      mul\n      0x20\n      add\n      mload(0x40)\n      swap1\n      dup2\n      add\n      0x40\n      mstore\n      dup1\n      swap3\n      swap2\n      swap1\n      dup2\n      dup2\n      mstore\n      0x20\n      add\n      dup3\n      dup1\n      sload\n      tag_67\n      swap1\n      tag_66\n      jump\t// in\n    tag_67:\n      dup1\n      iszero\n      tag_68\n      jumpi\n      dup1\n      0x1f\n      lt\n      tag_69\n      jumpi\n      0x0100\n      dup1\n      dup4\n      sload\n      div\n      mul\n      dup4\n      mstore\n      swap2\n      0x20\n      add\n      swap2\n      jump(tag_68)\n    tag_69:\n      dup3\n      add\n      swap2\n      swap1\n      0x00\n      mstore\n      keccak256(0x00, 0x20)\n      swap1\n    tag_70:\n      dup2\n      sload\n      dup2\n      mstore\n      swap1\n      0x01\n      add\n      swap1\n      0x20\n      add\n      dup1\n      dup4\n      gt\n      tag_70\n      jumpi\n      dup3\n      swap1\n      sub\n      0x1f\n      and\n      dup3\n      add\n      swap2\n    tag_68:\n      pop\n      pop\n      pop\n      pop\n      pop\n      dup2\n      mstore\n      0x20\n      add\n      0x01\n      dup3\n      add\n      sload\n      dup2\n      mstore\n      0x20\n      add\n      0x02\n      dup3\n      add\n      0x00\n      swap1\n      sload\n      swap1\n      0x0100\n      exp\n      swap1\n      div\n      0xff\n      and\n      iszero\n      iszero\n      iszero\n      iszero\n      dup2\n      mstore\n      pop\n      pop\n      swap1\n      pop\n        /* \"RewardPool.sol\":1216:1220  pool */\n      dup1\n        /* \"RewardPool.sol\":1216:1227  pool.active */\n      0x40\n      add\n      mload\n        /* \"RewardPool.sol\":1208:1247  require(pool.active, \"Pool not active\") */\n      tag_71\n      jumpi\n      mload(0x40)\n      0x08c379a000000000000000000000000000000000000000000000000000000000\n      dup2\n      mstore\n      0x04\n      add\n      tag_72\n      swap1\n      tag_73\n      jump\t// in\n    tag_72:\n      mload(0x40)\n      dup1\n      swap2\n      sub\n      swap1\n      revert\n    tag_71:\n        /* \"RewardPool.sol\":1335:1347  tokenAddress */\n      0x00\n      dup1\n      sload\n      swap1\n      0x0100\n      exp\n      swap1\n      div\n      0xffffffffffffffffffffffffffffffffffffffff\n      and\n        /* \"RewardPool.sol\":1328:1361  IERC20(tokenAddress).transferFrom */\n      0xffffffffffffffffffffffffffffffffffffffff\n      and\n      0x23b872dd\n        /* \"RewardPool.sol\":1362:1372  msg.sender */\n      caller\n        /* \"RewardPool.sol\":1374:1382  treasury */\n      0x01\n      0x00\n      swap1\n      sload\n      swap1\n      0x0100\n      exp\n      swap1\n      div\n      0xffffffffffffffffffffffffffffffffffffffff\n      and\n        /* \"RewardPool.sol\":1384:1388  pool */\n      dup5\n        /* \"RewardPool.sol\":1384:1398  pool.entryCost */\n      0x20\n      add\n      mload\n        /* \"RewardPool.sol\":1328:1399  IERC20(tokenAddress).transferFrom(msg.sender, treasury, pool.entryCost) */\n      mload(0x40)\n      dup5\n      0xffffffff\n      and\n      0xe0\n      shl\n      dup2\n      mstore\n      0x04\n      add\n      tag_74\n      swap4\n      swap3\n      swap2\n      swap1\n      tag_75\n      jump\t// in\n    tag_74:\n      0x20\n      mload(0x40)\n      dup1\n      dup4\n      sub\n      dup2\n      0x00\n      dup8\n      gas\n      call\n      iszero\n      dup1\n      iszero\n      tag_77\n      jumpi\n      returndatasize\n      0x00\n      dup1\n      returndatacopy\n      revert(0x00, returndatasize)\n    tag_77:\n      pop\n      pop\n      pop\n      pop\n      mload(0x40)\n      returndatasize\n      not(0x1f)\n      0x1f\n      dup3\n      add\n      and\n      dup3\n      add\n      dup1\n      0x40\n      mstore\n      pop\n      dup2\n      add\n      swap1\n      tag_78\n      swap2\n      swap1\n      tag_79\n      jump\t// in\n    tag_78:\n      pop\n        /* \"RewardPool.sol\":1436:1447  poolEntries */\n      0x05\n        /* \"RewardPool.sol\":1436:1455  poolEntries[poolId] */\n      0x00\n        /* \"RewardPool.sol\":1448:1454  poolId */\n      dup4\n        /* \"RewardPool.sol\":1436:1455  poolEntries[poolId] */\n      dup2\n      mstore\n      0x20\n      add\n      swap1\n      dup2\n      mstore\n      0x20\n      add\n      0x00\n      keccak256\n        /* \"RewardPool.sol\":1461:1471  msg.sender */\n      caller\n        /* \"RewardPool.sol\":1436:1472  poolEntries[poolId].push(msg.sender) */\n      swap1\n      dup1\n      0x01\n      dup2\n      sload\n      add\n      dup1\n      dup3\n      sstore\n      dup1\n      swap2\n      pop\n      pop\n      0x01\n      swap1\n      sub\n      swap1\n      0x00\n      mstore\n      keccak256(0x00, 0x20)\n      add\n      0x00\n      swap1\n      swap2\n      swap1\n      swap2\n      swap1\n      swap2\n      0x0100\n      exp\n      dup2\n      sload\n      dup2\n      0xffffffffffffffffffffffffffffffffffffffff\n      mul\n      not\n      and\n      swap1\n      dup4\n      0xffffffffffffffffffffffffffffffffffffffff\n      and\n      mul\n      or\n      swap1\n      sstore\n      pop\n        /* \"RewardPool.sol\":1154:1480  {... */\n      pop\n        /* \"RewardPool.sol\":1110:1480  function enterPool(uint256 poolId) external {... */\n      pop\n      jump\t// out\n        /* \"RewardPool.sol\":248:271  address public treasury */\n    tag_33:\n      0x01\n      0x00\n      swap1\n      sload\n      swap1\n      0x0100\n      exp\n      swap1\n      div\n      0xffffffffffffffffffffffffffffffffffffffff\n      and\n      dup2\n      jump\t// out\n        /* \"RewardPool.sol\":278:298  address public owner */\n    tag_36:\n      0x02\n      0x00\n      swap1\n      sload\n      swap1\n      0x0100\n      exp\n      swap1\n      div\n      0xffffffffffffffffffffffffffffffffffffffff\n      and\n      dup2\n      jump\t// out\n        /* \"RewardPool.sol\":214:241  address public tokenAddress */\n    tag_39:\n      0x00\n      dup1\n      sload\n      swap1\n      0x0100\n      exp\n      swap1\n      div\n      0xffffffffffffffffffffffffffffffffffffffff\n      and\n      dup2\n      jump\t// out\n        /* \"RewardPool.sol\":411:448  mapping(uint256 => Pool) public pools */\n    tag_43:\n      mstore(0x20, 0x03)\n      dup1\n      0x00\n      mstore\n      keccak256(0x00, 0x40)\n      0x00\n      swap2\n      pop\n      swap1\n      pop\n      dup1\n      0x00\n      add\n      dup1\n      sload\n      tag_81\n      swap1\n      tag_66\n      jump\t// in\n    tag_81:\n      dup1\n      0x1f\n      add\n      0x20\n      dup1\n      swap2\n      div\n      mul\n      0x20\n      add\n      mload(0x40)\n      swap1\n      dup2\n      add\n      0x40\n      mstore\n      dup1\n      swap3\n      swap2\n      swap1\n      dup2\n      dup2\n      mstore\n      0x20\n      add\n      dup3\n      dup1\n      sload\n      tag_82\n      swap1\n      tag_66\n      jump\t// in\n    tag_82:\n      dup1\n      iszero\n      tag_83\n      jumpi\n      dup1\n      0x1f\n      lt\n      tag_84\n      jumpi\n      0x0100\n      dup1\n      dup4\n      sload\n      div\n      mul\n      dup4\n      mstore\n      swap2\n      0x20\n      add\n      swap2\n      jump(tag_83)\n    tag_84:\n      dup3\n      add\n      swap2\n      swap1\n      0x00\n      mstore\n      keccak256(0x00, 0x20)\n      swap1\n    tag_85:\n      dup2\n      sload\n      dup2\n      mstore\n      swap1\n      0x01\n      add\n      swap1\n      0x20\n      add\n      dup1\n      dup4\n      gt\n      tag_85\n      jumpi\n      dup3\n      swap1\n      sub\n      0x1f\n      and\n      dup3\n      add\n      swap2\n    tag_83:\n      pop\n      pop\n      pop\n      pop\n      pop\n      swap1\n      dup1\n      0x01\n      add\n      sload\n      swap1\n      dup1\n      0x02\n      add\n      0x00\n      swap1\n      sload\n      swap1\n      0x0100\n      exp\n      swap1\n      div\n      0xff\n      and\n      swap1\n      pop\n      dup4\n      jump\t// out\n        /* \"RewardPool.sol\":455:479  uint256 public poolCount */\n    tag_47:\n      sload(0x04)\n      dup2\n      jump\t// out\n        /* \"#utility.yul\":7:82   */\n    tag_86:\n        /* \"#utility.yul\":40:46   */\n      0x00\n        /* \"#utility.yul\":73:75   */\n      0x40\n        /* \"#utility.yul\":67:76   */\n      mload\n        /* \"#utility.yul\":57:76   */\n      swap1\n      pop\n        /* \"#utility.yul\":7:82   */\n      swap1\n      jump\t// out\n        /* \"#utility.yul\":88:205   */\n    tag_87:\n        /* \"#utility.yul\":197:198   */\n      0x00\n        /* \"#utility.yul\":194:195   */\n      dup1\n        /* \"#utility.yul\":187:199   */\n      revert\n        /* \"#utility.yul\":211:328   */\n    tag_88:\n        /* \"#utility.yul\":320:321   */\n      0x00\n        /* \"#utility.yul\":317:318   */\n      dup1\n        /* \"#utility.yul\":310:322   */\n      revert\n        /* \"#utility.yul\":334:411   */\n    tag_89:\n        /* \"#utility.yul\":371:378   */\n      0x00\n        /* \"#utility.yul\":400:405   */\n      dup2\n        /* \"#utility.yul\":389:405   */\n      swap1\n      pop\n        /* \"#utility.yul\":334:411   */\n      swap2\n      swap1\n      pop\n      jump\t// out\n        /* \"#utility.yul\":417:539   */\n    tag_90:\n        /* \"#utility.yul\":490:514   */\n      tag_148\n        /* \"#utility.yul\":508:513   */\n      dup2\n        /* \"#utility.yul\":490:514   */\n      tag_89\n      jump\t// in\n    tag_148:\n        /* \"#utility.yul\":483:488   */\n      dup2\n        /* \"#utility.yul\":480:515   */\n      eq\n        /* \"#utility.yul\":470:533   */\n      tag_149\n      jumpi\n        /* \"#utility.yul\":529:530   */\n      0x00\n        /* \"#utility.yul\":526:527   */\n      dup1\n        /* \"#utility.yul\":519:531   */\n      revert\n        /* \"#utility.yul\":470:533   */\n    tag_149:\n        /* \"#utility.yul\":417:539   */\n      pop\n      jump\t// out\n        /* \"#utility.yul\":545:684   */\n    tag_91:\n        /* \"#utility.yul\":591:596   */\n      0x00\n        /* \"#utility.yul\":629:635   */\n      dup2\n        /* \"#utility.yul\":616:636   */\n      calldataload\n        /* \"#utility.yul\":607:636   */\n      swap1\n      pop\n        /* \"#utility.yul\":645:678   */\n      tag_151\n        /* \"#utility.yul\":672:677   */\n      dup2\n        /* \"#utility.yul\":645:678   */\n      tag_90\n      jump\t// in\n    tag_151:\n        /* \"#utility.yul\":545:684   */\n      swap3\n      swap2\n      pop\n      pop\n      jump\t// out\n        /* \"#utility.yul\":690:1019   */\n    tag_15:\n        /* \"#utility.yul\":749:755   */\n      0x00\n        /* \"#utility.yul\":798:800   */\n      0x20\n        /* \"#utility.yul\":786:795   */\n      dup3\n        /* \"#utility.yul\":777:784   */\n      dup5\n        /* \"#utility.yul\":773:796   */\n      sub\n        /* \"#utility.yul\":769:801   */\n      slt\n        /* \"#utility.yul\":766:885   */\n      iszero\n      tag_153\n      jumpi\n        /* \"#utility.yul\":804:883   */\n      tag_154\n      tag_87\n      jump\t// in\n    tag_154:\n        /* \"#utility.yul\":766:885   */\n    tag_153:\n        /* \"#utility.yul\":924:925   */\n      0x00\n        /* \"#utility.yul\":949:1002   */\n      tag_155\n        /* \"#utility.yul\":994:1001   */\n      dup5\n        /* \"#utility.yul\":985:991   */\n      dup3\n        /* \"#utility.yul\":974:983   */\n      dup6\n        /* \"#utility.yul\":970:992   */\n      add\n        /* \"#utility.yul\":949:1002   */\n      tag_91\n      jump\t// in\n    tag_155:\n        /* \"#utility.yul\":939:1002   */\n      swap2\n      pop\n        /* \"#utility.yul\":895:1012   */\n      pop\n        /* \"#utility.yul\":690:1019   */\n      swap3\n      swap2\n      pop\n      pop\n      jump\t// out\n        /* \"#utility.yul\":1025:1139   */\n    tag_92:\n        /* \"#utility.yul\":1092:1098   */\n      0x00\n        /* \"#utility.yul\":1126:1131   */\n      dup2\n        /* \"#utility.yul\":1120:1132   */\n      mload\n        /* \"#utility.yul\":1110:1132   */\n      swap1\n      pop\n        /* \"#utility.yul\":1025:1139   */\n      swap2\n      swap1\n      pop\n      jump\t// out\n        /* \"#utility.yul\":1145:1329   */\n    tag_93:\n        /* \"#utility.yul\":1244:1255   */\n      0x00\n        /* \"#utility.yul\":1278:1284   */\n      dup3\n        /* \"#utility.yul\":1273:1276   */\n      dup3\n        /* \"#utility.yul\":1266:1285   */\n      mstore\n        /* \"#utility.yul\":1318:1322   */\n      0x20\n        /* \"#utility.yul\":1313:1316   */\n      dup3\n        /* \"#utility.yul\":1309:1323   */\n      add\n        /* \"#utility.yul\":1294:1323   */\n      swap1\n      pop\n        /* \"#utility.yul\":1145:1329   */\n      swap3\n      swap2\n      pop\n      pop\n      jump\t// out\n        /* \"#utility.yul\":1335:1467   */\n    tag_94:\n        /* \"#utility.yul\":1402:1406   */\n      0x00\n        /* \"#utility.yul\":1425:1428   */\n      dup2\n        /* \"#utility.yul\":1417:1428   */\n      swap1\n      pop\n        /* \"#utility.yul\":1455:1459   */\n      0x20\n        /* \"#utility.yul\":1450:1453   */\n      dup3\n        /* \"#utility.yul\":1446:1460   */\n      add\n        /* \"#utility.yul\":1438:1460   */\n      swap1\n      pop\n        /* \"#utility.yul\":1335:1467   */\n      swap2\n      swap1\n      pop\n      jump\t// out\n        /* \"#utility.yul\":1473:1599   */\n    tag_95:\n        /* \"#utility.yul\":1510:1517   */\n      0x00\n        /* \"#utility.yul\":1550:1592   */\n      0xffffffffffffffffffffffffffffffffffffffff\n        /* \"#utility.yul\":1543:1548   */\n      dup3\n        /* \"#utility.yul\":1539:1593   */\n      and\n        /* \"#utility.yul\":1528:1593   */\n      swap1\n      pop\n        /* \"#utility.yul\":1473:1599   */\n      swap2\n      swap1\n      pop\n      jump\t// out\n        /* \"#utility.yul\":1605:1701   */\n    tag_96:\n        /* \"#utility.yul\":1642:1649   */\n      0x00\n        /* \"#utility.yul\":1671:1695   */\n      tag_161\n        /* \"#utility.yul\":1689:1694   */\n      dup3\n        /* \"#utility.yul\":1671:1695   */\n      tag_95\n      jump\t// in\n    tag_161:\n        /* \"#utility.yul\":1660:1695   */\n      swap1\n      pop\n        /* \"#utility.yul\":1605:1701   */\n      swap2\n      swap1\n      pop\n      jump\t// out\n        /* \"#utility.yul\":1707:1815   */\n    tag_97:\n        /* \"#utility.yul\":1784:1808   */\n      tag_163\n        /* \"#utility.yul\":1802:1807   */\n      dup2\n        /* \"#utility.yul\":1784:1808   */\n      tag_96\n      jump\t// in\n    tag_163:\n        /* \"#utility.yul\":1779:1782   */\n      dup3\n        /* \"#utility.yul\":1772:1809   */\n      mstore\n        /* \"#utility.yul\":1707:1815   */\n      pop\n      pop\n      jump\t// out\n        /* \"#utility.yul\":1821:2000   */\n    tag_98:\n        /* \"#utility.yul\":1890:1900   */\n      0x00\n        /* \"#utility.yul\":1911:1957   */\n      tag_165\n        /* \"#utility.yul\":1953:1956   */\n      dup4\n        /* \"#utility.yul\":1945:1951   */\n      dup4\n        /* \"#utility.yul\":1911:1957   */\n      tag_97\n      jump\t// in\n    tag_165:\n        /* \"#utility.yul\":1989:1993   */\n      0x20\n        /* \"#utility.yul\":1984:1987   */\n      dup4\n        /* \"#utility.yul\":1980:1994   */\n      add\n        /* \"#utility.yul\":1966:1994   */\n      swap1\n      pop\n        /* \"#utility.yul\":1821:2000   */\n      swap3\n      swap2\n      pop\n      pop\n      jump\t// out\n        /* \"#utility.yul\":2006:2119   */\n    tag_99:\n        /* \"#utility.yul\":2076:2080   */\n      0x00\n        /* \"#utility.yul\":2108:2112   */\n      0x20\n        /* \"#utility.yul\":2103:2106   */\n      dup3\n        /* \"#utility.yul\":2099:2113   */\n      add\n        /* \"#utility.yul\":2091:2113   */\n      swap1\n      pop\n        /* \"#utility.yul\":2006:2119   */\n      swap2\n      swap1\n      pop\n      jump\t// out\n        /* \"#utility.yul\":2155:2887   */\n    tag_100:\n        /* \"#utility.yul\":2274:2277   */\n      0x00\n        /* \"#utility.yul\":2303:2357   */\n      tag_168\n        /* \"#utility.yul\":2351:2356   */\n      dup3\n        /* \"#utility.yul\":2303:2357   */\n      tag_92\n      jump\t// in\n    tag_168:\n        /* \"#utility.yul\":2373:2459   */\n      tag_169\n        /* \"#utility.yul\":2452:2458   */\n      dup2\n        /* \"#utility.yul\":2447:2450   */\n      dup6\n        /* \"#utility.yul\":2373:2459   */\n      tag_93\n      jump\t// in\n    tag_169:\n        /* \"#utility.yul\":2366:2459   */\n      swap4\n      pop\n        /* \"#utility.yul\":2483:2539   */\n      tag_170\n        /* \"#utility.yul\":2533:2538   */\n      dup4\n        /* \"#utility.yul\":2483:2539   */\n      tag_94\n      jump\t// in\n    tag_170:\n        /* \"#utility.yul\":2562:2569   */\n      dup1\n        /* \"#utility.yul\":2593:2594   */\n      0x00\n        /* \"#utility.yul\":2578:2862   */\n    tag_171:\n        /* \"#utility.yul\":2603:2609   */\n      dup4\n        /* \"#utility.yul\":2600:2601   */\n      dup2\n        /* \"#utility.yul\":2597:2610   */\n      lt\n        /* \"#utility.yul\":2578:2862   */\n      iszero\n      tag_173\n      jumpi\n        /* \"#utility.yul\":2679:2685   */\n      dup2\n        /* \"#utility.yul\":2673:2686   */\n      mload\n        /* \"#utility.yul\":2706:2769   */\n      tag_174\n        /* \"#utility.yul\":2765:2768   */\n      dup9\n        /* \"#utility.yul\":2750:2763   */\n      dup3\n        /* \"#utility.yul\":2706:2769   */\n      tag_98\n      jump\t// in\n    tag_174:\n        /* \"#utility.yul\":2699:2769   */\n      swap8\n      pop\n        /* \"#utility.yul\":2792:2852   */\n      tag_175\n        /* \"#utility.yul\":2845:2851   */\n      dup4\n        /* \"#utility.yul\":2792:2852   */\n      tag_99\n      jump\t// in\n    tag_175:\n        /* \"#utility.yul\":2782:2852   */\n      swap3\n      pop\n        /* \"#utility.yul\":2638:2862   */\n      pop\n        /* \"#utility.yul\":2625:2626   */\n      0x01\n        /* \"#utility.yul\":2622:2623   */\n      dup2\n        /* \"#utility.yul\":2618:2627   */\n      add\n        /* \"#utility.yul\":2613:2627   */\n      swap1\n      pop\n        /* \"#utility.yul\":2578:2862   */\n      jump(tag_171)\n    tag_173:\n        /* \"#utility.yul\":2582:2596   */\n      pop\n        /* \"#utility.yul\":2878:2881   */\n      dup6\n        /* \"#utility.yul\":2871:2881   */\n      swap4\n      pop\n        /* \"#utility.yul\":2279:2887   */\n      pop\n      pop\n      pop\n        /* \"#utility.yul\":2155:2887   */\n      swap3\n      swap2\n      pop\n      pop\n      jump\t// out\n        /* \"#utility.yul\":2893:3266   */\n    tag_18:\n        /* \"#utility.yul\":3036:3040   */\n      0x00\n        /* \"#utility.yul\":3074:3076   */\n      0x20\n        /* \"#utility.yul\":3063:3072   */\n      dup3\n        /* \"#utility.yul\":3059:3077   */\n      add\n        /* \"#utility.yul\":3051:3077   */\n      swap1\n      pop\n        /* \"#utility.yul\":3123:3132   */\n      dup2\n        /* \"#utility.yul\":3117:3121   */\n      dup2\n        /* \"#utility.yul\":3113:3133   */\n      sub\n        /* \"#utility.yul\":3109:3110   */\n      0x00\n        /* \"#utility.yul\":3098:3107   */\n      dup4\n        /* \"#utility.yul\":3094:3111   */\n      add\n        /* \"#utility.yul\":3087:3134   */\n      mstore\n        /* \"#utility.yul\":3151:3259   */\n      tag_177\n        /* \"#utility.yul\":3254:3258   */\n      dup2\n        /* \"#utility.yul\":3245:3251   */\n      dup5\n        /* \"#utility.yul\":3151:3259   */\n      tag_100\n      jump\t// in\n    tag_177:\n        /* \"#utility.yul\":3143:3259   */\n      swap1\n      pop\n        /* \"#utility.yul\":2893:3266   */\n      swap3\n      swap2\n      pop\n      pop\n      jump\t// out\n        /* \"#utility.yul\":3272:3389   */\n    tag_101:\n        /* \"#utility.yul\":3381:3382   */\n      0x00\n        /* \"#utility.yul\":3378:3379   */\n      dup1\n        /* \"#utility.yul\":3371:3383   */\n      revert\n        /* \"#utility.yul\":3395:3512   */\n    tag_102:\n        /* \"#utility.yul\":3504:3505   */\n      0x00\n        /* \"#utility.yul\":3501:3502   */\n      dup1\n        /* \"#utility.yul\":3494:3506   */\n      revert\n        /* \"#utility.yul\":3518:3620   */\n    tag_103:\n        /* \"#utility.yul\":3559:3565   */\n      0x00\n        /* \"#utility.yul\":3610:3612   */\n      0x1f\n        /* \"#utility.yul\":3606:3613   */\n      not\n        /* \"#utility.yul\":3601:3603   */\n      0x1f\n        /* \"#utility.yul\":3594:3599   */\n      dup4\n        /* \"#utility.yul\":3590:3604   */\n      add\n        /* \"#utility.yul\":3586:3614   */\n      and\n        /* \"#utility.yul\":3576:3614   */\n      swap1\n      pop\n        /* \"#utility.yul\":3518:3620   */\n      swap2\n      swap1\n      pop\n      jump\t// out\n        /* \"#utility.yul\":3626:3806   */\n    tag_104:\n        /* \"#utility.yul\":3674:3751   */\n      0x4e487b7100000000000000000000000000000000000000000000000000000000\n        /* \"#utility.yul\":3671:3672   */\n      0x00\n        /* \"#utility.yul\":3664:3752   */\n      mstore\n        /* \"#utility.yul\":3771:3775   */\n      0x41\n        /* \"#utility.yul\":3768:3769   */\n      0x04\n        /* \"#utility.yul\":3761:3776   */\n      mstore\n        /* \"#utility.yul\":3795:3799   */\n      0x24\n        /* \"#utility.yul\":3792:3793   */\n      0x00\n        /* \"#utility.yul\":3785:3800   */\n      revert\n        /* \"#utility.yul\":3812:4093   */\n    tag_105:\n        /* \"#utility.yul\":3895:3922   */\n      tag_183\n        /* \"#utility.yul\":3917:3921   */\n      dup3\n        /* \"#utility.yul\":3895:3922   */\n      tag_103\n      jump\t// in\n    tag_183:\n        /* \"#utility.yul\":3887:3893   */\n      dup2\n        /* \"#utility.yul\":3883:3923   */\n      add\n        /* \"#utility.yul\":4025:4031   */\n      dup2\n        /* \"#utility.yul\":4013:4023   */\n      dup2\n        /* \"#utility.yul\":4010:4032   */\n      lt\n        /* \"#utility.yul\":3989:4007   */\n      0xffffffffffffffff\n        /* \"#utility.yul\":3977:3987   */\n      dup3\n        /* \"#utility.yul\":3974:4008   */\n      gt\n        /* \"#utility.yul\":3971:4033   */\n      or\n        /* \"#utility.yul\":3968:4056   */\n      iszero\n      tag_184\n      jumpi\n        /* \"#utility.yul\":4036:4054   */\n      tag_185\n      tag_104\n      jump\t// in\n    tag_185:\n        /* \"#utility.yul\":3968:4056   */\n    tag_184:\n        /* \"#utility.yul\":4076:4086   */\n      dup1\n        /* \"#utility.yul\":4072:4074   */\n      0x40\n        /* \"#utility.yul\":4065:4087   */\n      mstore\n        /* \"#utility.yul\":3855:4093   */\n      pop\n        /* \"#utility.yul\":3812:4093   */\n      pop\n      pop\n      jump\t// out\n        /* \"#utility.yul\":4099:4228   */\n    tag_106:\n        /* \"#utility.yul\":4133:4139   */\n      0x00\n        /* \"#utility.yul\":4160:4180   */\n      tag_187\n      tag_86\n      jump\t// in\n    tag_187:\n        /* \"#utility.yul\":4150:4180   */\n      swap1\n      pop\n        /* \"#utility.yul\":4189:4222   */\n      tag_188\n        /* \"#utility.yul\":4217:4221   */\n      dup3\n        /* \"#utility.yul\":4209:4215   */\n      dup3\n        /* \"#utility.yul\":4189:4222   */\n      tag_105\n      jump\t// in\n    tag_188:\n        /* \"#utility.yul\":4099:4228   */\n      swap2\n      swap1\n      pop\n      jump\t// out\n        /* \"#utility.yul\":4234:4542   */\n    tag_107:\n        /* \"#utility.yul\":4296:4300   */\n      0x00\n        /* \"#utility.yul\":4386:4404   */\n      0xffffffffffffffff\n        /* \"#utility.yul\":4378:4384   */\n      dup3\n        /* \"#utility.yul\":4375:4405   */\n      gt\n        /* \"#utility.yul\":4372:4428   */\n      iszero\n      tag_190\n      jumpi\n        /* \"#utility.yul\":4408:4426   */\n      tag_191\n      tag_104\n      jump\t// in\n    tag_191:\n        /* \"#utility.yul\":4372:4428   */\n    tag_190:\n        /* \"#utility.yul\":4446:4475   */\n      tag_192\n        /* \"#utility.yul\":4468:4474   */\n      dup3\n        /* \"#utility.yul\":4446:4475   */\n      tag_103\n      jump\t// in\n    tag_192:\n        /* \"#utility.yul\":4438:4475   */\n      swap1\n      pop\n        /* \"#utility.yul\":4530:4534   */\n      0x20\n        /* \"#utility.yul\":4524:4528   */\n      dup2\n        /* \"#utility.yul\":4520:4535   */\n      add\n        /* \"#utility.yul\":4512:4535   */\n      swap1\n      pop\n        /* \"#utility.yul\":4234:4542   */\n      swap2\n      swap1\n      pop\n      jump\t// out\n        /* \"#utility.yul\":4548:4696   */\n    tag_108:\n        /* \"#utility.yul\":4646:4652   */\n      dup3\n        /* \"#utility.yul\":4641:4644   */\n      dup2\n        /* \"#utility.yul\":4636:4639   */\n      dup4\n        /* \"#utility.yul\":4623:4653   */\n      calldatacopy\n        /* \"#utility.yul\":4687:4688   */\n      0x00\n        /* \"#utility.yul\":4678:4684   */\n      dup4\n        /* \"#utility.yul\":4673:4676   */\n      dup4\n        /* \"#utility.yul\":4669:4685   */\n      add\n        /* \"#utility.yul\":4662:4689   */\n      mstore\n        /* \"#utility.yul\":4548:4696   */\n      pop\n      pop\n      pop\n      jump\t// out\n        /* \"#utility.yul\":4702:5127   */\n    tag_109:\n        /* \"#utility.yul\":4780:4785   */\n      0x00\n        /* \"#utility.yul\":4805:4871   */\n      tag_195\n        /* \"#utility.yul\":4821:4870   */\n      tag_196\n        /* \"#utility.yul\":4863:4869   */\n      dup5\n        /* \"#utility.yul\":4821:4870   */\n      tag_107\n      jump\t// in\n    tag_196:\n        /* \"#utility.yul\":4805:4871   */\n      tag_106\n      jump\t// in\n    tag_195:\n        /* \"#utility.yul\":4796:4871   */\n      swap1\n      pop\n        /* \"#utility.yul\":4894:4900   */\n      dup3\n        /* \"#utility.yul\":4887:4892   */\n      dup2\n        /* \"#utility.yul\":4880:4901   */\n      mstore\n        /* \"#utility.yul\":4932:4936   */\n      0x20\n        /* \"#utility.yul\":4925:4930   */\n      dup2\n        /* \"#utility.yul\":4921:4937   */\n      add\n        /* \"#utility.yul\":4970:4973   */\n      dup5\n        /* \"#utility.yul\":4961:4967   */\n      dup5\n        /* \"#utility.yul\":4956:4959   */\n      dup5\n        /* \"#utility.yul\":4952:4968   */\n      add\n        /* \"#utility.yul\":4949:4974   */\n      gt\n        /* \"#utility.yul\":4946:5058   */\n      iszero\n      tag_197\n      jumpi\n        /* \"#utility.yul\":4977:5056   */\n      tag_198\n      tag_102\n      jump\t// in\n    tag_198:\n        /* \"#utility.yul\":4946:5058   */\n    tag_197:\n        /* \"#utility.yul\":5067:5121   */\n      tag_199\n        /* \"#utility.yul\":5114:5120   */\n      dup5\n        /* \"#utility.yul\":5109:5112   */\n      dup3\n        /* \"#utility.yul\":5104:5107   */\n      dup6\n        /* \"#utility.yul\":5067:5121   */\n      tag_108\n      jump\t// in\n    tag_199:\n        /* \"#utility.yul\":4786:5127   */\n      pop\n        /* \"#utility.yul\":4702:5127   */\n      swap4\n      swap3\n      pop\n      pop\n      pop\n      jump\t// out\n        /* \"#utility.yul\":5147:5487   */\n    tag_110:\n        /* \"#utility.yul\":5203:5208   */\n      0x00\n        /* \"#utility.yul\":5252:5255   */\n      dup3\n        /* \"#utility.yul\":5245:5249   */\n      0x1f\n        /* \"#utility.yul\":5237:5243   */\n      dup4\n        /* \"#utility.yul\":5233:5250   */\n      add\n        /* \"#utility.yul\":5229:5256   */\n      slt\n        /* \"#utility.yul\":5219:5341   */\n      tag_201\n      jumpi\n        /* \"#utility.yul\":5260:5339   */\n      tag_202\n      tag_101\n      jump\t// in\n    tag_202:\n        /* \"#utility.yul\":5219:5341   */\n    tag_201:\n        /* \"#utility.yul\":5377:5383   */\n      dup2\n        /* \"#utility.yul\":5364:5384   */\n      calldataload\n        /* \"#utility.yul\":5402:5481   */\n      tag_203\n        /* \"#utility.yul\":5477:5480   */\n      dup5\n        /* \"#utility.yul\":5469:5475   */\n      dup3\n        /* \"#utility.yul\":5462:5466   */\n      0x20\n        /* \"#utility.yul\":5454:5460   */\n      dup7\n        /* \"#utility.yul\":5450:5467   */\n      add\n        /* \"#utility.yul\":5402:5481   */\n      tag_109\n      jump\t// in\n    tag_203:\n        /* \"#utility.yul\":5393:5481   */\n      swap2\n      pop\n        /* \"#utility.yul\":5209:5487   */\n      pop\n        /* \"#utility.yul\":5147:5487   */\n      swap3\n      swap2\n      pop\n      pop\n      jump\t// out\n        /* \"#utility.yul\":5493:6147   */\n    tag_21:\n        /* \"#utility.yul\":5571:5577   */\n      0x00\n        /* \"#utility.yul\":5579:5585   */\n      dup1\n        /* \"#utility.yul\":5628:5630   */\n      0x40\n        /* \"#utility.yul\":5616:5625   */\n      dup4\n        /* \"#utility.yul\":5607:5614   */\n      dup6\n        /* \"#utility.yul\":5603:5626   */\n      sub\n        /* \"#utility.yul\":5599:5631   */\n      slt\n        /* \"#utility.yul\":5596:5715   */\n      iszero\n      tag_205\n      jumpi\n        /* \"#utility.yul\":5634:5713   */\n      tag_206\n      tag_87\n      jump\t// in\n    tag_206:\n        /* \"#utility.yul\":5596:5715   */\n    tag_205:\n        /* \"#utility.yul\":5782:5783   */\n      0x00\n        /* \"#utility.yul\":5771:5780   */\n      dup4\n        /* \"#utility.yul\":5767:5784   */\n      add\n        /* \"#utility.yul\":5754:5785   */\n      calldataload\n        /* \"#utility.yul\":5812:5830   */\n      0xffffffffffffffff\n        /* \"#utility.yul\":5804:5810   */\n      dup2\n        /* \"#utility.yul\":5801:5831   */\n      gt\n        /* \"#utility.yul\":5798:5915   */\n      iszero\n      tag_207\n      jumpi\n        /* \"#utility.yul\":5834:5913   */\n      tag_208\n      tag_88\n      jump\t// in\n    tag_208:\n        /* \"#utility.yul\":5798:5915   */\n    tag_207:\n        /* \"#utility.yul\":5939:6002   */\n      tag_209\n        /* \"#utility.yul\":5994:6001   */\n      dup6\n        /* \"#utility.yul\":5985:5991   */\n      dup3\n        /* \"#utility.yul\":5974:5983   */\n      dup7\n        /* \"#utility.yul\":5970:5992   */\n      add\n        /* \"#utility.yul\":5939:6002   */\n      tag_110\n      jump\t// in\n    tag_209:\n        /* \"#utility.yul\":5929:6002   */\n      swap3\n      pop\n        /* \"#utility.yul\":5725:6012   */\n      pop\n        /* \"#utility.yul\":6051:6053   */\n      0x20\n        /* \"#utility.yul\":6077:6130   */\n      tag_210\n        /* \"#utility.yul\":6122:6129   */\n      dup6\n        /* \"#utility.yul\":6113:6119   */\n      dup3\n        /* \"#utility.yul\":6102:6111   */\n      dup7\n        /* \"#utility.yul\":6098:6120   */\n      add\n        /* \"#utility.yul\":6077:6130   */\n      tag_91\n      jump\t// in\n    tag_210:\n        /* \"#utility.yul\":6067:6130   */\n      swap2\n      pop\n        /* \"#utility.yul\":6022:6140   */\n      pop\n        /* \"#utility.yul\":5493:6147   */\n      swap3\n      pop\n      swap3\n      swap1\n      pop\n      jump\t// out\n        /* \"#utility.yul\":6153:6627   */\n    tag_25:\n        /* \"#utility.yul\":6221:6227   */\n      0x00\n        /* \"#utility.yul\":6229:6235   */\n      dup1\n        /* \"#utility.yul\":6278:6280   */\n      0x40\n        /* \"#utility.yul\":6266:6275   */\n      dup4\n        /* \"#utility.yul\":6257:6264   */\n      dup6\n        /* \"#utility.yul\":6253:6276   */\n      sub\n        /* \"#utility.yul\":6249:6281   */\n      slt\n        /* \"#utility.yul\":6246:6365   */\n      iszero\n      tag_212\n      jumpi\n        /* \"#utility.yul\":6284:6363   */\n      tag_213\n      tag_87\n      jump\t// in\n    tag_213:\n        /* \"#utility.yul\":6246:6365   */\n    tag_212:\n        /* \"#utility.yul\":6404:6405   */\n      0x00\n        /* \"#utility.yul\":6429:6482   */\n      tag_214\n        /* \"#utility.yul\":6474:6481   */\n      dup6\n        /* \"#utility.yul\":6465:6471   */\n      dup3\n        /* \"#utility.yul\":6454:6463   */\n      dup7\n        /* \"#utility.yul\":6450:6472   */\n      add\n        /* \"#utility.yul\":6429:6482   */\n      tag_91\n      jump\t// in\n    tag_214:\n        /* \"#utility.yul\":6419:6482   */\n      swap3\n      pop\n        /* \"#utility.yul\":6375:6492   */\n      pop\n        /* \"#utility.yul\":6531:6533   */\n      0x20\n        /* \"#utility.yul\":6557:6610   */\n      tag_215\n        /* \"#utility.yul\":6602:6609   */\n      dup6\n        /* \"#utility.yul\":6593:6599   */\n      dup3\n        /* \"#utility.yul\":6582:6591   */\n      dup7\n        /* \"#utility.yul\":6578:6600   */\n      add\n        /* \"#utility.yul\":6557:6610   */\n      tag_91\n      jump\t// in\n    tag_215:\n        /* \"#utility.yul\":6547:6610   */\n      swap2\n      pop\n        /* \"#utility.yul\":6502:6620   */\n      pop\n        /* \"#utility.yul\":6153:6627   */\n      swap3\n      pop\n      swap3\n      swap1\n      pop\n      jump\t// out\n        /* \"#utility.yul\":6633:6751   */\n    tag_111:\n        /* \"#utility.yul\":6720:6744   */\n      tag_217\n        /* \"#utility.yul\":6738:6743   */\n      dup2\n        /* \"#utility.yul\":6720:6744   */\n      tag_96\n      jump\t// in\n    tag_217:\n        /* \"#utility.yul\":6715:6718   */\n      dup3\n        /* \"#utility.yul\":6708:6745   */\n      mstore\n        /* \"#utility.yul\":6633:6751   */\n      pop\n      pop\n      jump\t// out\n        /* \"#utility.yul\":6757:6979   */\n    tag_28:\n        /* \"#utility.yul\":6850:6854   */\n      0x00\n        /* \"#utility.yul\":6888:6890   */\n      0x20\n        /* \"#utility.yul\":6877:6886   */\n      dup3\n        /* \"#utility.yul\":6873:6891   */\n      add\n        /* \"#utility.yul\":6865:6891   */\n      swap1\n      pop\n        /* \"#utility.yul\":6901:6972   */\n      tag_219\n        /* \"#utility.yul\":6969:6970   */\n      0x00\n        /* \"#utility.yul\":6958:6967   */\n      dup4\n        /* \"#utility.yul\":6954:6971   */\n      add\n        /* \"#utility.yul\":6945:6951   */\n      dup5\n        /* \"#utility.yul\":6901:6972   */\n      tag_111\n      jump\t// in\n    tag_219:\n        /* \"#utility.yul\":6757:6979   */\n      swap3\n      swap2\n      pop\n      pop\n      jump\t// out\n        /* \"#utility.yul\":6985:7084   */\n    tag_112:\n        /* \"#utility.yul\":7037:7043   */\n      0x00\n        /* \"#utility.yul\":7071:7076   */\n      dup2\n        /* \"#utility.yul\":7065:7077   */\n      mload\n        /* \"#utility.yul\":7055:7077   */\n      swap1\n      pop\n        /* \"#utility.yul\":6985:7084   */\n      swap2\n      swap1\n      pop\n      jump\t// out\n        /* \"#utility.yul\":7090:7259   */\n    tag_113:\n        /* \"#utility.yul\":7174:7185   */\n      0x00\n        /* \"#utility.yul\":7208:7214   */\n      dup3\n        /* \"#utility.yul\":7203:7206   */\n      dup3\n        /* \"#utility.yul\":7196:7215   */\n      mstore\n        /* \"#utility.yul\":7248:7252   */\n      0x20\n        /* \"#utility.yul\":7243:7246   */\n      dup3\n        /* \"#utility.yul\":7239:7253   */\n      add\n        /* \"#utility.yul\":7224:7253   */\n      swap1\n      pop\n        /* \"#utility.yul\":7090:7259   */\n      swap3\n      swap2\n      pop\n      pop\n      jump\t// out\n        /* \"#utility.yul\":7265:7404   */\n    tag_114:\n        /* \"#utility.yul\":7354:7360   */\n      dup3\n        /* \"#utility.yul\":7349:7352   */\n      dup2\n        /* \"#utility.yul\":7344:7347   */\n      dup4\n        /* \"#utility.yul\":7338:7361   */\n      mcopy\n        /* \"#utility.yul\":7395:7396   */\n      0x00\n        /* \"#utility.yul\":7386:7392   */\n      dup4\n        /* \"#utility.yul\":7381:7384   */\n      dup4\n        /* \"#utility.yul\":7377:7393   */\n      add\n        /* \"#utility.yul\":7370:7397   */\n      mstore\n        /* \"#utility.yul\":7265:7404   */\n      pop\n      pop\n      pop\n      jump\t// out\n        /* \"#utility.yul\":7410:7787   */\n    tag_115:\n        /* \"#utility.yul\":7498:7501   */\n      0x00\n        /* \"#utility.yul\":7526:7565   */\n      tag_224\n        /* \"#utility.yul\":7559:7564   */\n      dup3\n        /* \"#utility.yul\":7526:7565   */\n      tag_112\n      jump\t// in\n    tag_224:\n        /* \"#utility.yul\":7581:7652   */\n      tag_225\n        /* \"#utility.yul\":7645:7651   */\n      dup2\n        /* \"#utility.yul\":7640:7643   */\n      dup6\n        /* \"#utility.yul\":7581:7652   */\n      tag_113\n      jump\t// in\n    tag_225:\n        /* \"#utility.yul\":7574:7652   */\n      swap4\n      pop\n        /* \"#utility.yul\":7661:7726   */\n      tag_226\n        /* \"#utility.yul\":7719:7725   */\n      dup2\n        /* \"#utility.yul\":7714:7717   */\n      dup6\n        /* \"#utility.yul\":7707:7711   */\n      0x20\n        /* \"#utility.yul\":7700:7705   */\n      dup7\n        /* \"#utility.yul\":7696:7712   */\n      add\n        /* \"#utility.yul\":7661:7726   */\n      tag_114\n      jump\t// in\n    tag_226:\n        /* \"#utility.yul\":7751:7780   */\n      tag_227\n        /* \"#utility.yul\":7773:7779   */\n      dup2\n        /* \"#utility.yul\":7751:7780   */\n      tag_103\n      jump\t// in\n    tag_227:\n        /* \"#utility.yul\":7746:7749   */\n      dup5\n        /* \"#utility.yul\":7742:7781   */\n      add\n        /* \"#utility.yul\":7735:7781   */\n      swap2\n      pop\n        /* \"#utility.yul\":7502:7787   */\n      pop\n        /* \"#utility.yul\":7410:7787   */\n      swap3\n      swap2\n      pop\n      pop\n      jump\t// out\n        /* \"#utility.yul\":7793:7911   */\n    tag_116:\n        /* \"#utility.yul\":7880:7904   */\n      tag_229\n        /* \"#utility.yul\":7898:7903   */\n      dup2\n        /* \"#utility.yul\":7880:7904   */\n      tag_89\n      jump\t// in\n    tag_229:\n        /* \"#utility.yul\":7875:7878   */\n      dup3\n        /* \"#utility.yul\":7868:7905   */\n      mstore\n        /* \"#utility.yul\":7793:7911   */\n      pop\n      pop\n      jump\t// out\n        /* \"#utility.yul\":7917:8007   */\n    tag_117:\n        /* \"#utility.yul\":7951:7958   */\n      0x00\n        /* \"#utility.yul\":7994:7999   */\n      dup2\n        /* \"#utility.yul\":7987:8000   */\n      iszero\n        /* \"#utility.yul\":7980:8001   */\n      iszero\n        /* \"#utility.yul\":7969:8001   */\n      swap1\n      pop\n        /* \"#utility.yul\":7917:8007   */\n      swap2\n      swap1\n      pop\n      jump\t// out\n        /* \"#utility.yul\":8013:8122   */\n    tag_118:\n        /* \"#utility.yul\":8094:8115   */\n      tag_232\n        /* \"#utility.yul\":8109:8114   */\n      dup2\n        /* \"#utility.yul\":8094:8115   */\n      tag_117\n      jump\t// in\n    tag_232:\n        /* \"#utility.yul\":8089:8092   */\n      dup3\n        /* \"#utility.yul\":8082:8116   */\n      mstore\n        /* \"#utility.yul\":8013:8122   */\n      pop\n      pop\n      jump\t// out\n        /* \"#utility.yul\":8128:8649   */\n    tag_45:\n        /* \"#utility.yul\":8291:8295   */\n      0x00\n        /* \"#utility.yul\":8329:8331   */\n      0x60\n        /* \"#utility.yul\":8318:8327   */\n      dup3\n        /* \"#utility.yul\":8314:8332   */\n      add\n        /* \"#utility.yul\":8306:8332   */\n      swap1\n      pop\n        /* \"#utility.yul\":8378:8387   */\n      dup2\n        /* \"#utility.yul\":8372:8376   */\n      dup2\n        /* \"#utility.yul\":8368:8388   */\n      sub\n        /* \"#utility.yul\":8364:8365   */\n      0x00\n        /* \"#utility.yul\":8353:8362   */\n      dup4\n        /* \"#utility.yul\":8349:8366   */\n      add\n        /* \"#utility.yul\":8342:8389   */\n      mstore\n        /* \"#utility.yul\":8406:8484   */\n      tag_234\n        /* \"#utility.yul\":8479:8483   */\n      dup2\n        /* \"#utility.yul\":8470:8476   */\n      dup7\n        /* \"#utility.yul\":8406:8484   */\n      tag_115\n      jump\t// in\n    tag_234:\n        /* \"#utility.yul\":8398:8484   */\n      swap1\n      pop\n        /* \"#utility.yul\":8494:8566   */\n      tag_235\n        /* \"#utility.yul\":8562:8564   */\n      0x20\n        /* \"#utility.yul\":8551:8560   */\n      dup4\n        /* \"#utility.yul\":8547:8565   */\n      add\n        /* \"#utility.yul\":8538:8544   */\n      dup6\n        /* \"#utility.yul\":8494:8566   */\n      tag_116\n      jump\t// in\n    tag_235:\n        /* \"#utility.yul\":8576:8642   */\n      tag_236\n        /* \"#utility.yul\":8638:8640   */\n      0x40\n        /* \"#utility.yul\":8627:8636   */\n      dup4\n        /* \"#utility.yul\":8623:8641   */\n      add\n        /* \"#utility.yul\":8614:8620   */\n      dup5\n        /* \"#utility.yul\":8576:8642   */\n      tag_118\n      jump\t// in\n    tag_236:\n        /* \"#utility.yul\":8128:8649   */\n      swap5\n      swap4\n      pop\n      pop\n      pop\n      pop\n      jump\t// out\n        /* \"#utility.yul\":8655:8877   */\n    tag_49:\n        /* \"#utility.yul\":8748:8752   */\n      0x00\n        /* \"#utility.yul\":8786:8788   */\n      0x20\n        /* \"#utility.yul\":8775:8784   */\n      dup3\n        /* \"#utility.yul\":8771:8789   */\n      add\n        /* \"#utility.yul\":8763:8789   */\n      swap1\n      pop\n        /* \"#utility.yul\":8799:8870   */\n      tag_238\n        /* \"#utility.yul\":8867:8868   */\n      0x00\n        /* \"#utility.yul\":8856:8865   */\n      dup4\n        /* \"#utility.yul\":8852:8869   */\n      add\n        /* \"#utility.yul\":8843:8849   */\n      dup5\n        /* \"#utility.yul\":8799:8870   */\n      tag_116\n      jump\t// in\n    tag_238:\n        /* \"#utility.yul\":8655:8877   */\n      swap3\n      swap2\n      pop\n      pop\n      jump\t// out\n        /* \"#utility.yul\":8883:9064   */\n    tag_119:\n        /* \"#utility.yul\":9023:9056   */\n      0x4f6e6c7920286f7267616e697a6174696f6e2920686176652061636365737300\n        /* \"#utility.yul\":9019:9020   */\n      0x00\n        /* \"#utility.yul\":9011:9017   */\n      dup3\n        /* \"#utility.yul\":9007:9021   */\n      add\n        /* \"#utility.yul\":9000:9057   */\n      mstore\n        /* \"#utility.yul\":8883:9064   */\n      pop\n      jump\t// out\n        /* \"#utility.yul\":9070:9436   */\n    tag_120:\n        /* \"#utility.yul\":9212:9215   */\n      0x00\n        /* \"#utility.yul\":9233:9300   */\n      tag_241\n        /* \"#utility.yul\":9297:9299   */\n      0x1f\n        /* \"#utility.yul\":9292:9295   */\n      dup4\n        /* \"#utility.yul\":9233:9300   */\n      tag_113\n      jump\t// in\n    tag_241:\n        /* \"#utility.yul\":9226:9300   */\n      swap2\n      pop\n        /* \"#utility.yul\":9309:9402   */\n      tag_242\n        /* \"#utility.yul\":9398:9401   */\n      dup3\n        /* \"#utility.yul\":9309:9402   */\n      tag_119\n      jump\t// in\n    tag_242:\n        /* \"#utility.yul\":9427:9429   */\n      0x20\n        /* \"#utility.yul\":9422:9425   */\n      dup3\n        /* \"#utility.yul\":9418:9430   */\n      add\n        /* \"#utility.yul\":9411:9430   */\n      swap1\n      pop\n        /* \"#utility.yul\":9070:9436   */\n      swap2\n      swap1\n      pop\n      jump\t// out\n        /* \"#utility.yul\":9442:9861   */\n    tag_56:\n        /* \"#utility.yul\":9608:9612   */\n      0x00\n        /* \"#utility.yul\":9646:9648   */\n      0x20\n        /* \"#utility.yul\":9635:9644   */\n      dup3\n        /* \"#utility.yul\":9631:9649   */\n      add\n        /* \"#utility.yul\":9623:9649   */\n      swap1\n      pop\n        /* \"#utility.yul\":9695:9704   */\n      dup2\n        /* \"#utility.yul\":9689:9693   */\n      dup2\n        /* \"#utility.yul\":9685:9705   */\n      sub\n        /* \"#utility.yul\":9681:9682   */\n      0x00\n        /* \"#utility.yul\":9670:9679   */\n      dup4\n        /* \"#utility.yul\":9666:9683   */\n      add\n        /* \"#utility.yul\":9659:9706   */\n      mstore\n        /* \"#utility.yul\":9723:9854   */\n      tag_244\n        /* \"#utility.yul\":9849:9853   */\n      dup2\n        /* \"#utility.yul\":9723:9854   */\n      tag_120\n      jump\t// in\n    tag_244:\n        /* \"#utility.yul\":9715:9854   */\n      swap1\n      pop\n        /* \"#utility.yul\":9442:9861   */\n      swap2\n      swap1\n      pop\n      jump\t// out\n        /* \"#utility.yul\":9867:10047   */\n    tag_121:\n        /* \"#utility.yul\":9915:9992   */\n      0x4e487b7100000000000000000000000000000000000000000000000000000000\n        /* \"#utility.yul\":9912:9913   */\n      0x00\n        /* \"#utility.yul\":9905:9993   */\n      mstore\n        /* \"#utility.yul\":10012:10016   */\n      0x22\n        /* \"#utility.yul\":10009:10010   */\n      0x04\n        /* \"#utility.yul\":10002:10017   */\n      mstore\n        /* \"#utility.yul\":10036:10040   */\n      0x24\n        /* \"#utility.yul\":10033:10034   */\n      0x00\n        /* \"#utility.yul\":10026:10041   */\n      revert\n        /* \"#utility.yul\":10053:10373   */\n    tag_66:\n        /* \"#utility.yul\":10097:10103   */\n      0x00\n        /* \"#utility.yul\":10134:10135   */\n      0x02\n        /* \"#utility.yul\":10128:10132   */\n      dup3\n        /* \"#utility.yul\":10124:10136   */\n      div\n        /* \"#utility.yul\":10114:10136   */\n      swap1\n      pop\n        /* \"#utility.yul\":10181:10182   */\n      0x01\n        /* \"#utility.yul\":10175:10179   */\n      dup3\n        /* \"#utility.yul\":10171:10183   */\n      and\n        /* \"#utility.yul\":10202:10220   */\n      dup1\n        /* \"#utility.yul\":10192:10273   */\n      tag_247\n      jumpi\n        /* \"#utility.yul\":10258:10262   */\n      0x7f\n        /* \"#utility.yul\":10250:10256   */\n      dup3\n        /* \"#utility.yul\":10246:10263   */\n      and\n        /* \"#utility.yul\":10236:10263   */\n      swap2\n      pop\n        /* \"#utility.yul\":10192:10273   */\n    tag_247:\n        /* \"#utility.yul\":10320:10322   */\n      0x20\n        /* \"#utility.yul\":10312:10318   */\n      dup3\n        /* \"#utility.yul\":10309:10323   */\n      lt\n        /* \"#utility.yul\":10289:10307   */\n      dup2\n        /* \"#utility.yul\":10286:10324   */\n      sub\n        /* \"#utility.yul\":10283:10367   */\n      tag_248\n      jumpi\n        /* \"#utility.yul\":10339:10357   */\n      tag_249\n      tag_121\n      jump\t// in\n    tag_249:\n        /* \"#utility.yul\":10283:10367   */\n    tag_248:\n        /* \"#utility.yul\":10104:10373   */\n      pop\n        /* \"#utility.yul\":10053:10373   */\n      swap2\n      swap1\n      pop\n      jump\t// out\n        /* \"#utility.yul\":10379:10520   */\n    tag_122:\n        /* \"#utility.yul\":10428:10432   */\n      0x00\n        /* \"#utility.yul\":10451:10454   */\n      dup2\n        /* \"#utility.yul\":10443:10454   */\n      swap1\n      pop\n        /* \"#utility.yul\":10474:10477   */\n      dup2\n        /* \"#utility.yul\":10471:10472   */\n      0x00\n        /* \"#utility.yul\":10464:10478   */\n      mstore\n        /* \"#utility.yul\":10508:10512   */\n      0x20\n        /* \"#utility.yul\":10505:10506   */\n      0x00\n        /* \"#utility.yul\":10495:10513   */\n      keccak256\n        /* \"#utility.yul\":10487:10513   */\n      swap1\n      pop\n        /* \"#utility.yul\":10379:10520   */\n      swap2\n      swap1\n      pop\n      jump\t// out\n        /* \"#utility.yul\":10526:10619   */\n    tag_123:\n        /* \"#utility.yul\":10563:10569   */\n      0x00\n        /* \"#utility.yul\":10610:10612   */\n      0x20\n        /* \"#utility.yul\":10605:10607   */\n      0x1f\n        /* \"#utility.yul\":10598:10603   */\n      dup4\n        /* \"#utility.yul\":10594:10608   */\n      add\n        /* \"#utility.yul\":10590:10613   */\n      div\n        /* \"#utility.yul\":10580:10613   */\n      swap1\n      pop\n        /* \"#utility.yul\":10526:10619   */\n      swap2\n      swap1\n      pop\n      jump\t// out\n        /* \"#utility.yul\":10625:10732   */\n    tag_124:\n        /* \"#utility.yul\":10669:10677   */\n      0x00\n        /* \"#utility.yul\":10719:10724   */\n      dup3\n        /* \"#utility.yul\":10713:10717   */\n      dup3\n        /* \"#utility.yul\":10709:10725   */\n      shl\n        /* \"#utility.yul\":10688:10725   */\n      swap1\n      pop\n        /* \"#utility.yul\":10625:10732   */\n      swap3\n      swap2\n      pop\n      pop\n      jump\t// out\n        /* \"#utility.yul\":10738:11131   */\n    tag_125:\n        /* \"#utility.yul\":10807:10813   */\n      0x00\n        /* \"#utility.yul\":10857:10858   */\n      0x08\n        /* \"#utility.yul\":10845:10855   */\n      dup4\n        /* \"#utility.yul\":10841:10859   */\n      mul\n        /* \"#utility.yul\":10880:10977   */\n      tag_254\n        /* \"#utility.yul\":10910:10976   */\n      0xffffffffffffffffffffffffffffffffffffffffffffffffffffffffffffffff\n        /* \"#utility.yul\":10899:10908   */\n      dup3\n        /* \"#utility.yul\":10880:10977   */\n      tag_124\n      jump\t// in\n    tag_254:\n        /* \"#utility.yul\":10998:11037   */\n      tag_255\n        /* \"#utility.yul\":11028:11036   */\n      dup7\n        /* \"#utility.yul\":11017:11026   */\n      dup4\n        /* \"#utility.yul\":10998:11037   */\n      tag_124\n      jump\t// in\n    tag_255:\n        /* \"#utility.yul\":10986:11037   */\n      swap6\n      pop\n        /* \"#utility.yul\":11070:11074   */\n      dup1\n        /* \"#utility.yul\":11066:11075   */\n      not\n        /* \"#utility.yul\":11059:11064   */\n      dup5\n        /* \"#utility.yul\":11055:11076   */\n      and\n        /* \"#utility.yul\":11046:11076   */\n      swap4\n      pop\n        /* \"#utility.yul\":11119:11123   */\n      dup1\n        /* \"#utility.yul\":11109:11117   */\n      dup7\n        /* \"#utility.yul\":11105:11124   */\n      and\n        /* \"#utility.yul\":11098:11103   */\n      dup5\n        /* \"#utility.yul\":11095:11125   */\n      or\n        /* \"#utility.yul\":11085:11125   */\n      swap3\n      pop\n        /* \"#utility.yul\":10814:11131   */\n      pop\n      pop\n        /* \"#utility.yul\":10738:11131   */\n      swap4\n      swap3\n      pop\n      pop\n      pop\n      jump\t// out\n        /* \"#utility.yul\":11137:11197   */\n    tag_126:\n        /* \"#utility.yul\":11165:11168   */\n      0x00\n        /* \"#utility.yul\":11186:11191   */\n      dup2\n        /* \"#utility.yul\":11179:11191   */\n      swap1\n      pop\n        /* \"#utility.yul\":11137:11197   */\n      swap2\n      swap1\n      pop\n      jump\t// out\n        /* \"#utility.yul\":11203:11345   */\n    tag_127:\n        /* \"#utility.yul\":11253:11262   */\n      0x00\n        /* \"#utility.yul\":11286:11339   */\n      tag_258\n        /* \"#utility.yul\":11304:11338   */\n      tag_259\n        /* \"#utility.yul\":11313:11337   */\n      tag_260\n        /* \"#utility.yul\":11331:11336   */\n      dup5\n        /* \"#utility.yul\":11313:11337   */\n      tag_89\n      jump\t// in\n    tag_260:\n        /* \"#utility.yul\":11304:11338   */\n      tag_126\n      jump\t// in\n    tag_259:\n        /* \"#utility.yul\":11286:11339   */\n      tag_89\n      jump\t// in\n    tag_258:\n        /* \"#utility.yul\":11273:11339   */\n      swap1\n      pop\n        /* \"#utility.yul\":11203:11345   */\n      swap2\n      swap1\n      pop\n      jump\t// out\n        /* \"#utility.yul\":11351:11426   */\n    tag_128:\n        /* \"#utility.yul\":11394:11397   */\n      0x00\n        /* \"#utility.yul\":11415:11420   */\n      dup2\n        /* \"#utility.yul\":11408:11420   */\n      swap1\n      pop\n        /* \"#utility.yul\":11351:11426   */\n      swap2\n      swap1\n      pop\n      jump\t// out\n        /* \"#utility.yul\":11432:11701   */\n    tag_129:\n        /* \"#utility.yul\":11542:11581   */\n      tag_263\n        /* \"#utility.yul\":11573:11580   */\n      dup4\n        /* \"#utility.yul\":11542:11581   */\n      tag_127\n      jump\t// in\n    tag_263:\n        /* \"#utility.yul\":11603:11694   */\n      tag_264\n        /* \"#utility.yul\":11652:11693   */\n      tag_265\n        /* \"#utility.yul\":11676:11692   */\n      dup3\n        /* \"#utility.yul\":11652:11693   */\n      tag_128\n      jump\t// in\n    tag_265:\n        /* \"#utility.yul\":11644:11650   */\n      dup5\n        /* \"#utility.yul\":11637:11641   */\n      dup5\n        /* \"#utility.yul\":11631:11642   */\n      sload\n        /* \"#utility.yul\":11603:11694   */\n      tag_125\n      jump\t// in\n    tag_264:\n        /* \"#utility.yul\":11597:11601   */\n      dup3\n        /* \"#utility.yul\":11590:11695   */\n      sstore\n        /* \"#utility.yul\":11508:11701   */\n      pop\n        /* \"#utility.yul\":11432:11701   */\n      pop\n      pop\n      pop\n      jump\t// out\n        /* \"#utility.yul\":11707:11780   */\n    tag_130:\n        /* \"#utility.yul\":11752:11755   */\n      0x00\n        /* \"#utility.yul\":11707:11780   */\n      swap1\n      jump\t// out\n        /* \"#utility.yul\":11786:11975   */\n    tag_131:\n        /* \"#utility.yul\":11863:11895   */\n      tag_268\n      tag_130\n      jump\t// in\n    tag_268:\n        /* \"#utility.yul\":11904:11969   */\n      tag_269\n        /* \"#utility.yul\":11962:11968   */\n      dup2\n        /* \"#utility.yul\":11954:11960   */\n      dup5\n        /* \"#utility.yul\":11948:11952   */\n      dup5\n        /* \"#utility.yul\":11904:11969   */\n      tag_129\n      jump\t// in\n    tag_269:\n        /* \"#utility.yul\":11839:11975   */\n      pop\n        /* \"#utility.yul\":11786:11975   */\n      pop\n      pop\n      jump\t// out\n        /* \"#utility.yul\":11981:12167   */\n    tag_132:\n        /* \"#utility.yul\":12041:12161   */\n    tag_271:\n        /* \"#utility.yul\":12058:12061   */\n      dup2\n        /* \"#utility.yul\":12051:12056   */\n      dup2\n        /* \"#utility.yul\":12048:12062   */\n      lt\n        /* \"#utility.yul\":12041:12161   */\n      iszero\n      tag_273\n      jumpi\n        /* \"#utility.yul\":12112:12151   */\n      tag_274\n        /* \"#utility.yul\":12149:12150   */\n      0x00\n        /* \"#utility.yul\":12142:12147   */\n      dup3\n        /* \"#utility.yul\":12112:12151   */\n      tag_131\n      jump\t// in\n    tag_274:\n        /* \"#utility.yul\":12085:12086   */\n      0x01\n        /* \"#utility.yul\":12078:12083   */\n      dup2\n        /* \"#utility.yul\":12074:12087   */\n      add\n        /* \"#utility.yul\":12065:12087   */\n      swap1\n      pop\n        /* \"#utility.yul\":12041:12161   */\n      jump(tag_271)\n    tag_273:\n        /* \"#utility.yul\":11981:12167   */\n      pop\n      pop\n      jump\t// out\n        /* \"#utility.yul\":12173:12716   */\n    tag_133:\n        /* \"#utility.yul\":12274:12276   */\n      0x1f\n        /* \"#utility.yul\":12269:12272   */\n      dup3\n        /* \"#utility.yul\":12266:12277   */\n      gt\n        /* \"#utility.yul\":12263:12709   */\n      iszero\n      tag_276\n      jumpi\n        /* \"#utility.yul\":12308:12346   */\n      tag_277\n        /* \"#utility.yul\":12340:12345   */\n      dup2\n        /* \"#utility.yul\":12308:12346   */\n      tag_122\n      jump\t// in\n    tag_277:\n        /* \"#utility.yul\":12392:12421   */\n      tag_278\n        /* \"#utility.yul\":12410:12420   */\n      dup5\n        /* \"#utility.yul\":12392:12421   */\n      tag_123\n      jump\t// in\n    tag_278:\n        /* \"#utility.yul\":12382:12390   */\n      dup2\n        /* \"#utility.yul\":12378:12422   */\n      add\n        /* \"#utility.yul\":12575:12577   */\n      0x20\n        /* \"#utility.yul\":12563:12573   */\n      dup6\n        /* \"#utility.yul\":12560:12578   */\n      lt\n        /* \"#utility.yul\":12557:12606   */\n      iszero\n      tag_279\n      jumpi\n        /* \"#utility.yul\":12596:12604   */\n      dup2\n        /* \"#utility.yul\":12581:12604   */\n      swap1\n      pop\n        /* \"#utility.yul\":12557:12606   */\n    tag_279:\n        /* \"#utility.yul\":12619:12699   */\n      tag_280\n        /* \"#utility.yul\":12675:12697   */\n      tag_281\n        /* \"#utility.yul\":12693:12696   */\n      dup6\n        /* \"#utility.yul\":12675:12697   */\n      tag_123\n      jump\t// in\n    tag_281:\n        /* \"#utility.yul\":12665:12673   */\n      dup4\n        /* \"#utility.yul\":12661:12698   */\n      add\n        /* \"#utility.yul\":12648:12659   */\n      dup3\n        /* \"#utility.yul\":12619:12699   */\n      tag_132\n      jump\t// in\n    tag_280:\n        /* \"#utility.yul\":12278:12709   */\n      pop\n      pop\n        /* \"#utility.yul\":12263:12709   */\n    tag_276:\n        /* \"#utility.yul\":12173:12716   */\n      pop\n      pop\n      pop\n      jump\t// out\n        /* \"#utility.yul\":12722:12839   */\n    tag_134:\n        /* \"#utility.yul\":12776:12784   */\n      0x00\n        /* \"#utility.yul\":12826:12831   */\n      dup3\n        /* \"#utility.yul\":12820:12824   */\n      dup3\n        /* \"#utility.yul\":12816:12832   */\n      shr\n        /* \"#utility.yul\":12795:12832   */\n      swap1\n      pop\n        /* \"#utility.yul\":12722:12839   */\n      swap3\n      swap2\n      pop\n      pop\n      jump\t// out\n        /* \"#utility.yul\":12845:13014   */\n    tag_135:\n        /* \"#utility.yul\":12889:12895   */\n      0x00\n        /* \"#utility.yul\":12922:12973   */\n      tag_284\n        /* \"#utility.yul\":12970:12971   */\n      0x00\n        /* \"#utility.yul\":12966:12972   */\n      not\n        /* \"#utility.yul\":12958:12963   */\n      dup5\n        /* \"#utility.yul\":12955:12956   */\n      0x08\n        /* \"#utility.yul\":12951:12964   */\n      mul\n        /* \"#utility.yul\":12922:12973   */\n      tag_134\n      jump\t// in\n    tag_284:\n        /* \"#utility.yul\":12918:12974   */\n      not\n        /* \"#utility.yul\":13003:13007   */\n      dup1\n        /* \"#utility.yul\":12997:13001   */\n      dup4\n        /* \"#utility.yul\":12993:13008   */\n      and\n        /* \"#utility.yul\":12983:13008   */\n      swap2\n      pop\n        /* \"#utility.yul\":12896:13014   */\n      pop\n        /* \"#utility.yul\":12845:13014   */\n      swap3\n      swap2\n      pop\n      pop\n      jump\t// out\n        /* \"#utility.yul\":13019:13314   */\n    tag_136:\n        /* \"#utility.yul\":13095:13099   */\n      0x00\n        /* \"#utility.yul\":13241:13270   */\n      tag_286\n        /* \"#utility.yul\":13266:13269   */\n      dup4\n        /* \"#utility.yul\":13260:13264   */\n      dup4\n        /* \"#utility.yul\":13241:13270   */\n      tag_135\n      jump\t// in\n    tag_286:\n        /* \"#utility.yul\":13233:13270   */\n      swap2\n      pop\n        /* \"#utility.yul\":13303:13306   */\n      dup3\n        /* \"#utility.yul\":13300:13301   */\n      0x02\n        /* \"#utility.yul\":13296:13307   */\n      mul\n        /* \"#utility.yul\":13290:13294   */\n      dup3\n        /* \"#utility.yul\":13287:13308   */\n      or\n        /* \"#utility.yul\":13279:13308   */\n      swap1\n      pop\n        /* \"#utility.yul\":13019:13314   */\n      swap3\n      swap2\n      pop\n      pop\n      jump\t// out\n        /* \"#utility.yul\":13319:14714   */\n    tag_59:\n        /* \"#utility.yul\":13436:13473   */\n      tag_288\n        /* \"#utility.yul\":13469:13472   */\n      dup3\n        /* \"#utility.yul\":13436:13473   */\n      tag_112\n      jump\t// in\n    tag_288:\n        /* \"#utility.yul\":13538:13556   */\n      0xffffffffffffffff\n        /* \"#utility.yul\":13530:13536   */\n      dup2\n        /* \"#utility.yul\":13527:13557   */\n      gt\n        /* \"#utility.yul\":13524:13580   */\n      iszero\n      tag_289\n      jumpi\n        /* \"#utility.yul\":13560:13578   */\n      tag_290\n      tag_104\n      jump\t// in\n    tag_290:\n        /* \"#utility.yul\":13524:13580   */\n    tag_289:\n        /* \"#utility.yul\":13604:13642   */\n      tag_291\n        /* \"#utility.yul\":13636:13640   */\n      dup3\n        /* \"#utility.yul\":13630:13641   */\n      sload\n        /* \"#utility.yul\":13604:13642   */\n      tag_66\n      jump\t// in\n    tag_291:\n        /* \"#utility.yul\":13689:13756   */\n      tag_292\n        /* \"#utility.yul\":13749:13755   */\n      dup3\n        /* \"#utility.yul\":13741:13747   */\n      dup3\n        /* \"#utility.yul\":13735:13739   */\n      dup6\n        /* \"#utility.yul\":13689:13756   */\n      tag_133\n      jump\t// in\n    tag_292:\n        /* \"#utility.yul\":13783:13784   */\n      0x00\n        /* \"#utility.yul\":13807:13811   */\n      0x20\n        /* \"#utility.yul\":13794:13811   */\n      swap1\n      pop\n        /* \"#utility.yul\":13839:13841   */\n      0x1f\n        /* \"#utility.yul\":13831:13837   */\n      dup4\n        /* \"#utility.yul\":13828:13842   */\n      gt\n        /* \"#utility.yul\":13856:13857   */\n      0x01\n        /* \"#utility.yul\":13851:14469   */\n      dup2\n      eq\n      tag_294\n      jumpi\n        /* \"#utility.yul\":14513:14514   */\n      0x00\n        /* \"#utility.yul\":14530:14536   */\n      dup5\n        /* \"#utility.yul\":14527:14604   */\n      iszero\n      tag_295\n      jumpi\n        /* \"#utility.yul\":14579:14588   */\n      dup3\n        /* \"#utility.yul\":14574:14577   */\n      dup8\n        /* \"#utility.yul\":14570:14589   */\n      add\n        /* \"#utility.yul\":14564:14590   */\n      mload\n        /* \"#utility.yul\":14555:14590   */\n      swap1\n      pop\n        /* \"#utility.yul\":14527:14604   */\n    tag_295:\n        /* \"#utility.yul\":14630:14697   */\n      tag_296\n        /* \"#utility.yul\":14690:14696   */\n      dup6\n        /* \"#utility.yul\":14683:14688   */\n      dup3\n        /* \"#utility.yul\":14630:14697   */\n      tag_136\n      jump\t// in\n    tag_296:\n        /* \"#utility.yul\":14624:14628   */\n      dup7\n        /* \"#utility.yul\":14617:14698   */\n      sstore\n        /* \"#utility.yul\":14486:14708   */\n      pop\n        /* \"#utility.yul\":13821:14708   */\n      jump(tag_293)\n        /* \"#utility.yul\":13851:14469   */\n    tag_294:\n        /* \"#utility.yul\":13903:13907   */\n      0x1f\n        /* \"#utility.yul\":13899:13908   */\n      not\n        /* \"#utility.yul\":13891:13897   */\n      dup5\n        /* \"#utility.yul\":13887:13909   */\n      and\n        /* \"#utility.yul\":13937:13974   */\n      tag_297\n        /* \"#utility.yul\":13969:13973   */\n      dup7\n        /* \"#utility.yul\":13937:13974   */\n      tag_122\n      jump\t// in\n    tag_297:\n        /* \"#utility.yul\":13996:13997   */\n      0x00\n        /* \"#utility.yul\":14010:14218   */\n    tag_298:\n        /* \"#utility.yul\":14024:14031   */\n      dup3\n        /* \"#utility.yul\":14021:14022   */\n      dup2\n        /* \"#utility.yul\":14018:14032   */\n      lt\n        /* \"#utility.yul\":14010:14218   */\n      iszero\n      tag_300\n      jumpi\n        /* \"#utility.yul\":14103:14112   */\n      dup5\n        /* \"#utility.yul\":14098:14101   */\n      dup10\n        /* \"#utility.yul\":14094:14113   */\n      add\n        /* \"#utility.yul\":14088:14114   */\n      mload\n        /* \"#utility.yul\":14080:14086   */\n      dup3\n        /* \"#utility.yul\":14073:14115   */\n      sstore\n        /* \"#utility.yul\":14154:14155   */\n      0x01\n        /* \"#utility.yul\":14146:14152   */\n      dup3\n        /* \"#utility.yul\":14142:14156   */\n      add\n        /* \"#utility.yul\":14132:14156   */\n      swap2\n      pop\n        /* \"#utility.yul\":14201:14203   */\n      0x20\n        /* \"#utility.yul\":14190:14199   */\n      dup6\n        /* \"#utility.yul\":14186:14204   */\n      add\n        /* \"#utility.yul\":14173:14204   */\n      swap5\n      pop\n        /* \"#utility.yul\":14047:14051   */\n      0x20\n        /* \"#utility.yul\":14044:14045   */\n      dup2\n        /* \"#utility.yul\":14040:14052   */\n      add\n        /* \"#utility.yul\":14035:14052   */\n      swap1\n      pop\n        /* \"#utility.yul\":14010:14218   */\n      jump(tag_298)\n    tag_300:\n        /* \"#utility.yul\":14246:14252   */\n      dup7\n        /* \"#utility.yul\":14237:14244   */\n      dup4\n        /* \"#utility.yul\":14234:14253   */\n      lt\n        /* \"#utility.yul\":14231:14410   */\n      iszero\n      tag_301\n      jumpi\n        /* \"#utility.yul\":14304:14313   */\n      dup5\n        /* \"#utility.yul\":14299:14302   */\n      dup10\n        /* \"#utility.yul\":14295:14314   */\n      add\n        /* \"#utility.yul\":14289:14315   */\n      mload\n        /* \"#utility.yul\":14347:14395   */\n      tag_302\n        /* \"#utility.yul\":14389:14393   */\n      0x1f\n        /* \"#utility.yul\":14381:14387   */\n      dup10\n        /* \"#utility.yul\":14377:14394   */\n      and\n        /* \"#utility.yul\":14366:14375   */\n      dup3\n        /* \"#utility.yul\":14347:14395   */\n      tag_135\n      jump\t// in\n    tag_302:\n        /* \"#utility.yul\":14339:14345   */\n      dup4\n        /* \"#utility.yul\":14332:14396   */\n      sstore\n        /* \"#utility.yul\":14254:14410   */\n      pop\n        /* \"#utility.yul\":14231:14410   */\n    tag_301:\n        /* \"#utility.yul\":14456:14457   */\n      0x01\n        /* \"#utility.yul\":14452:14453   */\n      0x02\n        /* \"#utility.yul\":14444:14450   */\n      dup9\n        /* \"#utility.yul\":14440:14454   */\n      mul\n        /* \"#utility.yul\":14436:14458   */\n      add\n        /* \"#utility.yul\":14430:14434   */\n      dup9\n        /* \"#utility.yul\":14423:14459   */\n      sstore\n        /* \"#utility.yul\":13858:14469   */\n      pop\n      pop\n      pop\n        /* \"#utility.yul\":13821:14708   */\n    tag_293:\n      pop\n        /* \"#utility.yul\":13411:14714   */\n      pop\n      pop\n      pop\n        /* \"#utility.yul\":13319:14714   */\n      pop\n      pop\n      jump\t// out\n        /* \"#utility.yul\":14720:14900   */\n    tag_137:\n        /* \"#utility.yul\":14768:14845   */\n      0x4e487b7100000000000000000000000000000000000000000000000000000000\n        /* \"#utility.yul\":14765:14766   */\n      0x00\n        /* \"#utility.yul\":14758:14846   */\n      mstore\n        /* \"#utility.yul\":14865:14869   */\n      0x11\n        /* \"#utility.yul\":14862:14863   */\n      0x04\n        /* \"#utility.yul\":14855:14870   */\n      mstore\n        /* \"#utility.yul\":14889:14893   */\n      0x24\n        /* \"#utility.yul\":14886:14887   */\n      0x00\n        /* \"#utility.yul\":14879:14894   */\n      revert\n        /* \"#utility.yul\":14906:15139   */\n    tag_61:\n        /* \"#utility.yul\":14945:14948   */\n      0x00\n        /* \"#utility.yul\":14968:14992   */\n      tag_305\n        /* \"#utility.yul\":14986:14991   */\n      dup3\n        /* \"#utility.yul\":14968:14992   */\n      tag_89\n      jump\t// in\n    tag_305:\n        /* \"#utility.yul\":14959:14992   */\n      swap2\n      pop\n        /* \"#utility.yul\":15014:15080   */\n      0xffffffffffffffffffffffffffffffffffffffffffffffffffffffffffffffff\n        /* \"#utility.yul\":15007:15012   */\n      dup3\n        /* \"#utility.yul\":15004:15081   */\n      sub\n        /* \"#utility.yul\":15001:15104   */\n      tag_306\n      jumpi\n        /* \"#utility.yul\":15084:15102   */\n      tag_307\n      tag_137\n      jump\t// in\n    tag_307:\n        /* \"#utility.yul\":15001:15104   */\n    tag_306:\n        /* \"#utility.yul\":15131:15132   */\n      0x01\n        /* \"#utility.yul\":15124:15129   */\n      dup3\n        /* \"#utility.yul\":15120:15133   */\n      add\n        /* \"#utility.yul\":15113:15133   */\n      swap1\n      pop\n        /* \"#utility.yul\":14906:15139   */\n      swap2\n      swap1\n      pop\n      jump\t// out\n        /* \"#utility.yul\":15145:15310   */\n    tag_138:\n        /* \"#utility.yul\":15285:15302   */\n      0x506f6f6c206e6f74206163746976650000000000000000000000000000000000\n        /* \"#utility.yul\":15281:15282   */\n      0x00\n        /* \"#utility.yul\":15273:15279   */\n      dup3\n        /* \"#utility.yul\":15269:15283   */\n      add\n        /* \"#utility.yul\":15262:15303   */\n      mstore\n        /* \"#utility.yul\":15145:15310   */\n      pop\n      jump\t// out\n        /* \"#utility.yul\":15316:15682   */\n    tag_139:\n        /* \"#utility.yul\":15458:15461   */\n      0x00\n        /* \"#utility.yul\":15479:15546   */\n      tag_310\n        /* \"#utility.yul\":15543:15545   */\n      0x0f\n        /* \"#utility.yul\":15538:15541   */\n      dup4\n        /* \"#utility.yul\":15479:15546   */\n      tag_113\n      jump\t// in\n    tag_310:\n        /* \"#utility.yul\":15472:15546   */\n      swap2\n      pop\n        /* \"#utility.yul\":15555:15648   */\n      tag_311\n        /* \"#utility.yul\":15644:15647   */\n      dup3\n        /* \"#utility.yul\":15555:15648   */\n      tag_138\n      jump\t// in\n    tag_311:\n        /* \"#utility.yul\":15673:15675   */\n      0x20\n        /* \"#utility.yul\":15668:15671   */\n      dup3\n        /* \"#utility.yul\":15664:15676   */\n      add\n        /* \"#utility.yul\":15657:15676   */\n      swap1\n      pop\n        /* \"#utility.yul\":15316:15682   */\n      swap2\n      swap1\n      pop\n      jump\t// out\n        /* \"#utility.yul\":15688:16107   */\n    tag_73:\n        /* \"#utility.yul\":15854:15858   */\n      0x00\n        /* \"#utility.yul\":15892:15894   */\n      0x20\n        /* \"#utility.yul\":15881:15890   */\n      dup3\n        /* \"#utility.yul\":15877:15895   */\n      add\n        /* \"#utility.yul\":15869:15895   */\n      swap1\n      pop\n        /* \"#utility.yul\":15941:15950   */\n      dup2\n        /* \"#utility.yul\":15935:15939   */\n      dup2\n        /* \"#utility.yul\":15931:15951   */\n      sub\n        /* \"#utility.yul\":15927:15928   */\n      0x00\n        /* \"#utility.yul\":15916:15925   */\n      dup4\n        /* \"#utility.yul\":15912:15929   */\n      add\n        /* \"#utility.yul\":15905:15952   */\n      mstore\n        /* \"#utility.yul\":15969:16100   */\n      tag_313\n        /* \"#utility.yul\":16095:16099   */\n      dup2\n        /* \"#utility.yul\":15969:16100   */\n      tag_139\n      jump\t// in\n    tag_313:\n        /* \"#utility.yul\":15961:16100   */\n      swap1\n      pop\n        /* \"#utility.yul\":15688:16107   */\n      swap2\n      swap1\n      pop\n      jump\t// out\n        /* \"#utility.yul\":16113:16555   */\n    tag_75:\n        /* \"#utility.yul\":16262:16266   */\n      0x00\n        /* \"#utility.yul\":16300:16302   */\n      0x60\n        /* \"#utility.yul\":16289:16298   */\n      dup3\n        /* \"#utility.yul\":16285:16303   */\n      add\n        /* \"#utility.yul\":16277:16303   */\n      swap1\n      pop\n        /* \"#utility.yul\":16313:16384   */\n      tag_315\n        /* \"#utility.yul\":16381:16382   */\n      0x00\n        /* \"#utility.yul\":16370:16379   */\n      dup4\n        /* \"#utility.yul\":16366:16383   */\n      add\n        /* \"#utility.yul\":16357:16363   */\n      dup7\n        /* \"#utility.yul\":16313:16384   */\n      tag_111\n      jump\t// in\n    tag_315:\n        /* \"#utility.yul\":16394:16466   */\n      tag_316\n        /* \"#utility.yul\":16462:16464   */\n      0x20\n        /* \"#utility.yul\":16451:16460   */\n      dup4\n        /* \"#utility.yul\":16447:16465   */\n      add\n        /* \"#utility.yul\":16438:16444   */\n      dup6\n        /* \"#utility.yul\":16394:16466   */\n      tag_111\n      jump\t// in\n    tag_316:\n        /* \"#utility.yul\":16476:16548   */\n      tag_317\n        /* \"#utility.yul\":16544:16546   */\n      0x40\n        /* \"#utility.yul\":16533:16542   */\n      dup4\n        /* \"#utility.yul\":16529:16547   */\n      add\n        /* \"#utility.yul\":16520:16526   */\n      dup5\n        /* \"#utility.yul\":16476:16548   */\n      tag_116\n      jump\t// in\n    tag_317:\n        /* \"#utility.yul\":16113:16555   */\n      swap5\n      swap4\n      pop\n      pop\n      pop\n      pop\n      jump\t// out\n        /* \"#utility.yul\":16561:16677   */\n    tag_140:\n        /* \"#utility.yul\":16631:16652   */\n      tag_319\n        /* \"#utility.yul\":16646:16651   */\n      dup2\n        /* \"#utility.yul\":16631:16652   */\n      tag_117\n      jump\t// in\n    tag_319:\n        /* \"#utility.yul\":16624:16629   */\n      dup2\n        /* \"#utility.yul\":16621:16653   */\n      eq\n        /* \"#utility.yul\":16611:16671   */\n      tag_320\n      jumpi\n        /* \"#utility.yul\":16667:16668   */\n      0x00\n        /* \"#utility.yul\":16664:16665   */\n      dup1\n        /* \"#utility.yul\":16657:16669   */\n      revert\n        /* \"#utility.yul\":16611:16671   */\n    tag_320:\n        /* \"#utility.yul\":16561:16677   */\n      pop\n      jump\t// out\n        /* \"#utility.yul\":16683:16820   */\n    tag_141:\n        /* \"#utility.yul\":16737:16742   */\n      0x00\n        /* \"#utility.yul\":16768:16774   */\n      dup2\n        /* \"#utility.yul\":16762:16775   */\n      mload\n        /* \"#utility.yul\":16753:16775   */\n      swap1\n      pop\n        /* \"#utility.yul\":16784:16814   */\n      tag_322\n        /* \"#utility.yul\":16808:16813   */\n      dup2\n        /* \"#utility.yul\":16784:16814   */\n      tag_140\n      jump\t// in\n    tag_322:\n        /* \"#utility.yul\":16683:16820   */\n      swap3\n      swap2\n      pop\n      pop\n      jump\t// out\n        /* \"#utility.yul\":16826:17171   */\n    tag_79:\n        /* \"#utility.yul\":16893:16899   */\n      0x00\n        /* \"#utility.yul\":16942:16944   */\n      0x20\n        /* \"#utility.yul\":16930:16939   */\n      dup3\n        /* \"#utility.yul\":16921:16928   */\n      dup5\n        /* \"#utility.yul\":16917:16940   */\n      sub\n        /* \"#utility.yul\":16913:16945   */\n      slt\n        /* \"#utility.yul\":16910:17029   */\n      iszero\n      tag_324\n      jumpi\n        /* \"#utility.yul\":16948:17027   */\n      tag_325\n      tag_87\n      jump\t// in\n    tag_325:\n        /* \"#utility.yul\":16910:17029   */\n    tag_324:\n        /* \"#utility.yul\":17068:17069   */\n      0x00\n        /* \"#utility.yul\":17093:17154   */\n      tag_326\n        /* \"#utility.yul\":17146:17153   */\n      dup5\n        /* \"#utility.yul\":17137:17143   */\n      dup3\n        /* \"#utility.yul\":17126:17135   */\n      dup6\n        /* \"#utility.yul\":17122:17144   */\n      add\n        /* \"#utility.yul\":17093:17154   */\n      tag_141\n      jump\t// in\n    tag_326:\n        /* \"#utility.yul\":17083:17154   */\n      swap2\n      pop\n        /* \"#utility.yul\":17039:17164   */\n      pop\n        /* \"#utility.yul\":16826:17171   */\n      swap3\n      swap2\n      pop\n      pop\n      jump\t// out\n\n    auxdata: 0xa2646970667358221220d987b540e75739e44d0c94b8b3d74a284e0f827f61a0d7c673849e87abf8642a64736f6c634300081a0033\n}\n",
				"bytecode": {
					"linkReferences": {},
					"object": "608060405234801561000f575f80fd5b506040516111c93803806111c983398181016040528101906100319190610115565b815f806101000a81548173ffffffffffffffffffffffffffffffffffffffff021916908373ffffffffffffffffffffffffffffffffffffffff1602179055508060015f6101000a81548173ffffffffffffffffffffffffffffffffffffffff021916908373ffffffffffffffffffffffffffffffffffffffff1602179055505050610153565b5f80fd5b5f73ffffffffffffffffffffffffffffffffffffffff82169050919050565b5f6100e4826100bb565b9050919050565b6100f4816100da565b81146100fe575f80fd5b50565b5f8151905061010f816100eb565b92915050565b5f806040838503121561012b5761012a6100b7565b5b5f61013885828601610101565b925050602061014985828601610101565b9150509250929050565b611069806101605f395ff3fe608060405234801561000f575f80fd5b5060043610610091575f3560e01c806361d027b31161006457806361d027b31461012d5780638da5cb5b1461014b5780639d76ea5814610169578063ac4afa3814610187578063f525cb68146101b957610091565b806317c1fdd31461009557806326fc66ab146100c557806338a84ab4146100e15780635f951eab14610111575b5f80fd5b6100af60048036038101906100aa9190610790565b6101d7565b6040516100bc91906108a2565b60405180910390f35b6100df60048036038101906100da91906109fe565b610273565b005b6100fb60048036038101906100f69190610a58565b61038e565b6040516101089190610aa5565b60405180910390f35b61012b60048036038101906101269190610790565b6103d6565b005b610135610621565b6040516101429190610aa5565b60405180910390f35b610153610646565b6040516101609190610aa5565b60405180910390f35b61017161066b565b60405161017e9190610aa5565b60405180910390f35b6101a1600480360381019061019c9190610790565b61068e565b6040516101b093929190610b47565b60405180910390f35b6101c1610746565b6040516101ce9190610b83565b60405180910390f35b606060055f8381526020019081526020015f2080548060200260200160405190810160405280929190818152602001828054801561026757602002820191905f5260205f20905b815f9054906101000a900473ffffffffffffffffffffffffffffffffffffffff1673ffffffffffffffffffffffffffffffffffffffff168152602001906001019080831161021e575b50505050509050919050565b60025f9054906101000a900473ffffffffffffffffffffffffffffffffffffffff1673ffffffffffffffffffffffffffffffffffffffff163373ffffffffffffffffffffffffffffffffffffffff1614610302576040517f08c379a00000000000000000000000000000000000000000000000000000000081526004016102f990610be6565b60405180910390fd5b60405180606001604052808381526020018281526020016001151581525060035f60045481526020019081526020015f205f820151815f0190816103469190610dfe565b50602082015181600101556040820151816002015f6101000a81548160ff02191690831515021790555090505060045f81548092919061038590610efa565b91905055505050565b6005602052815f5260405f2081815481106103a7575f80fd5b905f5260205f20015f915091509054906101000a900473ffffffffffffffffffffffffffffffffffffffff1681565b5f60035f8381526020019081526020015f206040518060600160405290815f8201805461040290610c31565b80601f016020809104026020016040519081016040528092919081815260200182805461042e90610c31565b80156104795780601f1061045057610100808354040283529160200191610479565b820191905f5260205f20905b81548152906001019060200180831161045c57829003601f168201915b5050505050815260200160018201548152602001600282015f9054906101000a900460ff161515151581525050905080604001516104ec576040517f08c379a00000000000000000000000000000000000000000000000000000000081526004016104e390610f8b565b60405180910390fd5b5f8054906101000a900473ffffffffffffffffffffffffffffffffffffffff1673ffffffffffffffffffffffffffffffffffffffff166323b872dd3360015f9054906101000a900473ffffffffffffffffffffffffffffffffffffffff1684602001516040518463ffffffff1660e01b815260040161056d93929190610fa9565b6020604051808303815f875af1158015610589573d5f803e3d5ffd5b505050506040513d601f19601f820116820180604052508101906105ad9190611008565b5060055f8381526020019081526020015f2033908060018154018082558091505060019003905f5260205f20015f9091909190916101000a81548173ffffffffffffffffffffffffffffffffffffffff021916908373ffffffffffffffffffffffffffffffffffffffff1602179055505050565b60015f9054906101000a900473ffffffffffffffffffffffffffffffffffffffff1681565b60025f9054906101000a900473ffffffffffffffffffffffffffffffffffffffff1681565b5f8054906101000a900473ffffffffffffffffffffffffffffffffffffffff1681565b6003602052805f5260405f205f91509050805f0180546106ad90610c31565b80601f01602080910402602001604051908101604052809291908181526020018280546106d990610c31565b80156107245780601f106106fb57610100808354040283529160200191610724565b820191905f5260205f20905b81548152906001019060200180831161070757829003601f168201915b505050505090806001015490806002015f9054906101000a900460ff16905083565b60045481565b5f604051905090565b5f80fd5b5f80fd5b5f819050919050565b61076f8161075d565b8114610779575f80fd5b50565b5f8135905061078a81610766565b92915050565b5f602082840312156107a5576107a4610755565b5b5f6107b28482850161077c565b91505092915050565b5f81519050919050565b5f82825260208201905092915050565b5f819050602082019050919050565b5f73ffffffffffffffffffffffffffffffffffffffff82169050919050565b5f61080d826107e4565b9050919050565b61081d81610803565b82525050565b5f61082e8383610814565b60208301905092915050565b5f602082019050919050565b5f610850826107bb565b61085a81856107c5565b9350610865836107d5565b805f5b8381101561089557815161087c8882610823565b97506108878361083a565b925050600181019050610868565b5085935050505092915050565b5f6020820190508181035f8301526108ba8184610846565b905092915050565b5f80fd5b5f80fd5b5f601f19601f8301169050919050565b7f4e487b71000000000000000000000000000000000000000000000000000000005f52604160045260245ffd5b610910826108ca565b810181811067ffffffffffffffff8211171561092f5761092e6108da565b5b80604052505050565b5f61094161074c565b905061094d8282610907565b919050565b5f67ffffffffffffffff82111561096c5761096b6108da565b5b610975826108ca565b9050602081019050919050565b828183375f83830152505050565b5f6109a261099d84610952565b610938565b9050828152602081018484840111156109be576109bd6108c6565b5b6109c9848285610982565b509392505050565b5f82601f8301126109e5576109e46108c2565b5b81356109f5848260208601610990565b91505092915050565b5f8060408385031215610a1457610a13610755565b5b5f83013567ffffffffffffffff811115610a3157610a30610759565b5b610a3d858286016109d1565b9250506020610a4e8582860161077c565b9150509250929050565b5f8060408385031215610a6e57610a6d610755565b5b5f610a7b8582860161077c565b9250506020610a8c8582860161077c565b9150509250929050565b610a9f81610803565b82525050565b5f602082019050610ab85f830184610a96565b92915050565b5f81519050919050565b5f82825260208201905092915050565b8281835e5f83830152505050565b5f610af082610abe565b610afa8185610ac8565b9350610b0a818560208601610ad8565b610b13816108ca565b840191505092915050565b610b278161075d565b82525050565b5f8115159050919050565b610b4181610b2d565b82525050565b5f6060820190508181035f830152610b5f8186610ae6565b9050610b6e6020830185610b1e565b610b7b6040830184610b38565b949350505050565b5f602082019050610b965f830184610b1e565b92915050565b7f4f6e6c7920286f7267616e697a6174696f6e29206861766520616363657373005f82015250565b5f610bd0601f83610ac8565b9150610bdb82610b9c565b602082019050919050565b5f6020820190508181035f830152610bfd81610bc4565b9050919050565b7f4e487b71000000000000000000000000000000000000000000000000000000005f52602260045260245ffd5b5f6002820490506001821680610c4857607f821691505b602082108103610c5b57610c5a610c04565b5b50919050565b5f819050815f5260205f209050919050565b5f6020601f8301049050919050565b5f82821b905092915050565b5f60088302610cbd7fffffffffffffffffffffffffffffffffffffffffffffffffffffffffffffffff82610c82565b610cc78683610c82565b95508019841693508086168417925050509392505050565b5f819050919050565b5f610d02610cfd610cf88461075d565b610cdf565b61075d565b9050919050565b5f819050919050565b610d1b83610ce8565b610d2f610d2782610d09565b848454610c8e565b825550505050565b5f90565b610d43610d37565b610d4e818484610d12565b505050565b5b81811015610d7157610d665f82610d3b565b600181019050610d54565b5050565b601f821115610db657610d8781610c61565b610d9084610c73565b81016020851015610d9f578190505b610db3610dab85610c73565b830182610d53565b50505b505050565b5f82821c905092915050565b5f610dd65f1984600802610dbb565b1980831691505092915050565b5f610dee8383610dc7565b9150826002028217905092915050565b610e0782610abe565b67ffffffffffffffff811115610e2057610e1f6108da565b5b610e2a8254610c31565b610e35828285610d75565b5f60209050601f831160018114610e66575f8415610e54578287015190505b610e5e8582610de3565b865550610ec5565b601f198416610e7486610c61565b5f5b82811015610e9b57848901518255600182019150602085019450602081019050610e76565b86831015610eb85784890151610eb4601f891682610dc7565b8355505b6001600288020188555050505b505050505050565b7f4e487b71000000000000000000000000000000000000000000000000000000005f52601160045260245ffd5b5f610f048261075d565b91507fffffffffffffffffffffffffffffffffffffffffffffffffffffffffffffffff8203610f3657610f35610ecd565b5b600182019050919050565b7f506f6f6c206e6f742061637469766500000000000000000000000000000000005f82015250565b5f610f75600f83610ac8565b9150610f8082610f41565b602082019050919050565b5f6020820190508181035f830152610fa281610f69565b9050919050565b5f606082019050610fbc5f830186610a96565b610fc96020830185610a96565b610fd66040830184610b1e565b949350505050565b610fe781610b2d565b8114610ff1575f80fd5b50565b5f8151905061100281610fde565b92915050565b5f6020828403121561101d5761101c610755565b5b5f61102a84828501610ff4565b9150509291505056fea2646970667358221220d987b540e75739e44d0c94b8b3d74a284e0f827f61a0d7c673849e87abf8642a64736f6c634300081a0033",
					"opcodes": "PUSH1 0x80 PUSH1 0x40 MSTORE CALLVALUE DUP1 ISZERO PUSH2 0xF JUMPI PUSH0 DUP1 REVERT JUMPDEST POP PUSH1 0x40 MLOAD PUSH2 0x11C9 CODESIZE SUB DUP1 PUSH2 0x11C9 DUP4 CODECOPY DUP2 DUP2 ADD PUSH1 0x40 MSTORE DUP2 ADD SWAP1 PUSH2 0x31 SWAP2 SWAP1 PUSH2 0x115 JUMP JUMPDEST DUP2 PUSH0 DUP1 PUSH2 0x100 EXP DUP2 SLOAD DUP2 PUSH20 0xFFFFFFFFFFFFFFFFFFFFFFFFFFFFFFFFFFFFFFFF MUL NOT AND SWAP1 DUP4 PUSH20 0xFFFFFFFFFFFFFFFFFFFFFFFFFFFFFFFFFFFFFFFF AND MUL OR SWAP1 SSTORE POP DUP1 PUSH1 0x1 PUSH0 PUSH2 0x100 EXP DUP2 SLOAD DUP2 PUSH20 0xFFFFFFFFFFFFFFFFFFFFFFFFFFFFFFFFFFFFFFFF MUL NOT AND SWAP1 DUP4 PUSH20 0xFFFFFFFFFFFFFFFFFFFFFFFFFFFFFFFFFFFFFFFF AND MUL OR SWAP1 SSTORE POP POP POP PUSH2 0x153 JUMP JUMPDEST PUSH0 DUP1 REVERT JUMPDEST PUSH0 PUSH20 0xFFFFFFFFFFFFFFFFFFFFFFFFFFFFFFFFFFFFFFFF DUP3 AND SWAP1 POP SWAP2 SWAP1 POP JUMP JUMPDEST PUSH0 PUSH2 0xE4 DUP3 PUSH2 0xBB JUMP JUMPDEST SWAP1 POP SWAP2 SWAP1 POP JUMP JUMPDEST PUSH2 0xF4 DUP2 PUSH2 0xDA JUMP JUMPDEST DUP2 EQ PUSH2 0xFE JUMPI PUSH0 DUP1 REVERT JUMPDEST POP JUMP JUMPDEST PUSH0 DUP2 MLOAD SWAP1 POP PUSH2 0x10F DUP2 PUSH2 0xEB JUMP JUMPDEST SWAP3 SWAP2 POP POP JUMP JUMPDEST PUSH0 DUP1 PUSH1 0x40 DUP4 DUP6 SUB SLT ISZERO PUSH2 0x12B JUMPI PUSH2 0x12A PUSH2 0xB7 JUMP JUMPDEST JUMPDEST PUSH0 PUSH2 0x138 DUP6 DUP3 DUP7 ADD PUSH2 0x101 JUMP JUMPDEST SWAP3 POP POP PUSH1 0x20 PUSH2 0x149 DUP6 DUP3 DUP7 ADD PUSH2 0x101 JUMP JUMPDEST SWAP2 POP POP SWAP3 POP SWAP3 SWAP1 POP JUMP JUMPDEST PUSH2 0x1069 DUP1 PUSH2 0x160 PUSH0 CODECOPY PUSH0 RETURN INVALID PUSH1 0x80 PUSH1 0x40 MSTORE CALLVALUE DUP1 ISZERO PUSH2 0xF JUMPI PUSH0 DUP1 REVERT JUMPDEST POP PUSH1 0x4 CALLDATASIZE LT PUSH2 0x91 JUMPI PUSH0 CALLDATALOAD PUSH1 0xE0 SHR DUP1 PUSH4 0x61D027B3 GT PUSH2 0x64 JUMPI DUP1 PUSH4 0x61D027B3 EQ PUSH2 0x12D JUMPI DUP1 PUSH4 0x8DA5CB5B EQ PUSH2 0x14B JUMPI DUP1 PUSH4 0x9D76EA58 EQ PUSH2 0x169 JUMPI DUP1 PUSH4 0xAC4AFA38 EQ PUSH2 0x187 JUMPI DUP1 PUSH4 0xF525CB68 EQ PUSH2 0x1B9 JUMPI PUSH2 0x91 JUMP JUMPDEST DUP1 PUSH4 0x17C1FDD3 EQ PUSH2 0x95 JUMPI DUP1 PUSH4 0x26FC66AB EQ PUSH2 0xC5 JUMPI DUP1 PUSH4 0x38A84AB4 EQ PUSH2 0xE1 JUMPI DUP1 PUSH4 0x5F951EAB EQ PUSH2 0x111 JUMPI JUMPDEST PUSH0 DUP1 REVERT JUMPDEST PUSH2 0xAF PUSH1 0x4 DUP1 CALLDATASIZE SUB DUP2 ADD SWAP1 PUSH2 0xAA SWAP2 SWAP1 PUSH2 0x790 JUMP JUMPDEST PUSH2 0x1D7 JUMP JUMPDEST PUSH1 0x40 MLOAD PUSH2 0xBC SWAP2 SWAP1 PUSH2 0x8A2 JUMP JUMPDEST PUSH1 0x40 MLOAD DUP1 SWAP2 SUB SWAP1 RETURN JUMPDEST PUSH2 0xDF PUSH1 0x4 DUP1 CALLDATASIZE SUB DUP2 ADD SWAP1 PUSH2 0xDA SWAP2 SWAP1 PUSH2 0x9FE JUMP JUMPDEST PUSH2 0x273 JUMP JUMPDEST STOP JUMPDEST PUSH2 0xFB PUSH1 0x4 DUP1 CALLDATASIZE SUB DUP2 ADD SWAP1 PUSH2 0xF6 SWAP2 SWAP1 PUSH2 0xA58 JUMP JUMPDEST PUSH2 0x38E JUMP JUMPDEST PUSH1 0x40 MLOAD PUSH2 0x108 SWAP2 SWAP1 PUSH2 0xAA5 JUMP JUMPDEST PUSH1 0x40 MLOAD DUP1 SWAP2 SUB SWAP1 RETURN JUMPDEST PUSH2 0x12B PUSH1 0x4 DUP1 CALLDATASIZE SUB DUP2 ADD SWAP1 PUSH2 0x126 SWAP2 SWAP1 PUSH2 0x790 JUMP JUMPDEST PUSH2 0x3D6 JUMP JUMPDEST STOP JUMPDEST PUSH2 0x135 PUSH2 0x621 JUMP JUMPDEST PUSH1 0x40 MLOAD PUSH2 0x142 SWAP2 SWAP1 PUSH2 0xAA5 JUMP JUMPDEST PUSH1 0x40 MLOAD DUP1 SWAP2 SUB SWAP1 RETURN JUMPDEST PUSH2 0x153 PUSH2 0x646 JUMP JUMPDEST PUSH1 0x40 MLOAD PUSH2 0x160 SWAP2 SWAP1 PUSH2 0xAA5 JUMP JUMPDEST PUSH1 0x40 MLOAD DUP1 SWAP2 SUB SWAP1 RETURN JUMPDEST PUSH2 0x171 PUSH2 0x66B JUMP JUMPDEST PUSH1 0x40 MLOAD PUSH2 0x17E SWAP2 SWAP1 PUSH2 0xAA5 JUMP JUMPDEST PUSH1 0x40 MLOAD DUP1 SWAP2 SUB SWAP1 RETURN JUMPDEST PUSH2 0x1A1 PUSH1 0x4 DUP1 CALLDATASIZE SUB DUP2 ADD SWAP1 PUSH2 0x19C SWAP2 SWAP1 PUSH2 0x790 JUMP JUMPDEST PUSH2 0x68E JUMP JUMPDEST PUSH1 0x40 MLOAD PUSH2 0x1B0 SWAP4 SWAP3 SWAP2 SWAP1 PUSH2 0xB47 JUMP JUMPDEST PUSH1 0x40 MLOAD DUP1 SWAP2 SUB SWAP1 RETURN JUMPDEST PUSH2 0x1C1 PUSH2 0x746 JUMP JUMPDEST PUSH1 0x40 MLOAD PUSH2 0x1CE SWAP2 SWAP1 PUSH2 0xB83 JUMP JUMPDEST PUSH1 0x40 MLOAD DUP1 SWAP2 SUB SWAP1 RETURN JUMPDEST PUSH1 0x60 PUSH1 0x5 PUSH0 DUP4 DUP2 MSTORE PUSH1 0x20 ADD SWAP1 DUP2 MSTORE PUSH1 0x20 ADD PUSH0 KECCAK256 DUP1 SLOAD DUP1 PUSH1 0x20 MUL PUSH1 0x20 ADD PUSH1 0x40 MLOAD SWAP1 DUP2 ADD PUSH1 0x40 MSTORE DUP1 SWAP3 SWAP2 SWAP1 DUP2 DUP2 MSTORE PUSH1 0x20 ADD DUP3 DUP1 SLOAD DUP1 ISZERO PUSH2 0x267 JUMPI PUSH1 0x20 MUL DUP3 ADD SWAP2 SWAP1 PUSH0 MSTORE PUSH1 0x20 PUSH0 KECCAK256 SWAP1 JUMPDEST DUP2 PUSH0 SWAP1 SLOAD SWAP1 PUSH2 0x100 EXP SWAP1 DIV PUSH20 0xFFFFFFFFFFFFFFFFFFFFFFFFFFFFFFFFFFFFFFFF AND PUSH20 0xFFFFFFFFFFFFFFFFFFFFFFFFFFFFFFFFFFFFFFFF AND DUP2 MSTORE PUSH1 0x20 ADD SWAP1 PUSH1 0x1 ADD SWAP1 DUP1 DUP4 GT PUSH2 0x21E JUMPI JUMPDEST POP POP POP POP POP SWAP1 POP SWAP2 SWAP1 POP JUMP JUMPDEST PUSH1 0x2 PUSH0 SWAP1 SLOAD SWAP1 PUSH2 0x100 EXP SWAP1 DIV PUSH20 0xFFFFFFFFFFFFFFFFFFFFFFFFFFFFFFFFFFFFFFFF AND PUSH20 0xFFFFFFFFFFFFFFFFFFFFFFFFFFFFFFFFFFFFFFFF AND CALLER PUSH20 0xFFFFFFFFFFFFFFFFFFFFFFFFFFFFFFFFFFFFFFFF AND EQ PUSH2 0x302 JUMPI PUSH1 0x40 MLOAD PUSH32 0x8C379A000000000000000000000000000000000000000000000000000000000 DUP2 MSTORE PUSH1 0x4 ADD PUSH2 0x2F9 SWAP1 PUSH2 0xBE6 JUMP JUMPDEST PUSH1 0x40 MLOAD DUP1 SWAP2 SUB SWAP1 REVERT JUMPDEST PUSH1 0x40 MLOAD DUP1 PUSH1 0x60 ADD PUSH1 0x40 MSTORE DUP1 DUP4 DUP2 MSTORE PUSH1 0x20 ADD DUP3 DUP2 MSTORE PUSH1 0x20 ADD PUSH1 0x1 ISZERO ISZERO DUP2 MSTORE POP PUSH1 0x3 PUSH0 PUSH1 0x4 SLOAD DUP2 MSTORE PUSH1 0x20 ADD SWAP1 DUP2 MSTORE PUSH1 0x20 ADD PUSH0 KECCAK256 PUSH0 DUP3 ADD MLOAD DUP2 PUSH0 ADD SWAP1 DUP2 PUSH2 0x346 SWAP2 SWAP1 PUSH2 0xDFE JUMP JUMPDEST POP PUSH1 0x20 DUP3 ADD MLOAD DUP2 PUSH1 0x1 ADD SSTORE PUSH1 0x40 DUP3 ADD MLOAD DUP2 PUSH1 0x2 ADD PUSH0 PUSH2 0x100 EXP DUP2 SLOAD DUP2 PUSH1 0xFF MUL NOT AND SWAP1 DUP4 ISZERO ISZERO MUL OR SWAP1 SSTORE POP SWAP1 POP POP PUSH1 0x4 PUSH0 DUP2 SLOAD DUP1 SWAP3 SWAP2 SWAP1 PUSH2 0x385 SWAP1 PUSH2 0xEFA JUMP JUMPDEST SWAP2 SWAP1 POP SSTORE POP POP POP JUMP JUMPDEST PUSH1 0x5 PUSH1 0x20 MSTORE DUP2 PUSH0 MSTORE PUSH1 0x40 PUSH0 KECCAK256 DUP2 DUP2 SLOAD DUP2 LT PUSH2 0x3A7 JUMPI PUSH0 DUP1 REVERT JUMPDEST SWAP1 PUSH0 MSTORE PUSH1 0x20 PUSH0 KECCAK256 ADD PUSH0 SWAP2 POP SWAP2 POP SWAP1 SLOAD SWAP1 PUSH2 0x100 EXP SWAP1 DIV PUSH20 0xFFFFFFFFFFFFFFFFFFFFFFFFFFFFFFFFFFFFFFFF AND DUP2 JUMP JUMPDEST PUSH0 PUSH1 0x3 PUSH0 DUP4 DUP2 MSTORE PUSH1 0x20 ADD SWAP1 DUP2 MSTORE PUSH1 0x20 ADD PUSH0 KECCAK256 PUSH1 0x40 MLOAD DUP1 PUSH1 0x60 ADD PUSH1 0x40 MSTORE SWAP1 DUP2 PUSH0 DUP3 ADD DUP1 SLOAD PUSH2 0x402 SWAP1 PUSH2 0xC31 JUMP JUMPDEST DUP1 PUSH1 0x1F ADD PUSH1 0x20 DUP1 SWAP2 DIV MUL PUSH1 0x20 ADD PUSH1 0x40 MLOAD SWAP1 DUP2 ADD PUSH1 0x40 MSTORE DUP1 SWAP3 SWAP2 SWAP1 DUP2 DUP2 MSTORE PUSH1 0x20 ADD DUP3 DUP1 SLOAD PUSH2 0x42E SWAP1 PUSH2 0xC31 JUMP JUMPDEST DUP1 ISZERO PUSH2 0x479 JUMPI DUP1 PUSH1 0x1F LT PUSH2 0x450 JUMPI PUSH2 0x100 DUP1 DUP4 SLOAD DIV MUL DUP4 MSTORE SWAP2 PUSH1 0x20 ADD SWAP2 PUSH2 0x479 JUMP JUMPDEST DUP3 ADD SWAP2 SWAP1 PUSH0 MSTORE PUSH1 0x20 PUSH0 KECCAK256 SWAP1 JUMPDEST DUP2 SLOAD DUP2 MSTORE SWAP1 PUSH1 0x1 ADD SWAP1 PUSH1 0x20 ADD DUP1 DUP4 GT PUSH2 0x45C JUMPI DUP3 SWAP1 SUB PUSH1 0x1F AND DUP3 ADD SWAP2 JUMPDEST POP POP POP POP POP DUP2 MSTORE PUSH1 0x20 ADD PUSH1 0x1 DUP3 ADD SLOAD DUP2 MSTORE PUSH1 0x20 ADD PUSH1 0x2 DUP3 ADD PUSH0 SWAP1 SLOAD SWAP1 PUSH2 0x100 EXP SWAP1 DIV PUSH1 0xFF AND ISZERO ISZERO ISZERO ISZERO DUP2 MSTORE POP POP SWAP1 POP DUP1 PUSH1 0x40 ADD MLOAD PUSH2 0x4EC JUMPI PUSH1 0x40 MLOAD PUSH32 0x8C379A000000000000000000000000000000000000000000000000000000000 DUP2 MSTORE PUSH1 0x4 ADD PUSH2 0x4E3 SWAP1 PUSH2 0xF8B JUMP JUMPDEST PUSH1 0x40 MLOAD DUP1 SWAP2 SUB SWAP1 REVERT JUMPDEST PUSH0 DUP1 SLOAD SWAP1 PUSH2 0x100 EXP SWAP1 DIV PUSH20 0xFFFFFFFFFFFFFFFFFFFFFFFFFFFFFFFFFFFFFFFF AND PUSH20 0xFFFFFFFFFFFFFFFFFFFFFFFFFFFFFFFFFFFFFFFF AND PUSH4 0x23B872DD CALLER PUSH1 0x1 PUSH0 SWAP1 SLOAD SWAP1 PUSH2 0x100 EXP SWAP1 DIV PUSH20 0xFFFFFFFFFFFFFFFFFFFFFFFFFFFFFFFFFFFFFFFF AND DUP5 PUSH1 0x20 ADD MLOAD PUSH1 0x40 MLOAD DUP5 PUSH4 0xFFFFFFFF AND PUSH1 0xE0 SHL DUP2 MSTORE PUSH1 0x4 ADD PUSH2 0x56D SWAP4 SWAP3 SWAP2 SWAP1 PUSH2 0xFA9 JUMP JUMPDEST PUSH1 0x20 PUSH1 0x40 MLOAD DUP1 DUP4 SUB DUP2 PUSH0 DUP8 GAS CALL ISZERO DUP1 ISZERO PUSH2 0x589 JUMPI RETURNDATASIZE PUSH0 DUP1 RETURNDATACOPY RETURNDATASIZE PUSH0 REVERT JUMPDEST POP POP POP POP PUSH1 0x40 MLOAD RETURNDATASIZE PUSH1 0x1F NOT PUSH1 0x1F DUP3 ADD AND DUP3 ADD DUP1 PUSH1 0x40 MSTORE POP DUP2 ADD SWAP1 PUSH2 0x5AD SWAP2 SWAP1 PUSH2 0x1008 JUMP JUMPDEST POP PUSH1 0x5 PUSH0 DUP4 DUP2 MSTORE PUSH1 0x20 ADD SWAP1 DUP2 MSTORE PUSH1 0x20 ADD PUSH0 KECCAK256 CALLER SWAP1 DUP1 PUSH1 0x1 DUP2 SLOAD ADD DUP1 DUP3 SSTORE DUP1 SWAP2 POP POP PUSH1 0x1 SWAP1 SUB SWAP1 PUSH0 MSTORE PUSH1 0x20 PUSH0 KECCAK256 ADD PUSH0 SWAP1 SWAP2 SWAP1 SWAP2 SWAP1 SWAP2 PUSH2 0x100 EXP DUP2 SLOAD DUP2 PUSH20 0xFFFFFFFFFFFFFFFFFFFFFFFFFFFFFFFFFFFFFFFF MUL NOT AND SWAP1 DUP4 PUSH20 0xFFFFFFFFFFFFFFFFFFFFFFFFFFFFFFFFFFFFFFFF AND MUL OR SWAP1 SSTORE POP POP POP JUMP JUMPDEST PUSH1 0x1 PUSH0 SWAP1 SLOAD SWAP1 PUSH2 0x100 EXP SWAP1 DIV PUSH20 0xFFFFFFFFFFFFFFFFFFFFFFFFFFFFFFFFFFFFFFFF AND DUP2 JUMP JUMPDEST PUSH1 0x2 PUSH0 SWAP1 SLOAD SWAP1 PUSH2 0x100 EXP SWAP1 DIV PUSH20 0xFFFFFFFFFFFFFFFFFFFFFFFFFFFFFFFFFFFFFFFF AND DUP2 JUMP JUMPDEST PUSH0 DUP1 SLOAD SWAP1 PUSH2 0x100 EXP SWAP1 DIV PUSH20 0xFFFFFFFFFFFFFFFFFFFFFFFFFFFFFFFFFFFFFFFF AND DUP2 JUMP JUMPDEST PUSH1 0x3 PUSH1 0x20 MSTORE DUP1 PUSH0 MSTORE PUSH1 0x40 PUSH0 KECCAK256 PUSH0 SWAP2 POP SWAP1 POP DUP1 PUSH0 ADD DUP1 SLOAD PUSH2 0x6AD SWAP1 PUSH2 0xC31 JUMP JUMPDEST DUP1 PUSH1 0x1F ADD PUSH1 0x20 DUP1 SWAP2 DIV MUL PUSH1 0x20 ADD PUSH1 0x40 MLOAD SWAP1 DUP2 ADD PUSH1 0x40 MSTORE DUP1 SWAP3 SWAP2 SWAP1 DUP2 DUP2 MSTORE PUSH1 0x20 ADD DUP3 DUP1 SLOAD PUSH2 0x6D9 SWAP1 PUSH2 0xC31 JUMP JUMPDEST DUP1 ISZERO PUSH2 0x724 JUMPI DUP1 PUSH1 0x1F LT PUSH2 0x6FB JUMPI PUSH2 0x100 DUP1 DUP4 SLOAD DIV MUL DUP4 MSTORE SWAP2 PUSH1 0x20 ADD SWAP2 PUSH2 0x724 JUMP JUMPDEST DUP3 ADD SWAP2 SWAP1 PUSH0 MSTORE PUSH1 0x20 PUSH0 KECCAK256 SWAP1 JUMPDEST DUP2 SLOAD DUP2 MSTORE SWAP1 PUSH1 0x1 ADD SWAP1 PUSH1 0x20 ADD DUP1 DUP4 GT PUSH2 0x707 JUMPI DUP3 SWAP1 SUB PUSH1 0x1F AND DUP3 ADD SWAP2 JUMPDEST POP POP POP POP POP SWAP1 DUP1 PUSH1 0x1 ADD SLOAD SWAP1 DUP1 PUSH1 0x2 ADD PUSH0 SWAP1 SLOAD SWAP1 PUSH2 0x100 EXP SWAP1 DIV PUSH1 0xFF AND SWAP1 POP DUP4 JUMP JUMPDEST PUSH1 0x4 SLOAD DUP2 JUMP JUMPDEST PUSH0 PUSH1 0x40 MLOAD SWAP1 POP SWAP1 JUMP JUMPDEST PUSH0 DUP1 REVERT JUMPDEST PUSH0 DUP1 REVERT JUMPDEST PUSH0 DUP2 SWAP1 POP SWAP2 SWAP1 POP JUMP JUMPDEST PUSH2 0x76F DUP2 PUSH2 0x75D JUMP JUMPDEST DUP2 EQ PUSH2 0x779 JUMPI PUSH0 DUP1 REVERT JUMPDEST POP JUMP JUMPDEST PUSH0 DUP2 CALLDATALOAD SWAP1 POP PUSH2 0x78A DUP2 PUSH2 0x766 JUMP JUMPDEST SWAP3 SWAP2 POP POP JUMP JUMPDEST PUSH0 PUSH1 0x20 DUP3 DUP5 SUB SLT ISZERO PUSH2 0x7A5 JUMPI PUSH2 0x7A4 PUSH2 0x755 JUMP JUMPDEST JUMPDEST PUSH0 PUSH2 0x7B2 DUP5 DUP3 DUP6 ADD PUSH2 0x77C JUMP JUMPDEST SWAP2 POP POP SWAP3 SWAP2 POP POP JUMP JUMPDEST PUSH0 DUP2 MLOAD SWAP1 POP SWAP2 SWAP1 POP JUMP JUMPDEST PUSH0 DUP3 DUP3 MSTORE PUSH1 0x20 DUP3 ADD SWAP1 POP SWAP3 SWAP2 POP POP JUMP JUMPDEST PUSH0 DUP2 SWAP1 POP PUSH1 0x20 DUP3 ADD SWAP1 POP SWAP2 SWAP1 POP JUMP JUMPDEST PUSH0 PUSH20 0xFFFFFFFFFFFFFFFFFFFFFFFFFFFFFFFFFFFFFFFF DUP3 AND SWAP1 POP SWAP2 SWAP1 POP JUMP JUMPDEST PUSH0 PUSH2 0x80D DUP3 PUSH2 0x7E4 JUMP JUMPDEST SWAP1 POP SWAP2 SWAP1 POP JUMP JUMPDEST PUSH2 0x81D DUP2 PUSH2 0x803 JUMP JUMPDEST DUP3 MSTORE POP POP JUMP JUMPDEST PUSH0 PUSH2 0x82E DUP4 DUP4 PUSH2 0x814 JUMP JUMPDEST PUSH1 0x20 DUP4 ADD SWAP1 POP SWAP3 SWAP2 POP POP JUMP JUMPDEST PUSH0 PUSH1 0x20 DUP3 ADD SWAP1 POP SWAP2 SWAP1 POP JUMP JUMPDEST PUSH0 PUSH2 0x850 DUP3 PUSH2 0x7BB JUMP JUMPDEST PUSH2 0x85A DUP2 DUP6 PUSH2 0x7C5 JUMP JUMPDEST SWAP4 POP PUSH2 0x865 DUP4 PUSH2 0x7D5 JUMP JUMPDEST DUP1 PUSH0 JUMPDEST DUP4 DUP2 LT ISZERO PUSH2 0x895 JUMPI DUP2 MLOAD PUSH2 0x87C DUP9 DUP3 PUSH2 0x823 JUMP JUMPDEST SWAP8 POP PUSH2 0x887 DUP4 PUSH2 0x83A JUMP JUMPDEST SWAP3 POP POP PUSH1 0x1 DUP2 ADD SWAP1 POP PUSH2 0x868 JUMP JUMPDEST POP DUP6 SWAP4 POP POP POP POP SWAP3 SWAP2 POP POP JUMP JUMPDEST PUSH0 PUSH1 0x20 DUP3 ADD SWAP1 POP DUP2 DUP2 SUB PUSH0 DUP4 ADD MSTORE PUSH2 0x8BA DUP2 DUP5 PUSH2 0x846 JUMP JUMPDEST SWAP1 POP SWAP3 SWAP2 POP POP JUMP JUMPDEST PUSH0 DUP1 REVERT JUMPDEST PUSH0 DUP1 REVERT JUMPDEST PUSH0 PUSH1 0x1F NOT PUSH1 0x1F DUP4 ADD AND SWAP1 POP SWAP2 SWAP1 POP JUMP JUMPDEST PUSH32 0x4E487B7100000000000000000000000000000000000000000000000000000000 PUSH0 MSTORE PUSH1 0x41 PUSH1 0x4 MSTORE PUSH1 0x24 PUSH0 REVERT JUMPDEST PUSH2 0x910 DUP3 PUSH2 0x8CA JUMP JUMPDEST DUP2 ADD DUP2 DUP2 LT PUSH8 0xFFFFFFFFFFFFFFFF DUP3 GT OR ISZERO PUSH2 0x92F JUMPI PUSH2 0x92E PUSH2 0x8DA JUMP JUMPDEST JUMPDEST DUP1 PUSH1 0x40 MSTORE POP POP POP JUMP JUMPDEST PUSH0 PUSH2 0x941 PUSH2 0x74C JUMP JUMPDEST SWAP1 POP PUSH2 0x94D DUP3 DUP3 PUSH2 0x907 JUMP JUMPDEST SWAP2 SWAP1 POP JUMP JUMPDEST PUSH0 PUSH8 0xFFFFFFFFFFFFFFFF DUP3 GT ISZERO PUSH2 0x96C JUMPI PUSH2 0x96B PUSH2 0x8DA JUMP JUMPDEST JUMPDEST PUSH2 0x975 DUP3 PUSH2 0x8CA JUMP JUMPDEST SWAP1 POP PUSH1 0x20 DUP2 ADD SWAP1 POP SWAP2 SWAP1 POP JUMP JUMPDEST DUP3 DUP2 DUP4 CALLDATACOPY PUSH0 DUP4 DUP4 ADD MSTORE POP POP POP JUMP JUMPDEST PUSH0 PUSH2 0x9A2 PUSH2 0x99D DUP5 PUSH2 0x952 JUMP JUMPDEST PUSH2 0x938 JUMP JUMPDEST SWAP1 POP DUP3 DUP2 MSTORE PUSH1 0x20 DUP2 ADD DUP5 DUP5 DUP5 ADD GT ISZERO PUSH2 0x9BE JUMPI PUSH2 0x9BD PUSH2 0x8C6 JUMP JUMPDEST JUMPDEST PUSH2 0x9C9 DUP5 DUP3 DUP6 PUSH2 0x982 JUMP JUMPDEST POP SWAP4 SWAP3 POP POP POP JUMP JUMPDEST PUSH0 DUP3 PUSH1 0x1F DUP4 ADD SLT PUSH2 0x9E5 JUMPI PUSH2 0x9E4 PUSH2 0x8C2 JUMP JUMPDEST JUMPDEST DUP2 CALLDATALOAD PUSH2 0x9F5 DUP5 DUP3 PUSH1 0x20 DUP7 ADD PUSH2 0x990 JUMP JUMPDEST SWAP2 POP POP SWAP3 SWAP2 POP POP JUMP JUMPDEST PUSH0 DUP1 PUSH1 0x40 DUP4 DUP6 SUB SLT ISZERO PUSH2 0xA14 JUMPI PUSH2 0xA13 PUSH2 0x755 JUMP JUMPDEST JUMPDEST PUSH0 DUP4 ADD CALLDATALOAD PUSH8 0xFFFFFFFFFFFFFFFF DUP2 GT ISZERO PUSH2 0xA31 JUMPI PUSH2 0xA30 PUSH2 0x759 JUMP JUMPDEST JUMPDEST PUSH2 0xA3D DUP6 DUP3 DUP7 ADD PUSH2 0x9D1 JUMP JUMPDEST SWAP3 POP POP PUSH1 0x20 PUSH2 0xA4E DUP6 DUP3 DUP7 ADD PUSH2 0x77C JUMP JUMPDEST SWAP2 POP POP SWAP3 POP SWAP3 SWAP1 POP JUMP JUMPDEST PUSH0 DUP1 PUSH1 0x40 DUP4 DUP6 SUB SLT ISZERO PUSH2 0xA6E JUMPI PUSH2 0xA6D PUSH2 0x755 JUMP JUMPDEST JUMPDEST PUSH0 PUSH2 0xA7B DUP6 DUP3 DUP7 ADD PUSH2 0x77C JUMP JUMPDEST SWAP3 POP POP PUSH1 0x20 PUSH2 0xA8C DUP6 DUP3 DUP7 ADD PUSH2 0x77C JUMP JUMPDEST SWAP2 POP POP SWAP3 POP SWAP3 SWAP1 POP JUMP JUMPDEST PUSH2 0xA9F DUP2 PUSH2 0x803 JUMP JUMPDEST DUP3 MSTORE POP POP JUMP JUMPDEST PUSH0 PUSH1 0x20 DUP3 ADD SWAP1 POP PUSH2 0xAB8 PUSH0 DUP4 ADD DUP5 PUSH2 0xA96 JUMP JUMPDEST SWAP3 SWAP2 POP POP JUMP JUMPDEST PUSH0 DUP2 MLOAD SWAP1 POP SWAP2 SWAP1 POP JUMP JUMPDEST PUSH0 DUP3 DUP3 MSTORE PUSH1 0x20 DUP3 ADD SWAP1 POP SWAP3 SWAP2 POP POP JUMP JUMPDEST DUP3 DUP2 DUP4 MCOPY PUSH0 DUP4 DUP4 ADD MSTORE POP POP POP JUMP JUMPDEST PUSH0 PUSH2 0xAF0 DUP3 PUSH2 0xABE JUMP JUMPDEST PUSH2 0xAFA DUP2 DUP6 PUSH2 0xAC8 JUMP JUMPDEST SWAP4 POP PUSH2 0xB0A DUP2 DUP6 PUSH1 0x20 DUP7 ADD PUSH2 0xAD8 JUMP JUMPDEST PUSH2 0xB13 DUP2 PUSH2 0x8CA JUMP JUMPDEST DUP5 ADD SWAP2 POP POP SWAP3 SWAP2 POP POP JUMP JUMPDEST PUSH2 0xB27 DUP2 PUSH2 0x75D JUMP JUMPDEST DUP3 MSTORE POP POP JUMP JUMPDEST PUSH0 DUP2 ISZERO ISZERO SWAP1 POP SWAP2 SWAP1 POP JUMP JUMPDEST PUSH2 0xB41 DUP2 PUSH2 0xB2D JUMP JUMPDEST DUP3 MSTORE POP POP JUMP JUMPDEST PUSH0 PUSH1 0x60 DUP3 ADD SWAP1 POP DUP2 DUP2 SUB PUSH0 DUP4 ADD MSTORE PUSH2 0xB5F DUP2 DUP7 PUSH2 0xAE6 JUMP JUMPDEST SWAP1 POP PUSH2 0xB6E PUSH1 0x20 DUP4 ADD DUP6 PUSH2 0xB1E JUMP JUMPDEST PUSH2 0xB7B PUSH1 0x40 DUP4 ADD DUP5 PUSH2 0xB38 JUMP JUMPDEST SWAP5 SWAP4 POP POP POP POP JUMP JUMPDEST PUSH0 PUSH1 0x20 DUP3 ADD SWAP1 POP PUSH2 0xB96 PUSH0 DUP4 ADD DUP5 PUSH2 0xB1E JUMP JUMPDEST SWAP3 SWAP2 POP POP JUMP JUMPDEST PUSH32 0x4F6E6C7920286F7267616E697A6174696F6E2920686176652061636365737300 PUSH0 DUP3 ADD MSTORE POP JUMP JUMPDEST PUSH0 PUSH2 0xBD0 PUSH1 0x1F DUP4 PUSH2 0xAC8 JUMP JUMPDEST SWAP2 POP PUSH2 0xBDB DUP3 PUSH2 0xB9C JUMP JUMPDEST PUSH1 0x20 DUP3 ADD SWAP1 POP SWAP2 SWAP1 POP JUMP JUMPDEST PUSH0 PUSH1 0x20 DUP3 ADD SWAP1 POP DUP2 DUP2 SUB PUSH0 DUP4 ADD MSTORE PUSH2 0xBFD DUP2 PUSH2 0xBC4 JUMP JUMPDEST SWAP1 POP SWAP2 SWAP1 POP JUMP JUMPDEST PUSH32 0x4E487B7100000000000000000000000000000000000000000000000000000000 PUSH0 MSTORE PUSH1 0x22 PUSH1 0x4 MSTORE PUSH1 0x24 PUSH0 REVERT JUMPDEST PUSH0 PUSH1 0x2 DUP3 DIV SWAP1 POP PUSH1 0x1 DUP3 AND DUP1 PUSH2 0xC48 JUMPI PUSH1 0x7F DUP3 AND SWAP2 POP JUMPDEST PUSH1 0x20 DUP3 LT DUP2 SUB PUSH2 0xC5B JUMPI PUSH2 0xC5A PUSH2 0xC04 JUMP JUMPDEST JUMPDEST POP SWAP2 SWAP1 POP JUMP JUMPDEST PUSH0 DUP2 SWAP1 POP DUP2 PUSH0 MSTORE PUSH1 0x20 PUSH0 KECCAK256 SWAP1 POP SWAP2 SWAP1 POP JUMP JUMPDEST PUSH0 PUSH1 0x20 PUSH1 0x1F DUP4 ADD DIV SWAP1 POP SWAP2 SWAP1 POP JUMP JUMPDEST PUSH0 DUP3 DUP3 SHL SWAP1 POP SWAP3 SWAP2 POP POP JUMP JUMPDEST PUSH0 PUSH1 0x8 DUP4 MUL PUSH2 0xCBD PUSH32 0xFFFFFFFFFFFFFFFFFFFFFFFFFFFFFFFFFFFFFFFFFFFFFFFFFFFFFFFFFFFFFFFF DUP3 PUSH2 0xC82 JUMP JUMPDEST PUSH2 0xCC7 DUP7 DUP4 PUSH2 0xC82 JUMP JUMPDEST SWAP6 POP DUP1 NOT DUP5 AND SWAP4 POP DUP1 DUP7 AND DUP5 OR SWAP3 POP POP POP SWAP4 SWAP3 POP POP POP JUMP JUMPDEST PUSH0 DUP2 SWAP1 POP SWAP2 SWAP1 POP JUMP JUMPDEST PUSH0 PUSH2 0xD02 PUSH2 0xCFD PUSH2 0xCF8 DUP5 PUSH2 0x75D JUMP JUMPDEST PUSH2 0xCDF JUMP JUMPDEST PUSH2 0x75D JUMP JUMPDEST SWAP1 POP SWAP2 SWAP1 POP JUMP JUMPDEST PUSH0 DUP2 SWAP1 POP SWAP2 SWAP1 POP JUMP JUMPDEST PUSH2 0xD1B DUP4 PUSH2 0xCE8 JUMP JUMPDEST PUSH2 0xD2F PUSH2 0xD27 DUP3 PUSH2 0xD09 JUMP JUMPDEST DUP5 DUP5 SLOAD PUSH2 0xC8E JUMP JUMPDEST DUP3 SSTORE POP POP POP POP JUMP JUMPDEST PUSH0 SWAP1 JUMP JUMPDEST PUSH2 0xD43 PUSH2 0xD37 JUMP JUMPDEST PUSH2 0xD4E DUP2 DUP5 DUP5 PUSH2 0xD12 JUMP JUMPDEST POP POP POP JUMP JUMPDEST JUMPDEST DUP2 DUP2 LT ISZERO PUSH2 0xD71 JUMPI PUSH2 0xD66 PUSH0 DUP3 PUSH2 0xD3B JUMP JUMPDEST PUSH1 0x1 DUP2 ADD SWAP1 POP PUSH2 0xD54 JUMP JUMPDEST POP POP JUMP JUMPDEST PUSH1 0x1F DUP3 GT ISZERO PUSH2 0xDB6 JUMPI PUSH2 0xD87 DUP2 PUSH2 0xC61 JUMP JUMPDEST PUSH2 0xD90 DUP5 PUSH2 0xC73 JUMP JUMPDEST DUP2 ADD PUSH1 0x20 DUP6 LT ISZERO PUSH2 0xD9F JUMPI DUP2 SWAP1 POP JUMPDEST PUSH2 0xDB3 PUSH2 0xDAB DUP6 PUSH2 0xC73 JUMP JUMPDEST DUP4 ADD DUP3 PUSH2 0xD53 JUMP JUMPDEST POP POP JUMPDEST POP POP POP JUMP JUMPDEST PUSH0 DUP3 DUP3 SHR SWAP1 POP SWAP3 SWAP2 POP POP JUMP JUMPDEST PUSH0 PUSH2 0xDD6 PUSH0 NOT DUP5 PUSH1 0x8 MUL PUSH2 0xDBB JUMP JUMPDEST NOT DUP1 DUP4 AND SWAP2 POP POP SWAP3 SWAP2 POP POP JUMP JUMPDEST PUSH0 PUSH2 0xDEE DUP4 DUP4 PUSH2 0xDC7 JUMP JUMPDEST SWAP2 POP DUP3 PUSH1 0x2 MUL DUP3 OR SWAP1 POP SWAP3 SWAP2 POP POP JUMP JUMPDEST PUSH2 0xE07 DUP3 PUSH2 0xABE JUMP JUMPDEST PUSH8 0xFFFFFFFFFFFFFFFF DUP2 GT ISZERO PUSH2 0xE20 JUMPI PUSH2 0xE1F PUSH2 0x8DA JUMP JUMPDEST JUMPDEST PUSH2 0xE2A DUP3 SLOAD PUSH2 0xC31 JUMP JUMPDEST PUSH2 0xE35 DUP3 DUP3 DUP6 PUSH2 0xD75 JUMP JUMPDEST PUSH0 PUSH1 0x20 SWAP1 POP PUSH1 0x1F DUP4 GT PUSH1 0x1 DUP2 EQ PUSH2 0xE66 JUMPI PUSH0 DUP5 ISZERO PUSH2 0xE54 JUMPI DUP3 DUP8 ADD MLOAD SWAP1 POP JUMPDEST PUSH2 0xE5E DUP6 DUP3 PUSH2 0xDE3 JUMP JUMPDEST DUP7 SSTORE POP PUSH2 0xEC5 JUMP JUMPDEST PUSH1 0x1F NOT DUP5 AND PUSH2 0xE74 DUP7 PUSH2 0xC61 JUMP JUMPDEST PUSH0 JUMPDEST DUP3 DUP2 LT ISZERO PUSH2 0xE9B JUMPI DUP5 DUP10 ADD MLOAD DUP3 SSTORE PUSH1 0x1 DUP3 ADD SWAP2 POP PUSH1 0x20 DUP6 ADD SWAP5 POP PUSH1 0x20 DUP2 ADD SWAP1 POP PUSH2 0xE76 JUMP JUMPDEST DUP7 DUP4 LT ISZERO PUSH2 0xEB8 JUMPI DUP5 DUP10 ADD MLOAD PUSH2 0xEB4 PUSH1 0x1F DUP10 AND DUP3 PUSH2 0xDC7 JUMP JUMPDEST DUP4 SSTORE POP JUMPDEST PUSH1 0x1 PUSH1 0x2 DUP9 MUL ADD DUP9 SSTORE POP POP POP JUMPDEST POP POP POP POP POP POP JUMP JUMPDEST PUSH32 0x4E487B7100000000000000000000000000000000000000000000000000000000 PUSH0 MSTORE PUSH1 0x11 PUSH1 0x4 MSTORE PUSH1 0x24 PUSH0 REVERT JUMPDEST PUSH0 PUSH2 0xF04 DUP3 PUSH2 0x75D JUMP JUMPDEST SWAP2 POP PUSH32 0xFFFFFFFFFFFFFFFFFFFFFFFFFFFFFFFFFFFFFFFFFFFFFFFFFFFFFFFFFFFFFFFF DUP3 SUB PUSH2 0xF36 JUMPI PUSH2 0xF35 PUSH2 0xECD JUMP JUMPDEST JUMPDEST PUSH1 0x1 DUP3 ADD SWAP1 POP SWAP2 SWAP1 POP JUMP JUMPDEST PUSH32 0x506F6F6C206E6F74206163746976650000000000000000000000000000000000 PUSH0 DUP3 ADD MSTORE POP JUMP JUMPDEST PUSH0 PUSH2 0xF75 PUSH1 0xF DUP4 PUSH2 0xAC8 JUMP JUMPDEST SWAP2 POP PUSH2 0xF80 DUP3 PUSH2 0xF41 JUMP JUMPDEST PUSH1 0x20 DUP3 ADD SWAP1 POP SWAP2 SWAP1 POP JUMP JUMPDEST PUSH0 PUSH1 0x20 DUP3 ADD SWAP1 POP DUP2 DUP2 SUB PUSH0 DUP4 ADD MSTORE PUSH2 0xFA2 DUP2 PUSH2 0xF69 JUMP JUMPDEST SWAP1 POP SWAP2 SWAP1 POP JUMP JUMPDEST PUSH0 PUSH1 0x60 DUP3 ADD SWAP1 POP PUSH2 0xFBC PUSH0 DUP4 ADD DUP7 PUSH2 0xA96 JUMP JUMPDEST PUSH2 0xFC9 PUSH1 0x20 DUP4 ADD DUP6 PUSH2 0xA96 JUMP JUMPDEST PUSH2 0xFD6 PUSH1 0x40 DUP4 ADD DUP5 PUSH2 0xB1E JUMP JUMPDEST SWAP5 SWAP4 POP POP POP POP JUMP JUMPDEST PUSH2 0xFE7 DUP2 PUSH2 0xB2D JUMP JUMPDEST DUP2 EQ PUSH2 0xFF1 JUMPI PUSH0 DUP1 REVERT JUMPDEST POP JUMP JUMPDEST PUSH0 DUP2 MLOAD SWAP1 POP PUSH2 0x1002 DUP2 PUSH2 0xFDE JUMP JUMPDEST SWAP3 SWAP2 POP POP JUMP JUMPDEST PUSH0 PUSH1 0x20 DUP3 DUP5 SUB SLT ISZERO PUSH2 0x101D JUMPI PUSH2 0x101C PUSH2 0x755 JUMP JUMPDEST JUMPDEST PUSH0 PUSH2 0x102A DUP5 DUP3 DUP6 ADD PUSH2 0xFF4 JUMP JUMPDEST SWAP2 POP POP SWAP3 SWAP2 POP POP JUMP INVALID LOG2 PUSH5 0x6970667358 0x22 SLT KECCAK256 0xD9 DUP8 0xB5 BLOCKHASH 0xE7 JUMPI CODECOPY 0xE4 0x4D 0xC SWAP5 0xB8 0xB3 0xD7 BLOBBASEFEE 0x28 0x4E 0xF DUP3 PUSH32 0x61A0D7C673849E87ABF8642A64736F6C634300081A0033000000000000000000 "
				},
				"gasEstimates": {
					"creation": {
						"codeDepositCost": "840200",
						"executionCost": "infinite",
						"totalCost": "infinite"
					},
					"external": {
						"createPool(string,uint256)": "infinite",
						"enterPool(uint256)": "infinite",
						"getPoolEntries(uint256)": "infinite",
						"owner()": "2530",
						"poolCount()": "2513",
						"poolEntries(uint256,uint256)": "infinite",
						"pools(uint256)": "infinite",
						"tokenAddress()": "2549",
						"treasury()": "2508"
					}
				},
				"methodIdentifiers": {
					"createPool(string,uint256)": "26fc66ab",
					"enterPool(uint256)": "5f951eab",
					"getPoolEntries(uint256)": "17c1fdd3",
					"owner()": "8da5cb5b",
					"poolCount()": "f525cb68",
					"poolEntries(uint256,uint256)": "38a84ab4",
					"pools(uint256)": "ac4afa38",
					"tokenAddress()": "9d76ea58",
					"treasury()": "61d027b3"
				}
			},
			"storageLayout": {
				"storage": [
					{
						"astId": 15,
						"contract": "RewardPool.sol:RewardPoolManager",
						"label": "tokenAddress",
						"offset": 0,
						"slot": "0",
						"type": "t_address"
					},
					{
						"astId": 17,
						"contract": "RewardPool.sol:RewardPoolManager",
						"label": "treasury",
						"offset": 0,
						"slot": "1",
						"type": "t_address"
					},
					{
						"astId": 19,
						"contract": "RewardPool.sol:RewardPoolManager",
						"label": "owner",
						"offset": 0,
						"slot": "2",
						"type": "t_address"
					},
					{
						"astId": 31,
						"contract": "RewardPool.sol:RewardPoolManager",
						"label": "pools",
						"offset": 0,
						"slot": "3",
						"type": "t_mapping(t_uint256,t_struct(Pool)26_storage)"
					},
					{
						"astId": 33,
						"contract": "RewardPool.sol:RewardPoolManager",
						"label": "poolCount",
						"offset": 0,
						"slot": "4",
						"type": "t_uint256"
					},
					{
						"astId": 38,
						"contract": "RewardPool.sol:RewardPoolManager",
						"label": "poolEntries",
						"offset": 0,
						"slot": "5",
						"type": "t_mapping(t_uint256,t_array(t_address)dyn_storage)"
					}
				],
				"types": {
					"t_address": {
						"encoding": "inplace",
						"label": "address",
						"numberOfBytes": "20"
					},
					"t_array(t_address)dyn_storage": {
						"base": "t_address",
						"encoding": "dynamic_array",
						"label": "address[]",
						"numberOfBytes": "32"
					},
					"t_bool": {
						"encoding": "inplace",
						"label": "bool",
						"numberOfBytes": "1"
					},
					"t_mapping(t_uint256,t_array(t_address)dyn_storage)": {
						"encoding": "mapping",
						"key": "t_uint256",
						"label": "mapping(uint256 => address[])",
						"numberOfBytes": "32",
						"value": "t_array(t_address)dyn_storage"
					},
					"t_mapping(t_uint256,t_struct(Pool)26_storage)": {
						"encoding": "mapping",
						"key": "t_uint256",
						"label": "mapping(uint256 => struct RewardPoolManager.Pool)",
						"numberOfBytes": "32",
						"value": "t_struct(Pool)26_storage"
					},
					"t_string_storage": {
						"encoding": "bytes",
						"label": "string",
						"numberOfBytes": "32"
					},
					"t_struct(Pool)26_storage": {
						"encoding": "inplace",
						"label": "struct RewardPoolManager.Pool",
						"members": [
							{
								"astId": 21,
								"contract": "RewardPool.sol:RewardPoolManager",
								"label": "ipfsHash",
								"offset": 0,
								"slot": "0",
								"type": "t_string_storage"
							},
							{
								"astId": 23,
								"contract": "RewardPool.sol:RewardPoolManager",
								"label": "entryCost",
								"offset": 0,
								"slot": "1",
								"type": "t_uint256"
							},
							{
								"astId": 25,
								"contract": "RewardPool.sol:RewardPoolManager",
								"label": "active",
								"offset": 0,
								"slot": "2",
								"type": "t_bool"
							}
						],
						"numberOfBytes": "96"
					},
					"t_uint256": {
						"encoding": "inplace",
						"label": "uint256",
						"numberOfBytes": "32"
					}
				}
			},
			"userdoc": {
				"kind": "user",
				"methods": {},
				"version": 1
			}
		}
	}
}